:020000040800F2
:10000000A0D00120E10100080B9901082983010813
:1000100009990108CD3201087FB0010800000000F5
:100020000000000000000000000000003FA40108E4
:10003000ED3301080000000019990108F9010008DA
:10004000FB010008FB010008FB010008FB010008A0
:10005000FB010008FB010008FB010008FB01000890
:10006000FB010008FB010008FB010008FB01000880
:10007000FB010008FB010008FB010008FB01000870
:10008000FB010008FB010008FB010008FB01000860
:10009000FB010008FB010008FB010008FB01000850
:1000A000FB010008FB010008FB010008FB01000840
:1000B000FB010008FB010008FB010008FB01000830
:1000C000FB010008FB010008FB010008FB01000820
:1000D000FB010008FB010008FB010008FB01000810
:1000E000FB010008FB010008FB010008FB01000800
:1000F000FB010008FB010008FB010008FB010008F0
:10010000FB010008FB010008FB010008FB010008DF
:10011000FB010008FB01000871A50108FB010008B4
:10012000FB010008FB010008FB010008FB010008BF
:10013000FB010008FB010008FB010008FB010008AF
:10014000FB010008FB010008FB0100080D990108F4
:10015000FB010008FB010008FB010008FB0100088F
:10016000FB010008FB010008FB010008FB0100087F
:10017000FB010008FB010008FB0100080000000073
:10018000FB010008FB010008FB010008FB0100085F
:10019000FB010008FB010008FB010008FB0100084F
:1001A000858C0108FB010008AD330108FB01000844
:1001B000FB010008FB010008FB010008FB0100082F
:1001C000FB010008FB010008DFF810D000F0D8FBAD
:1001D0000048004759D40108AFF30080A0D00120A7
:1001E0000648804706480047FEE7FEE7FEE7FEE7D1
:1001F000FEE7FEE7FEE7FEE7FEE7FEE71DA50108D6
:10020000C90100082DE9F05F0546002092469B4693
:1002100088460646814640241BE02846414647461C
:10022000224600F0B0FA53465A46C01A914110D304
:1002300011461846224600F097FA2D1A67EB01087E
:100240004F4622460120002100F08EFA17EB0009EC
:100250004E41201EA4F10104DFDC484631462A4607
:100260004346BDE8F09F10B5441A0346944209D2B4
:100270008418114403E011F8013D04F8013D521EB9
:10028000F9D210BD40EA0104A40703D009E010C967
:10029000121F10C3042AFAD203E011F8014B03F82D
:1002A000014B521EF9D210BDD2B201E000F8012B71
:1002B000491EFBD270470022F6E710B513460A46E6
:1002C00004461946FFF7F0FF204610BD421E12F803
:1002D000013F002BFBD111F8013B02F8013B002B41
:1002E000F9D1704710B5044604E00B7800F8013BE3
:1002F00003B1491C521EF8D2204610BD421C10F812
:10030000011B0029FBD1801A704710B5002200E0C4
:10031000521C835C8C5CA34201D1002BF8D1D8B273
:10032000E1B2401A10BD034611F8012B00F8012B71
:10033000002AF9D1184670472DE9FE4F804681EA20
:100340000300C00F0C46009021F0004123F000454F
:10035000B8EB0200A94105D24046214690461C4612
:100360000B46024623F00040104347D0270DC7F349
:100370000A00C3F30A510290401A019040286BDA38
:10038000C3F3130040F4801B0098924620B1002371
:10039000D2EB030A63EB0B0B01985946C0F1400204
:1003A000504600F0E1F906460D4650465946019A7E
:1003B00000F0F9F910EB08006141002487EA1152BE
:1003C00084EAE7731A4340D0009A62B3019A012A83
:1003D0004FEA075215DC001B61EB02014FF00042AF
:1003E00002EA0752CDE90042001C41F58011324675
:1003F0002B4600F048FA03B0BDE8F08F4046214696
:10040000F9E7001B61EB0201001C41F580130018A5
:100410005B412018A2F5001747EB030140EAD570B5
:10042000B6196D4111E06D084FEA360645EAC07510
:100430004FEA0752001B61EB0201001C41F58011DD
:1004400049084FEA30000019514132462B4603B0AB
:10045000BDE8F04F00F008BA0098012240000023E8
:10046000D0EB020263EBE073009821464FEAE074A0
:10047000B8EB000061EB0401E9E783F000435BE7C0
:1004800081F0004158E72DE9FE4F81EA030404F0B2
:10049000004421F0004100944FF0000B23F0004392
:1004A00050EA01045ED052EA03045BD0C3F30A545D
:1004B000C1F30A552C44A4F2F3340194A0FB025476
:1004C000C1F3130141F48011C3F3130343F4801308
:1004D00001FB024400FB034E840A970A44EA81545C
:1004E00047EA8357A4FB076802958D0A05FB078539
:1004F0004FEA932C04FB0C542705029D4FEA065843
:1005000047EA1637B5EB08056EEB070C870E920E1F
:1005100047EA811742EA8312A7FB0201B6EB0B01FF
:1005200064EB00042B0D43EA0C335E1844EB1C50C3
:10053000DA465146E7FB0201C5F313044FEA0B33D9
:1005400043EA14534FEA0432019C43EA0603A4F140
:100550000C040294009CCDE900B400F094F903B0BF
:10056000BDE8F08F00200146F9E72DE9F04D81EA62
:10057000030404F0004B21F0004514464FF0000A3C
:1005800023F0004150EA050220D054EA01021DD0B8
:10059000C5F30A570246C5F31303C1F31300C1F3B1
:1005A0000A5640F4801543F48013A7EB0608101B8D
:1005B000D64608F2FD3873EB050002D308F10108B6
:1005C00001E092185B41B8F1000F03DA0020014608
:1005D000BDE8F08D00204FF48011064684460EE001
:1005E000171B73EB050705D3121B63EB05030643CB
:1005F0004CEA010C49084FEA300092185B4150EA7E
:100600000107EDD152EA030012D082EA040083EA26
:100610000501084305D0101BAB4106D2012200237F
:1006200006E000224FF0004302E06FF00102531099
:100630001AEB06004CEB085110EB0A0041EB0B01E2
:10064000BDE8F04D00F010B90EB5C10F80EAE070C2
:100650000844CA07002140F233438DE80E000A46E1
:100660000B4600F010F903B000BD3EB5CA17CB0F22
:10067000002450405140C0186141DA0740F2334332
:100680000094CDE901232246234600F0FCF803B094
:1006900030BD70B5C1F30A5201F000450024C1F32A
:1006A000130140F2FF3341F480119A4202DA002034
:1006B000014670BD40F233439A42A2F2334203DC5A
:1006C000524200F060F801E000F04EF82C43F0D008
:1006D0000023D0EB030063EB010170BD30B5041EB5
:1006E00071F1000404DB4FF00044404264EB01016F
:1006F000141E73F1000405DB1C464FF00043524208
:1007000063EB04038B4208BF824230BD30B5041E48
:1007100071F1000404DB4FF00044404264EB01013E
:10072000141E73F1000405DB1C464FF000435242D7
:1007300063EB0403994208BF904230BD30B50B46CD
:10074000014600202022012409E021FA02F59D4201
:1007500005D303FA02F5491B04FA02F52844151ED5
:10076000A2F10102F1DC30BD202A04DB203A00FABC
:1007700002F1002070479140C2F1200320FA03F3F8
:10078000194390407047202A04DB203A21FA02F0F6
:100790000021704721FA02F3D040C2F120029140BB
:1007A000084319467047202A06DBCB17203A41FA46
:1007B00002F043EAE07306E041FA02F3D040C2F1EE
:1007C0002002914008431946704700000FB40023EF
:1007D00000B589B00CA900910B996FF00042CB6075
:1007E0001E4B06931E4B07930423CDE901321D4A8D
:1007F000089202466B46002000F06EF909B05DF8E1
:1008000014FB70B586B006464FF0FF300091CDE97D
:100810000101002015460C4604903246694604A8A2
:10082000FFF7D4FF02460498211825B108B1084605
:1008300000E020462860049800280DD0002A02DD40
:100840000098884208D0081B0094CDE90104324684
:10085000694604A8FFF7BAFF06B070BD110D000885
:100860002F0D0008A509000810B5141E73F100042F
:1008700008DA401C41F1000192185B411A4301D192
:1008800020F0010010BD2DE9F04D92469B4611B1BC
:10089000B1FA81F202E0B0FA80F220329046FFF71E
:1008A00063FF04460F4640EA0A0041EA0B01534643
:1008B0005A46084313D0114653EA010019D0C8F133
:1008C00040025046FFF75FFF05460E465046594628
:1008D0004246FFF749FF084305D0012004E02046C7
:1008E0003946BDE8F08D0020054346EAE0762C430A
:1008F00037430A986305E40AA0EB08000022FD0ACA
:1009000044EA47540A3002D500200146E9E70105D0
:1009100010196941DDE9084500196941BDE8F04D4C
:10092000A2E770B521F0004303430CD0C1F30A5590
:100930000024D5EB040564EB0403D617AD1AB341CC
:1009400002DB0020014670BD201841EB025170BD52
:10095000C1F30A52C1F3130140F2FF3341F4801195
:100960009A4202DA00200146704740F233439A422D
:10097000A2F2334202DC5242FFF705BFFFF7F4BE9A
:10098000064C074D06E0E06840F0010394E80700DC
:1009900098471034AC42F6D3FFF71AFCD00802088F
:1009A000F0080208C0B24FF4F05100F023BA000082
:1009B0002DE9FF4F087883B09946FF2805D0491CE0
:1009C0002D2804D00024002008E000200BE00124A2
:1009D000F9E700EB800003EB4000491C0B78FF2B8C
:1009E000F7D104B1404200230293147819461D4602
:1009F0002D2C01D02B2C04D1521C2D2C13D00024D3
:100A00000294AA461478FF2C0FD00A25A3FB057880
:100A100001FB05814FF0000C03FB0C11521CE31984
:100A20004AEB0101EEE70124EAE7814453EA0100C1
:100A300002D019F5C87F06DA03980021C0E9001139
:100A400007B0BDE8F08F0025AE4E2F46DFF8B88224
:100A5000184600F0E3F9CDE90001B9F1000002DA2F
:100A6000C9F1000400E004460023A74A1AEB030B77
:100A700042EB045A12E0E00707D02A4633463846D4
:100A80004146FFF700FD074688462A463346104692
:100A90001946FFF7F8FC05460E466410002CEAD113
:100AA000DDE90001B9F1000F5A46534606DAFFF7B7
:100AB0005CFD3A464346FFF758FD05E0FFF7E3FCCF
:100AC0003A464346FFF7DFFC029A0AB181F0004143
:100AD000039AC2E90001B3E72DE9FF4F1F468DB02D
:100AE000D7E901464FF0FF382E2045464FF0000968
:100AF0000B90B9696D1C0E988847396A8246884701
:100B00000028F6D1BAF1FF3F0AD024F4D064002EB9
:100B100011DDBAF12B0F08D0BAF12D0F0BD102E085
:100B2000404611B08DE744F48064B9696D1C0E989D
:100B300088478246761E6946600501D52D2000E073
:100B40002B208DF8000001F1010B0DF1200809E0C8
:100B5000B9696D1C0E98884782460F9844F400745A
:100B6000761E0560002E02DDBAF1300FF0D00B9931
:100B70008A453ED144F0800406E00F99681CA9F133
:100B8000010944F400740860B9696D1C761E0E9862
:100B9000884782463028F0D02BE00B998A4505D152
:100BA000200603D444F08004761E18E050461BF063
:100BB0008FFD08B30DF11301761E44F400748B45CC
:100BC00008D2AAF130000BF8010B200607D5A9F1D5
:100BD000010003E0200602D409F101008146A005CE
:100BE00002D50F99681C0860B9696D1C0E9888477A
:100BF0008246002ED1DC53E0002E51DDBAF1650FA4
:100C000002D0BAF1450F4BD1A00549D5B9696D1C89
:100C100024F44074761E0E9888478246002E0CDD20
:100C20002B2804D0BAF12D0F07D144F48074B96990
:100C30006D1C0E9888478246761EE00501D52D2151
:100C400000E02B2108F8011BCDF82C8021E00DF1EC
:100C50002901761E44F4007488450CD2AAF13000B4
:100C600010F0FF0088F8000002D10B99884509D9DF
:100C700008F1010806E0E00501D5244801E042F250
:100C80000F708146B9696D1C0E98884782460F988F
:100C90000560002E04DD50461BF01AFD0028D6D159
:100CA000F9690E988847FF208BF8000088F800004B
:100CB0000020069007904B466A4608A906A8FFF751
:100CC00077FEA00502D46FF001002AE714F0240F8C
:100CD0000AD0E00714D1DDE906123868031D3B6035
:100CE0000068C0E900120BE0DDE9060100F0A2F89F
:100CF0000146E00704D13868021D3A6000680160CF
:100D000028460EE7000014400000F03FF1D8FFFF36
:100D1000426842B1016811F8013B23B1521EC0E99B
:100D20000012184670470121C160881E7047426852
:100D30005AB1C368016843B983688B4205D0491E24
:100D4000521CC0E90012002070474FF0FF3070477E
:100D50002DE9F04D00231A461B1A8A4103DB0020BF
:100D60000146BDE8F08DC1F30A52C1F3130141F40D
:100D700080154FF0000BD10702D100186D41521EB3
:100D80000027044640F2FF11384601EB620A3E4656
:100D90008046024600204FF48011FFF7F4FCC21990
:100DA0007141BB1846EB0100B4EB030C75EB000C72
:100DB00004D3E41A65EB000517460E46241908F122
:100DC00001006D4180463428E3DDF91946EB060049
:100DD000091BA84103D24FF0FF32134601E0002265
:100DE00013461BEB070046EB0A51BDE8F04DFFF739
:100DF0003BBD00007F2801D9002208E0064A02EB33
:100E00005002C007127800D1120902F00F0201202F
:100E1000904008407047000080D901080EB540F2AC
:100E2000334202920022CDE900221346FFF72BFD48
:100E300003B000BD01F0004330B421F0004150EA9E
:100E4000010206D00A0DA2F56072C1F31301002A57
:100E500002DC30BC00207047440F44EAC104C100EA
:100E6000E01830BC00EBC250AFF300800029A8BFEF
:100E70007047401C490008BF20F00100704710B4C3
:100E8000B0FA80FC00FA0CF050EA010404BF10BC78
:100E9000704749B1CCF1200421FA04F411FA0CF1A5
:100EA00018BF012121430843A3EB0C01CB1D4FEADE
:100EB00000614FEA102042BF002010BC704700EBD9
:100EC000C35010440029A4BF10BC7047401C490007
:100ED00008BF20F0010010BC704770B58C1810F8E6
:100EE000015B15F0070301D110F8013B2A1106D16F
:100EF00010F8012B03E010F8016B01F8016B5B1E89
:100F0000F9D12B0705D40023521E0DD401F8013B63
:100F1000FAE710F8013BCB1A921C03E013F8015BCF
:100F200001F8015B521EF9D5A142D8D3002070BD53
:100F300070B5456882B004460146284608F096FB25
:100F400068B123680F2B59D00BDD282B45D0B3F5A2
:100F5000107F3CD0112B49D0204608F0E7FE02B0AC
:100F600070BD0B2B20D00E2BF6D1E3681A685968A0
:100F70000D2A53D0202A31D1002928464FF4807100
:100F80007DDD08F055FC284602F0F2F902AB846AD8
:100F900043F8040D184602F01FFBA207DFD52846D0
:100FA00001210AF093F8DAE7284602AD02F0E0F9F1
:100FB00003466830019301F0CDFF55F8040D03217D
:100FC0006C3001F0E3FF284602F006FBC4E7324B29
:100FD000214628461B689847C1E7E368002BBBD130
:100FE00028464FF4807108F029FBB5E72B4B1B68AE
:100FF000002BB4D0214628469847B0E7284602F097
:10100000B7F9034602A840F8043D5B6E1C6802F085
:10101000E3FA002CA3D02846A047A0E70029DDDD95
:101020004FF48071284608F003FC02AC284602F019
:101030009FF9866A44F8040D204602F0CDFAB10704
:1010400003D5012128460AF041F84FF48071284663
:1010500008F0F4FA284602F08BF9034620461E8E6B
:101060009C6A019302F0B8FA304605F0FDF9A30737
:101070007FF575AF284602210AF028F86FE708F0DF
:10108000DDFA284602F074F9034602A89C6A1E8E17
:1010900040F8043DE6E700BFA000002040C8012062
:1010A0002DE9F043044687B0304F00260091A56932
:1010B000B0F90C104C35B0F90A001944B4F91030ED
:1010C0001044B4F90E20039502970196B4F9085024
:1010D00008F040FD804618B9404607B0BDE8F083EF
:1010E000234F0DF1180902F043F92946102205900B
:1010F0003E1D08F09BFC59F804ED0FCE0EF13405AF
:101100000FC50FCE0FC596E80F0085E80F007B6B6B
:101110004846CEF8643002F05FFA7B6B40465B686D
:1011200098474046656802F023F9034604A89C6E80
:101130000493059402F050FA2946484606F046FE0C
:101140000028C9D0059B9C4209D0404602F010F906
:10115000059A034604A89A66049302F03DFA4046B5
:1011600009F0E2FC404607B0BDE8F083310F00080B
:10117000A0000020974A816843682DE9F0410446A9
:1011800088B052F82160122B40D8DFE803F0B03F5E
:101190003F3F3F0A973F3F3F3F3F3F3F3F3F3F3F3C
:1011A0004300F569002D40F0B580371F57F8040F54
:1011B00005F00AF904F1140120690EC928445B1BEB
:1011C000521B2944013502F0A7FF022DEED16269BE
:1011D0003169E3690191911CF76813442069A269A0
:1011E0005B1028440097521B02F07CFEE1696269A3
:1011F000B0698B1E1144A26901904910206976697B
:10120000521B01312844009602F06CFE002008B009
:10121000BDE8F081006802F0ABF8876E0490002F03
:1012200000F0D080A368B0F95C80002B00F0C8808B
:10123000032B14BF0023022300EB8303406D08AC93
:101240001D6C05F0C5F8284605F0BEF806A803F0A9
:10125000BFF8B28BBDF8181006A8BDF81C301144B9
:10126000BDF81A509A1ABDF81E30ADF818100235A4
:1012700054F8101D023BADF81C20B1F96020B1F903
:101280005E10ADF81E30ADF81A5004F017FC204681
:1012900008AC02F0A1F9022005F0D4F8384602F0BB
:1012A00067F806A9424644F80C0D02F02BFD2046D3
:1012B00002F092F9002008B0BDE8F081006802F069
:1012C00057F8049020680BF08DF9B8B9049B5D6F56
:1012D00005B9DD6E04A802F07FF9002328462168D5
:1012E0001A4602F053FC002008B0BDE8F081006807
:1012F0000AF0ACF9002008B0BDE8F081A368002B2B
:1013000064D1049A136F002B14BF6C236823134419
:101310005D68DFE7B268B046C36900270392716871
:101320008269029158F80409009561690190206969
:1013300006F0FEF858F8040F05F046F8F369A269C4
:1013400021696069D21A1944384402F09BFEF3699E
:10135000A2692169E069D21A1944C01B02F092FE09
:10136000F369E26961692069D21A1944384402F0CC
:1013700015FFA069F369E269C01B61690137D21AE0
:10138000194402F00BFF022FD4D1B06805F01CF80D
:10139000F16922696569901CE3690A445B1A294472
:1013A000013A02F04DFFF169A0696569E369821EA7
:1013B000401A5B1A2944013002F042FFF56906E742
:1013C000012339E704A802F007F91FE7049BDD6E4B
:1013D00080E700BFC0FE010870B582B018B90124D3
:1013E000204602B070BD0C46054601F0C1FF034621
:1013F000866E68468DE8480002F0EEF8214601A8A6
:1014000006F0E4FC00280CBF01240024E8D0019B76
:101410009E4209D0284601F0ABFF019A0346684678
:101420009A66009302F0D8F8284609F07DFB204622
:1014300002B070BD2DE9F04F446805468BB02046E0
:101440000BF0D0F829460646204608F00FF9002890
:1014500034D02B680F2B5CD033DC0B2B46D00E2BFB
:1014600051D1002E4FD0EB685A68002A4BDDD3F8DB
:101470000080A8F10903192B06D80121BF4A01FAFF
:1014800003F31A40002A3ED1C4B10AAE204601F04F
:101490006FFF0346876D46F8180D304693F854A049
:1014A000D3F83490DD6C02F097F8002F00F0DC8068
:1014B00041462046B847204609F036FB0BB0BDE850
:1014C000F08F40F21312934228D0B3F5107F1AD157
:1014D000EB68002B00F096801A7A002A4ED0002C80
:1014E00041D12046012109F0F1FD0CE020460AAC73
:1014F00001F03EFF0346343044F8043D01F02AFD7C
:10150000204602F069F8284608F010FC0BB0BDE850
:10151000F08F204601210FF0B7FFCFE720460AAE3B
:1015200009F00EFF204601F023FF034646F8040DA4
:10153000304693F8562082F0040283F8562002F0D9
:101540004BF8002120460FF09FFF204601F010FFCE
:1015500003460021D0F88400099309F097FE304635
:1015600002F03AF8CFE720461E6801F001FF436B16
:10157000079043B907A802F02FF8B2E720460221EE
:1015800009F0A4FDBFE7184601F0F2FE079B0690A4
:10159000986E04F01DFF8046204608F0F5FE0746D1
:1015A000069802F051FF079A8146136E03F0030379
:1015B000012B00F0E781022B40F0DD813B1A013363
:1015C00048BF0133A6EB6306069806F041FA002EE9
:1015D0000746C0F2F881B14519DA204601F0C8FE8D
:1015E000436B0890002B40F0D38108A801F0F4FF72
:1015F00006A801F0F1FF404604F0EAFE204609F09B
:1016000093FAB7E72046032109F060FD7BE7024625
:101610003146069806F09CF90646204601F0A8FEE1
:10162000436B0890002BE0D0184626EAE67601F0DE
:101630009FFE099006F00CFA0899B1F9383091F83C
:101640005470CA6C002F18BF013BB342A8BF334689
:101650009842A8BF1846824200D0C864002309A857
:101660000B6501F0B9FFC0E7A8F10803162B00F2E3
:10167000E680DFE813F0A000E400E400E400E4000A
:10168000E400E400E400BC00850076004800E400CB
:10169000E400E400E400E400E400E400E400E4002A
:1016A00038001700204601F063FE03460AA85D6B70
:1016B00040F8083DDF6C01F08FFF002D3FF4FBAEDA
:1016C000284601F055FE39460646099005F01CF8FB
:1016D00005463046FEF712FE8542C0F0E28109A8B9
:1016E00001F07AFFE7E6204601F042FEBAF1010F71
:1016F0000346049040F08781002280F85420304651
:1017000001F06AFFD7E6B9F1000F3FF4D4AE4846C6
:1017100001F02EFE06462946099004F0F5FF064426
:10172000304604F0B1FF002305468DF82230ADF8B5
:101730002030013D04F0B4FF0746ADB2284604F066
:10174000AFFF8742CBD1294608A804F097FF08A92C
:101750003A463046FEF787FD0521204609F0B6FCE3
:10176000BDE7204601F004FE436B0890002B40F0DB
:10177000A88108A801F030FF9DE600BF1300040314
:10178000B9F1000F3FF497AE484601F0F1FD06466F
:101790002946099004F0B8FF0644304604F074FF6F
:1017A000002305468DF82230ADF82030013504F0D5
:1017B00077FF0746C1E7002D3FF47DAE204601F0DC
:1017C000D7FD436B0890002B40F0948108A801F0EE
:1017D00003FF204601F0CCFD034608A85D6BDF6CDB
:1017E000089301F0F9FE002D3FF465AE68E720464E
:1017F00001F0BEFD436B0890002BBAD0184601F0F3
:10180000B7FD099006F024F9089A6B1EB2F938105A
:1018100023EAE37392F85460D56C002E18BF0139A7
:101820008B42A8BF0B469842A8BF184600238542AA
:10183000136518BFD06409A801F0CEFE99E7B8F18E
:101840001F0F7FF738AEBAF1000F40F00881204635
:1018500001F08EFDB0F9383081460590002B07DD90
:10186000406B002840F06B8107469F4280F2638105
:101870001FFA88F30DF128091E46019359F8143D0B
:10188000DB6C4846039301F0A7FE304604F008FFE6
:101890008346204601F06CFD436B0690002B40F020
:1018A0008F811E460AA80BEB060350F8102D01335A
:1018B000568F9E1B01F090FE002E40F37E81204645
:1018C000103601F055FD0346B0F83A800AAFD3F860
:1018D00034A0B04447F8080D384601F07DFE41467B
:1018E000504601F059FD029000283FF4E4ADBAF1F2
:1018F000000F00F0548109AE204601F039FD029A34
:10190000034638460893A3F83A805A6301F064FE10
:10191000204601F02DFD03464846D3F83480059358
:1019200001F05AFE404601F023FD804603990990DC
:1019300004F0EAFE80444046FEF7E0FC4146421CCB
:1019400008EB0B00FEF78FFC0199404604F096FE71
:10195000304601F041FE0521204609F0B7FB204644
:1019600001F006FD436B0890002B40F0F6803846EE
:1019700001F032FE9FE5536ED16A5A1C0B68134486
:10198000F61A21E6536E3F1A0133FB1AF61A1BE6CC
:10199000184627EAE77701F0EBFC099006F058F8C3
:1019A0000899B1F9383091F85460CA6C002E18BF0C
:1019B000013BBB42A8BF3B469842A8BF18468242A3
:1019C0007FF44BAE4AE6204601F0D2FC436B089010
:1019D000002B3FF40AAE184601F0CAFC099006F04D
:1019E00037F80899B1F9383091F85460CA6C002E74
:1019F00018BF013B03EAE3739842A8BF184682422E
:101A00007FF42BAE2AE60122204683F8542001F011
:101A1000AFFC436B0890F3B1184625EAE57501F079
:101A2000A7FC099006F014F8089AB2F9383092F839
:101A30005470D16C002F18BF013BAB42A8BF2B469E
:101A40009842A8BF184600238142136518BFD0648E
:101A500009A801F0C1FD08A801F0BEFD4FE60AAFDC
:101A6000204601F085FC466B034647F8080D3846D2
:101A7000D3F84C9001F0B0FD002E3FF4E8AE3046B4
:101A800001F076FC49460746099004F03DFE064603
:101A90003846FEF733FC86421CD309A801F09CFDB2
:101AA000D5E63544284604F0F5FD29182846FEF70A
:101AB0003AFC09A801F090FD0521204609F006FB3B
:101AC000F9E4184601F054FC099005F0C1FF089AAA
:101AD0006B1C9BE63E44304604F0DCFD311830467A
:101AE000FEF721FC09A801F077FD0521204609F049
:101AF000EDFAACE6184601F03BFC099005F0A8FFB2
:101B0000089A6B1EB2F9381092F8546023EAE37316
:101B1000D56C002E18BF01398B42A8BF0B469842E6
:101B2000A8BF184600238542136518BFD06409A8D2
:101B300001F052FD4AE605A801F04EFDBBE40AAEF5
:101B400001F016FC46F8040D05F082FF074630460A
:101B500001F042FDB9F9383087E6184601F008FC7B
:101B6000099005F075FF08996B1C91F854E0B1F9E4
:101B7000385023EAE373CA6CBEF1000F18BF013D71
:101B8000AB42A8BF2B469842A8BF184600239042FC
:101B90000B6518BFC864304601F01EFDE7E601F092
:101BA000E7FB0AAE0D4B514646F8040D42461B6852
:101BB0009847304601F010FD9EE609AE08AFA7E653
:101BC00018460AAF01F0D4FB47F80C0DFEF796FB60
:101BD0000646384601F000FD64E600BF54010020CF
:101BE0002DE9F047044688B04D4F4FF480560091E0
:101BF000A569B0F90C106035B0F90A001944B4F9C0
:101C000010301044B4F90E20039502970196B4F9F0
:101C10000850D4F8148007F09DFF20B900273846FB
:101C200008B0BDE8F087074601F0A2FB2946102264
:101C3000059007F0FBFE3B4E4FF0010CDDF814E081
:101C40000FCE0EF160050FC50FCED6F8009018F13B
:101C5000010618BF0126B8F1000F0FC5C5F80090A6
:101C60008EF855C08EF8886055DD0FFA88F808EBBD
:101C70000C050023AEF8388005A808AEAEF83A305F
:101C8000CEF8343001F0A8FC384601F071FB034671
:101C9000428FD3F83480154446F8080D304601F0E1
:101CA0009BFC2946404601F077FB824678B3B8F1A9
:101CB000000F1DD00DF11C09384601F059FB0346F9
:101CC00030465D87C3F834A0069301F085FC3846A2
:101CD000648A01F04DFB079018B10466384608F09D
:101CE00023FF484601F078FC384608B0BDE8F0878D
:101CF00001F03EFB0DF120090B4B414649F8040D64
:101D00002A461B689847484601F066FCD4E73846E7
:101D100008F03CF882E709254FF00808A9E700BF62
:101D200035140008D80000205401002000B9704785
:101D300070B582B00D46044601F01AFB02AE0346B0
:101D40008566204646F8043D08F0EEFE304601F078
:101D500043FC02B070BD00BF00B97047AFF3008014
:101D60002DE9F04F8BB00E46074601F001FB0AAD9E
:101D70000246446B45F8180D2846B2F9388001F048
:101D80002BFC002E00F0A880002C7DD1A14630460F
:101D9000444605F05DFE8045A8BF04463046214616
:101DA00004F0B2FC00F10108384601F0E1FA436B9F
:101DB000C9EB080A0690002B57D19946D144438FAE
:101DC00006A809F10109C3EB090901F005FCB9F105
:101DD000000F25DD384609F1100901F0C9FA034664
:101DE000428F0DF1280AD3F834B091444AF8080D17
:101DF000504601F0F1FB4946584601F0CDFA0190FA
:101E000068B3BBF1000F54D0384601F0B1FA019B22
:101E100002465046A2F83A905363089201F0DCFB68
:101E2000384601F0A5FA0346406B049301F0A0FA8E
:101E3000314B4246314605901B689847059A00236E
:101E4000904408F8013C049BB3F93820DC64A242BA
:101E500028D005A801F0C0FB284601F0BDFB38469C
:101E600008F062FE0BB0BDE8F08F18460DF1280BAC
:101E700001F07EFA4BF80C0DFEF740FA8146584609
:101E800001F0AAFB069899E720460AAC01F070FA27
:101E900044F8140DFEF732FA00F10109204601F072
:101EA0009BFB74E793F85420012AD2D1013CDC64F7
:101EB000CFE701F05DFA0AABDFF840E0594643F89E
:101EC000040D4A46DEF800B002930393D847029B04
:101ED000184601F081FB97E7384601F049FA0346BE
:101EE0003430049301F036F8049B28465E87DE64A4
:101EF00001F072FBB3E700BF500100205401002045
:101F000000B9704730B583B004460D4601F030FA91
:101F1000019018B10566204608F006FE01A801F000
:101F20005BFB03B030BD00BF00B9704770B582B035
:101F3000064615460C4601F01BFA019008B1022C2A
:101F400004D901A801F048FB02B070BD00EB840188
:101F50003046CD6608F0E8FDF3E700BF2DE9F04715
:101F6000466886B00546304601F002FAC36D00901F
:101F7000D0F88840D0F88070D0F86880B0F87C90B5
:101F8000002B64D0D3F800A0684601F025FB14B9FB
:101F900009E024683CB16368284698470028F8D0D7
:101FA00006B0BDE8F0872B68172B00F0A5801DDC7C
:101FB0000F2B00F08D807DDC0B2B00F0BF800D2BF4
:101FC0000AD119F0080F07D1EB68DB6823B11B7A3F
:101FD00013B1304609F072FA3046294607F046FB45
:101FE0000028DDD0284607F0A1FED9E7262B75D0C2
:101FF0002FDC1E2B00F0AE80202BEDD1EC68002CE6
:10200000EAD0314660680AF0D3FA002800F0BC80BC
:10201000304601F0ADF9B0F87C3002460190180767
:1020200040F1258101A801F0D7FA314660680AF035
:10203000ADFA0028D0D0304601F09AF96268034624
:1020400001A80193C3F8802001F0C6FAC4E79A46BC
:102050009AE72A2B65D0B3F5107FBDD106AC304688
:10206000D5F80C8001F084F9B0F87C7044F8140DB8
:10207000204601F0B1FAEB68002B91D098F80830B7
:10208000002B00F0A780380740F1B380304607F0FE
:1020900023FD07F48873B3F5887F81D107F08003AF
:1020A0009BB2002B7FF47CAF41463046052209F0FD
:1020B000B3F975E7112B22D0142B8DD1304601A92D
:1020C00000F07CFB02ABEA6803CB1060516067E76D
:1020D000BAF1000F80D03046D0477DE7EB68022B85
:1020E0007FF45EAF272206A9A86841F8142D039655
:1020F00004930AF08DFB53E7C5F80C8050E7EC68B9
:10210000304601F035F901902389012B05D1B0F853
:102110007C3043F48073A0F87C3001A801F05CFAB5
:102120005AE7304601F024F9EB680090002B64D0A8
:10213000C0F88430684601F04FFA31E7304601F0CC
:1021400017F903467030009300F004FF684601F071
:1021500043FA41E7EC68012C53D0002E3FF420AF46
:10216000304601F005F9B0F87C30024601901C07BA
:1021700006D523F008033046A2F87C3008F0D4FCE2
:1021800001A801F029FA0BE7304601F0F1F8B0F8A8
:102190007C3002460190190706D523F0080330462B
:1021A000A2F87C3008F0C0FC01A801F015FA314615
:1021B00020680AF0EBF900283FF40EAF304601F03A
:1021C000D7F82268034601A80193C3F8802001F0E4
:1021D00003FA01E7304601F0CBF803462046B3F896
:1021E0007C20019322F48072A3F87C2001F0F4F9A2
:1021F000D6E6304609F062F948E7D0F88430EB6063
:1022000098E7384608F00AFF00B3384609F056F957
:10221000384608F069FB90B926B9002F7FF4C0AEAC
:10222000EF60BDE6304601F0A3F8B0F87C3002461E
:102230000190190723D501A801F0CEF9EDE7214659
:10224000384607F0F5FA002EE7D0EBE7404609F0F4
:1022500087F90746304601F08BF803466846C3F815
:102260008070009301F0B8F9002ED6D0DAE743F081
:1022700008033046A2F87C3008F056FCD2E643F062
:1022800008033046A2F87C3008F04EFCD3E700BFCC
:102290002DE9F04F04468DB04FF480564B4F00911E
:1022A000A569B0F90C106035B0F90A001944B4F909
:1022B00010301044B4F90E20039502970196B4F83B
:1022C00012A0B4F90860D4F804B007F043FC054646
:1022D00018B928460DB0BDE8F08F01F049F8DFF8D5
:1022E000F49031460CAE3022049007F09FFB56F874
:1022F000207DCE464FF0000807F13404BEE80F0001
:102300000FC4BEE80F000FC49EE80300169B84E8CC
:1023100003007B663046D9F8283041F28274A7F872
:102320007CA0FB65C7F88080C7F86C80C7F8888000
:1023300001F052F907A92846254F00F03FFABDF9F0
:1023400022E0BDF92010BDF92420BDF92630084651
:10235000521A0194CEEB030371460132CDF80C8082
:1023600001330095029707F0F5FBD9F828300446B1
:1023700028465B689847284600F0FAFF0346304637
:102380009C66049301F028F9284607F01BFE2846B6
:1023900000F0EEFF034605A81A6F0593069201F0C0
:1023A0001BF9594606A805F011FD002891D02846D2
:1023B00000F0DEFF069A034605A81A67059301F0B0
:1023C0000BF9284608F0B0FB83E700BF5D1F00084B
:1023D000DD290008FC0000202DE9F041044690B002
:1023E000006800F0D5F9B04B6668A3F12C05002811
:1023F00008BF1D461C2E00F2F780DFE816F0220011
:10240000F500F500F500F5003500F500F500F500E4
:10241000F500F5005100F500F500FA00F500F500B3
:10242000F5000E01F500F50048014A014C014E018E
:10243000F500F500F5001D006E69304610B0BDE8EE
:10244000F081206800F094FF034610A8B3F85A20EA
:1024500040F82C3D42F00C02A3F85A2001F0BCF8E1
:10246000206809F0F3F8E8E72A690026B4F910308B
:102470000192B4F914701846EA68B4F91850394654
:10248000B4F91C40ADF81C30009223462A46ADF842
:102490001E70ADF82050ADF8224001F023FDCCE7CE
:1024A00023681C2218460892079300F061FF034638
:1024B00007A805931B6D9847064605A801F08CF800
:1024C000012E40F32781A96833466269029168684A
:1024D000A16901902F682069009704F02DFF2769FA
:1024E000A3693744C6EB0308286803F06DFF424632
:1024F0003946606901F0C6FD686803F065FF6069F0
:1025000042463946013001F0BDFD6B6A022B00F3F3
:10251000F4802A6A964217DA6769012E206907F16A
:10252000020840F32A810244374430444146013ACC
:102530003B4601F085FEA069821B3B46EF694146A0
:10254000C01B013001F07CFE012E40F31381636952
:102550001E44E7692868013F03F036FF31462069D1
:102560003A4601F01BFE3A463146A06901F016FEDC
:10257000E769686803F028FF023F206931463A4660
:10258000013001F00BFEA0693A463146013801F0F6
:1025900005FEEB69022B40F38280AB6AE769022BF0
:1025A000A868CCBFFF1A023F03F00EFFEA69022AB7
:1025B00000F39A802B6A022B00F38C80286803F0CA
:1025C00003FFA2692169E06901F05CFD686803F01E
:1025D000FBFEA2692169E069013A0131013801F08D
:1025E00051FDAF6A022F61DC0026304610B0BDE815
:1025F000F08104F114012769A8680026ADF81C7069
:102600000EC9ADF81E10ADF82020ADF8223003F051
:10261000DBFE07A801F038FE0FE7298B2269A369CA
:102620000A4465695B1AE1692068ADF82030ADF8AD
:102630001C20ADF81E50ADF8221000F099FE036F7B
:102640000590FBB1022003F0FDFE059AB2F87C3044
:10265000C3F3C0030E3302EB8303986803F0B4FEA8
:10266000059B586B03F0B4FE059B186F00F080FECD
:10267000059B07A90690B3F95A2001F043FB06A871
:1026800000F0AAFF05A8002600F0A6FFD5E6AE6A76
:10269000D3E6EE69D1E62E6ACFE66E6ACDE62B6A06
:1026A000022B8BDD79E700BF2C020020D4F81C80C0
:1026B0000026A2692169A868951E8C1C03F084FE7F
:1026C000C7EB08012A462046A8F10203013101F0B8
:1026D000B7FDB2E6A0693B46EF693146821EC01BDA
:1026E000013001F0ADFD69E720693B463146024407
:1026F0000230013A01F0A4FD5CE7A86803F064FE33
:10270000636938466F6A991C42463B44013B01F0BD
:1027100097FD19E7286803F057FE2269EB69114617
:1027200060691A44013A01F0ADFCA369E9691A46EF
:102730006069591A013101F0A5FC67692069013708
:10274000394601F0C5FC3946A06901F0C1FC686852
:1027500003F03AFE20693946013001F0B9FCA06966
:102760003946013801F0B4FC2769A3690237A3F1A7
:102770000208B9E666690236EBE6024443460230D7
:102780004146013A474601F05BFDA069821ED4E64E
:1027900010B582B018B90446204602B010BD00F052
:1027A000E7FDB0F87C4002ABC4F3C00443F8040D6D
:1027B000184600F011FF204602B010BD2DE9F04F81
:1027C00089B007460D4600F0D3FD03460121384687
:1027D000DA6D05939468236898472368032180463F
:1027E000384698472368022183463846984723682D
:1027F00000218246384698478146059809F0ECFA50
:102800000646059809F0F0FA03460598448E04F050
:102810002004A4B2B4B1B0F95420B0F95840002A51
:102820004AD091B2C06E0C44A4B280B1039102921E
:10283000019307F0BFFD019B0FFA80FC029A80B262
:10284000039905E021462246C06E0028EED1844659
:102850001FFA89FE013E013B0FFA88F8CBEB060612
:1028600074440EF1FF3ECAEB030336B204447144D4
:102870006B812A8005A8A5F802C0EC8069822E81B0
:102880002E82A5F80480A5F80C80A5F80E9000F023
:10289000A3FE08AAB5F910403846B5F90C3006A9D0
:1028A00042F8044D069300F04BF8069A079BAA8164
:1028B0002B8209B0BDE8F08F406B019301F0F4FD6D
:1028C000821C019B059891B212B20C44A4B2BBE7E2
:1028D00008B5438E03F020039BB24BB10246B0F91A
:1028E000540000B108BD506B01F0DEFD023008BDA0
:1028F000184608BD70B58AB00C46064600F038FD93
:102900000AABC26D43F8280D1846956800F064FEC6
:102910000196032C05D8DFE804F00F0C09021723F9
:1029200002936B6801A898470AB070BD1523029303
:10293000F7E716230293F4E718230293F1E700BFA9
:102940002DE9F04383B088460446914600F010FD1F
:10295000034602A8DA6D40F8083D9568B3F90070A7
:10296000B3F9026000F038FE2B682046002198473A
:102970000546204607F0B2FC68B3044607E001A80C
:1029800000F02AFE204607F0D7FC044618B3204684
:1029900000F0EEFCB0F9023001909B1B9D42EED19D
:1029A000836A1B060BD5B0F90030D9F80020DB1B79
:1029B000934203F1FF33E2DCC9F80030DFE7B0F9FE
:1029C0000430D8F80020DB1B934203F10103A8BFB9
:1029D000C8F80030D3E703B0BDE8F0832DE9F04339
:1029E000456887B00446284607F0B0FC074600F06B
:1029F000BFFC034606A85E6E40F8143DD3F848803D
:102A0000D3F8809000F0E8FD23680E3B232B3FD8DD
:102A1000DFE803F035463E3E3E3E12123E123E3E99
:102A20003E3E3E3E18243E3E2B3E3E3E3E3E3E3E19
:102A30003E3E3E3E3E3E3E30204607F077F907B030
:102A4000BDE8F083E368002BF9D0B9F1000F3BD06B
:102A50004D4539D0484608F031FDF0E7214638466B
:102A600006F004FE07B0BDE8F083C4F80C8007B0A0
:102A7000BDE8F0830023E36007B0BDE8F083E368BE
:102A80005A68002A04DD1B68092B1DD00A2B1FD0B1
:102A9000002ED1D020466760B04707B0BDE8F08374
:102AA0006FF07043984504D0404606F047FA00F0B6
:102AB0001FFE002EC3D002AF94E80F0087E80F007E
:102AC00038460395B047BAE7284608F049FDB6E70F
:102AD000284608F089FDB2E70D4B10B5186806F0DE
:102AE0002DFA0C4B0C4C186806F062FA2368002291
:102AF00001219A8510465A85197606F08BFA074A05
:102B00002368126802B1DA6100229A7610BD00BF14
:102B10008400002080000020880000207C0000202D
:102B2000014B83E80300704794C60120014B83E802
:102B3000030070479CC60120014B83E803007047E7
:102B4000A4C60120704700BF704700BF2DE9F04FB9
:102B50005C4E8DB03368DA69B3F92250D469B4F8A9
:102B60000CB0834500F29780E1898142C0F09380E8
:102B70002168CBEB000B08914FF0FF310A91BBF1BC
:102B8000FF3F00F0828092F81880A27CB3F92A10EF
:102B9000B3F9249018FB02F3084607911F4694F8F6
:102BA00010A006F037FAD6F800E008994346DEF8A0
:102BB00038C05246099007FB0B10DEF81CE00B975B
:102BC000012704904946CDF814C0284694F812C055
:102BD0000297CDF80CC09EF81BC0DFF8E8B0CDF826
:102BE00004C09EF81AE0CDF800E005F053FB0A9F00
:102BF0007B1C25D0079941F0020006F00BFADBF8A8
:102C000000100B9A43460898D1F838C002FB070021
:102C1000D1F81CE00127CDF814C00490524694F876
:102C200012C0494602972846CDF80CC09EF81BC03A
:102C3000CDF804C09EF81AE0CDF800E005F02AFBBC
:102C40003368DFF88080DB695A7E1B7E9A4215D993
:102C5000079B022B12D083F0040006F0DBF9D8F8B2
:102C600000302846DB691F7ED97E9A7E5B7E07FB9B
:102C700001910AFB02524B4405F014FD9DF824001B
:102C800006F0C8F93368B3F92250627C15445D84BC
:102C90000DB0BDE8F08FA1680029F6D00F88B842CA
:102CA000F3D3B1F802E08645EFD3C01B49686768EB
:102CB00080B2089701EB800731F920B0B7F9021014
:102CC0000A915CE788000020044B1B68DB69DB6924
:102CD00009B11A7C0A60587C704700BF8800002048
:102CE00002230B80704700BFC3699A898A4202D8C9
:102CF000DA898A4211D2986818B10388994201D2C0
:102D00000020704742888A42FAD3C91A436833F8D0
:102D10002100C043C0F3C03070470120704700BF9E
:102D20002DE9F04F3A4D89B02B68DA69B3F92A9052
:102D3000D36943B11A88904202D35988814205D29F
:102D40009B68002BF6D109B0BDE8F08F841AD3F848
:102D50000480484608EBC40696F802B006F05AF91B
:102D60008246286818F834204FF0010EC769D0F861
:102D700038C0B0F92410B0F922003B7E0790CDF89E
:102D800014C07068CDF80CB00490CDF808E097F846
:102D90001BE00798CDF804E0BF7E009705F07AFAB3
:102DA0002B68DA69537E177EBB4223D9B9F1020F33
:102DB00007931FD092F81BB001F00EFB814601F083
:102DC000EFFA03F001FB124B18F834E01868079B88
:102DD000C169B0F92240CA7EB0F9241020460EFB2A
:102DE00002420BFB03130BFB071105F05BFC48468B
:102DF00003F0EAFA504606F00DF92B687178D869AD
:102E00005A8C807E00FB01225A8409B0BDE8F08F05
:102E100088000020114B1B6870B4DD69EB6943B179
:102E20001A88904202D35C88844205D29B68002BAA
:102E3000F6D1184670BC7047821A5E68AC7E06EB0D
:102E4000C2035B7813FB04F00029F3D016F832308C
:102E500014FB03F370BC0B60704700BF88000020B8
:102E600001230B80704700BFC06950B103888B42BB
:102E700002D843888B4203D280680028F6D170477D
:102E80000120704700B9704709F0A0BF08B90020C1
:102E90007047F8B5064609F099FF044638B3154D5A
:102EA0003246154F0021E8696B6B013003EBC40615
:102EB000E86113F83400013003F8340076683B68A9
:102EC00006F10800984731686A6B12F83130012B1F
:102ED00001D9E86920B9013B204602F83130F8BD3C
:102EE0000138013BE861204602F83130F8BD00208E
:102EF000F8BD00BF90C901205401002021F003015A
:102F0000014B83E803007047ACC6012000B970474D
:102F100070B50A4CC6000546636B3344596848686F
:102F200009F0A6FD6368626B0021606A01331644F4
:102F30006360706002F83510656270BD90C9012051
:102F400028B1034AD36B036003B15860D063704764
:102F500090C90120F8B50468054694B10A4EE7000F
:102F6000736B3B445968486809F082FD7368726B63
:102F70000020716A013317447360796002F83400ED
:102F8000746200232B60F8BD90C9012000292ADD5E
:102F90002DE9F04700258A46041F134FA94603E098
:102FA000AA45C4F800901CD054F8046F0135002ED7
:102FB000F6D04FEAC6087B6B43445968486809F06D
:102FC00057FD7B68796BAA457A6A03F1010388444F
:102FD0007B60C8F8042001F836907E62C4F8009047
:102FE000E2D1BDE8F087704790C90120F8B58B4E5B
:102FF000044696F82830002B2FD00334356CF26B42
:1030000024F003040434A54238BF254662B152F8C7
:10301000043C14469D4204D114E054F8043C9D4203
:1030200010D02468002CF8D1F368B46B1C4454F819
:10303000041C611A0B68002B68D14B689D426FDD40
:10304000002408E023680BB161685960616801B130
:103050000B60A24256D02046F8BD714B01219A6800
:1030600086F8281058680AB982089A605A271022F0
:1030700020254FF0400E3762802732644FF4807273
:10308000B5644FF400751968C6F850E04FF4806ECF
:10309000B7654FF4006732664FF48052B5664FF45F
:1030A0000055A1F11403C6F870E0B7674FF4804EE5
:1030B000C6F880204FF40047C6F888504FF480329D
:1030C0004FF400350344C6F890E04FF4802EC6F864
:1030D00098704FF40027C6F8A0200222C6F8A85026
:1030E0000125B1637363C6F8B0E03261F060C6F8E1
:1030F000B8705D607562756009F0BAFC0CF014FB85
:1031000035637AE723682046F363F8BD00200EF0AC
:10311000B1FD54F8041C611A0B68002B90D18CE7A8
:10312000581BD6F8B8703D4A041DBB420C4472D2FD
:10313000D2F8B070BB426CD2D2F8A870BB4266D253
:10314000D2F8A070BB4260D2D2F898709F425AD990
:10315000D2F89070BB4254D2D2F88870BB424ED2A3
:10316000D2F88070BB4248D2926F934243D2376FFD
:103170002A4ABB423DD2976EBB4238D2176EBB4241
:1031800033D2976DBB422ED2176DBB4229D2976CBA
:10319000BB4224D2126C93420CD2F2687369521B68
:1031A0002B44F260736110B944F8045C53E709F0F2
:1031B0005FFCF9E700223768D1F808E0FF1ACB6816
:1031C0003760BEF1000F01D0CEF8043013B1C3F860
:1031D00000E0E2E706EBC202C2F844E0DDE70122CC
:1031E000E9E70222E7E70322E5E70422E3E7052215
:1031F000E1E70622DFE70722DDE70822DBE7092215
:10320000D9E70A22D7E70B22D5E70C22D3E70D2214
:10321000D1E70E22CFE70F22CDE700BF90C90120F2
:10322000ACC60120F8B54A4C94F82830002B3DD0AC
:10323000D4F8BC30464A3BBBD2F8B43023BBD2F8FA
:10324000AC300BBBD2F8A430F3B9D2F89C30DBB968
:10325000D2F89430C3B9D2F88C30ABB9D2F88430FC
:1032600093B9D36F83B9536F73B9E36E63B9536E78
:1032700053B9D36D43B9536D33B9D36C23B9536C80
:1032800013B96FF00B00F8BD9B68002BF9D000223A
:1032900001E09B6843B159681046914201D90A4642
:1032A00008469B68002BF4D10C38F8BD294B01214E
:1032B0009A6884F8281058680AB982089A605A26D1
:1032C0001022202540272662802622644FF4807237
:1032D000A5644FF40075196827654FF48067A665EB
:1032E0004FF4006622664FF48052A5664FF40055F5
:1032F000A1F114032767A6674FF48047C4F8802024
:103300004FF40046C4F888504FF480324FF4003533
:103310000344C4F890704FF48027C4F898604FF4C9
:103320000026C4F8A0200222C4F8A8500125A163F9
:1033300063632261E060C4F8B070C4F8B8605D6097
:103340006562656009F094FB0CF0EEF925636FE7A8
:1033500090C90120ACC6012030B1044B5B6B03EB7C
:10336000C000436858680C38704700BF90C90120FE
:10337000084AD169536B013110B4D16103EBC00429
:1033800013F83020013203F8302060685DF8044BF8
:103390000830704790C9012009B9084670472DE9E7
:1033A000F047064608468A4609F010FD0446002804
:1033B0005AD0002E58D02E4DF700DFF8B8C06B6BF6
:1033C000E969DA1913F8300003EBC40E0231D2F8C0
:1033D00004800130D8F8042003F834000C3ADEF8F9
:1033E0000490E96108F1080113F836E0524509F14B
:1033F00008000EF1010EA8BF524603F836E0DCF8D3
:1034000000309847D9F800106B6B13F83120012A6F
:1034100003D9E86908B10138E861013A03F83120BD
:10342000D8F8001013F83120012A06D9E869DFF82E
:1034300040E010B10138CEF81C00D819013A03F869
:1034400031204168486809F013FB6B68696B4FF0E5
:10345000000E6A6A01330F4420466B607A6001F8FF
:1034600036E06E62BDE8F0872046BDE8F08700BF19
:1034700090C9012050010020F8B5544C94F8283030
:10348000002B51D0D4F8BC30504A83BBD2F8B430B2
:103490006BBBD2F8AC3053BBD2F8A4303BBBD2F8F4
:1034A0009C3023BBD2F894300BBBD2F88C30F3B9EC
:1034B000D2F88430DBB9D36FCBB9536FBBB9E36EAD
:1034C000ABB9536E9BB9D36D8BB9536D7BB9D36CCC
:1034D0006BB9536C5BB96FF00B033D49DA1781FB95
:1034E0000313C2EB6313206A00FB03F0F8BD9B6873
:1034F000002BF8D0002201E09B6843B159681046C8
:10350000914201D90A4608469B68002BF4D10C3839
:10351000B0F5800F0346E0D8226A2D4B02FB00F085
:10352000A3FB00235809F8BD2A4B01219A6884F8AF
:10353000281058680AB982089A605A261022202555
:1035400040272662802622644FF48072A5644FF4DF
:103550000075196827654FF48067A6654FF400660B
:1035600022664FF48052A5664FF40055A1F1140372
:103570002767A6674FF48047C4F880204FF40046C1
:10358000C4F888504FF480324FF400350344C4F837
:1035900090704FF48027C4F898604FF40026C4F868
:1035A000A0200222C4F8A8500125A1636363226110
:1035B000E060C4F8B070C4F8B8605D6065626560D2
:1035C00009F056FA0CF0B0F825635BE790C90120CA
:1035D0001F85EB51ACC6012003680B4A30B404468A
:1035E00053F8085C506B10F83530012B03D9D169C2
:1035F00009B10139D1610022013B00F83530104694
:10360000226030BC704700BF90C90120034B5B6B48
:1036100003EBC00040680830704700BF90C901202C
:103620002DE9F041064610461446884600F0DCFEBF
:10363000C8B9A700184D3B1905EB8303DA68B242FD
:1036400004D11B69434501D1BDE8F0813B1905EB6D
:1036500083035869B0B93C4405EB8404E660C4F8C0
:103660001080BDE8F0810C4B04EB840403EB840470
:1036700063689A685968C2EB0802711ABDE8F041A4
:1036800002F0C4BE5B689A685968C2EB0802711AFE
:1036900002F052FBDFE700BF0CC90120C3B2CAB27F
:1036A0009A1A92B210B414B2002C1EDBC1F3072296
:1036B000C0F307239B1A9BB21AB2002A12DB090C33
:1036C00002FB02F2C1EB104104FB042089B20CB2F0
:1036D000002C01DA49420CB2A1B25DF8044B01FBA7
:1036E000010070475B421AB2E9E7524214B2DDE7CB
:1036F00000212DE9F041084682B000F0EBFE0420E5
:1037000005F088FC144B154F43F6FF761B69804685
:103710003D463446DA6C68461B6D174416441D441A
:103720001C44ADF80070ADF80460ADF80250ADF87F
:10373000064008F061FB48B1234632462946384628
:1037400004F0B0FF08F0EAF90028F5D1404605F092
:1037500061FC02B0BDE8F0817800002001C0FFFFED
:103760002DE9F041074682B0042016461C460D465E
:1037700005F050FC124B804668461B69DA6C1B6DE5
:10378000174416441D441C44ADF80070ADF80460A5
:10379000ADF80250ADF8064008F02EFB48B12346C4
:1037A00032462946384604F07DFF08F0B7F9002874
:1037B000F5D1404605F02EFC02B0BDE8F08100BF17
:1037C00078000020034604202DE9F04182B0B3F9CF
:1037D0000070B3F90260B3F90450B3F9064005F084
:1037E00019FC124B804668461B69DA6C1B6D174446
:1037F00015441E441C44ADF80070ADF80450ADF8FB
:103800000260ADF8064008F0F7FA48B123462A46B0
:103810003146384604F046FF08F080F90028F5D11B
:10382000404605F0F7FB02B0BDE8F08178000020CB
:103830002DE9F047044682B00D461646002B37D0DE
:103840009A46009651460B9B204626680A9AB04736
:10385000074618B9384602B0BDE8F08706F016FDF5
:10386000618A8046384605F0E3FF013D384607F09F
:103870004BFF404607F048FF002D1DDD4FF00009CB
:1038800003E007F041FF013D16D054F81C6F002300
:10389000CDF80090414620461A46B047064600281B
:1038A000EFD1384606F072FA304602B0BDE8F08734
:1038B00006F0FAFC8246C4E740461D2107F076FD7B
:1038C000BAF1FF3FC6D006F013FD40B9BA450CD09F
:1038D000384607F045FE3846BDE70028F8D0FFF728
:1038E00095FE80698742F8D1B4E75046B3E700BF40
:1038F000012B17DC2DE9F04107461C2090460D46B0
:103900001E46FFF773FB0446D0B16DB1056100237D
:103910002046A661A4F81480E76023606360A3607A
:10392000BDE8F08100207047074B53F826200AB904
:10393000EDE71A461368002BFBD113692361E6E714
:103940000020BDE8F08100BF6CCA0120012B3BDCE8
:103950002DE9F84381461C2090460F461E46FFF78E
:1039600045FB054600287FD0414A002F31D0002377
:10397000DFF804E152F8264003609EF8001007616A
:103980008E428661A0F81480C0F80C90436083607A
:1039900002DB731C8EF80030002C5DD021464C6891
:1039A000002CFBD1D9F80000CB681B6883422CDDCA
:1039B00009680029F8D148B92E4B163628461A68EE
:1039C00042F82650BDE8F883002070472846BDE83D
:1039D000F88352F82610002930D0084600E0184637
:1039E0000368002BFBD10069DFF88CE02B602861B5
:1039F0009EF80000AE618642A5F81480C5F80C90D0
:103A00006B60AB60CBDB0C46C3E70AD04B6843B3BB
:103A10001D606B608D4214BF0B4600234D602B6010
:103A2000C9E7B8F1010FF1D104E0DC681946236859
:103A30008342EBDB0B68002BF7D1E7E7DFF838E0D8
:103A400001609EF8003086619E42A0F81480C0F8A4
:103A50000C9041608160D6DA42F82650D9F8000017
:103A6000A9E742F82650D5E70020BDE8F88300BF5B
:103A70006CCA01208800002065CA0120FFF760BAE7
:103A800000283DD070B48469012C03DD0123184661
:103A900070BC70471F4B1A78944221DA1E4D55F8BE
:103AA00024300BB932E013465A68002AFBD1C268B1
:103AB000116802E01B68002BE8D0DA6812689142B6
:103AC000F8DB10D05A68F2B110604260984214BF1F
:103AD0001A460022586000230260184670BC7047E6
:103AE000621C1A70DAE7828A012AEBD104E0D668F8
:103AF000134632689142E5DC1A68002AF7D1E1E703
:103B000001231846704745F82400DFE745F82400F4
:103B1000BDE700BF65CA01206CCA01200F4A816958
:103B200052F8213098420AD042680AB10368136003
:103B3000036803B15A600023036043607047036861
:103B400042F821302BB100225A604268002AEED19F
:103B5000F0E74268002AEAD1EDE700BF6CCA012015
:103B600001280EDC084B53F8200058B1C3681B68CD
:103B70001BB908E0C3681B6823B100680028F9D1AD
:103B800070470020704770476CCA012000B9704729
:103B90002DE9F04182B01E4615460C460746FFF758
:103BA000E7FB02AB026843F8040D1846D2F8008028
:103BB000FFF712FD33462A4621463846C04702B079
:103BC000BDE8F0812DE9F04F484D83B0044600F088
:103BD0001BFC2B680646B3F9228000F04DFC2B68D5
:103BE0001FFA80F99A8CC9EB020212B29A842178EA
:103BF00000294FD0B6B22F4647F6FF71204603F09A
:103C0000FFFE01468346204603F0BAFE29688B8DED
:103C100003F00303012B58D0022B5AD01FFA80FA6D
:103C20004FF0000E4B8C0AF1FF3CB1F92420CEEB93
:103C30000303ADF80220013A9BB2B0186A460FFAAE
:103C400083FE6344ADF806002046A1F822E0594601
:103C5000ADF800E0ADF8043003F008F92B68204619
:103C6000BDF8022059469A8402F04EFD235C0444BC
:103C70000A2B19D00D2B17D0BDF800003B688244E9
:103C8000A3F822A022781AB162780134002AB3D1B5
:103C9000B3F92420998D914421F00302A3F82490D4
:103CA0009A8503B0BDE8F08F2B689A8D02F003026D
:103CB000013A012A16D8A3F8228022780A2AE2D1F2
:103CC0009A8C32449A842278DDE71FFA80FEF2460D
:103CD000A8E7002803461FFA80FAB8BF431CC3F3C5
:103CE0004F0E9FE71A8C5A84E7E700BF8800002038
:103CF000034B1B6859849A8408B1FFF763BF704770
:103D00008800002000B3F0B5054683B016460C4687
:103D1000C1B1084607F0ECFC074638B1024621461F
:103D2000684603F0E5FE684607F0E2FC32462146AD
:103D3000284647F6FF7303F0FBF8384607F0D8FC37
:103D400003B0F0BD0F46F1E7704700BF08B100F0C7
:103D500001B870472DE9F04F89468BB01F46B1F985
:103D60000030B1F90410154600930446CE1AB9F993
:103D70000630059201910136B9F902B0039300F0C3
:103D800043FB15F00C05029019D0A2463A46314685
:103D90004FF00008504604F085F848B182443A4696
:103DA000314608F10108504604F07CF80028F5D1AE
:103DB000082D79D00C2D00F08280042D74D0BDF830
:103DC00008A0484607F094FC02460490A8B1009968
:103DD000002506A82B4661F30F0501996BF31F45DB
:103DE00061F30F030399069561F31F434946079357
:103DF00003F07EFE06A807F07BFC059B1FFA8BF5FF
:103E000003F003080AF1FF3302934346B0461E460F
:103E100015E0022E34D01EB9B9F80030ADF82030CC
:103E20002046594608AA554403F020F820463A4651
:103E3000414604F037F80444ADB2237873B33A46F0
:103E40004146204604F090F8BDF80020029B8346CE
:103E5000ADF820202046EB18BDF804205946ADF8F7
:103E60002250ADF82420ADF8263003F089FD012E54
:103E7000CFD1B9F804300133181AADF82000CFE7DC
:103E8000B9F90010B9F904305B1A181A013048BFAB
:103E9000013001EB6000ADF82000C1E7049807F0A5
:103EA00027FC0BB0BDE8F08FBDF808A0039B18FB02
:103EB0000AF85D1CC8EB05050FFA85FB81E7039B3B
:103EC000029ACBEB0303BDF808A0013308FB1238BC
:103ED000B8F1000FB8BF08F101080BEB68050FFA45
:103EE00085FB6EE72DE9F04F654C91B02468E56CD9
:103EF000246D2818AA186118E318064607900EA822
:103F000008920D46029101931C46ADF83860ADF859
:103F10003C20ADF83A10ADF83E3007F06DFF0028B8
:103F200000F09580C5EB040B1A999DF86820C1F349
:103F30000724BBF1000F1B995B46B8BF0BF10103CF
:103F40000BFB02FEC1F307271A995B109DF86CC0AA
:103F5000C1F307401B9903EB0E05C1F307461A99FD
:103F60000A95090E0BFB04353C1B0B9503940BFBC8
:103F70000034301A0BFB01335E460C940D931B9BEF
:103F80000490C1EB13630593C2EB0C03069300F09E
:103F900023FA1A9B1B9A0990934267D0002E52D0A5
:103FA000029D019A954259DC0AAF86464FF0010BFB
:103FB00097E8800706E00BF1010B0135019BA6464F
:103FC000AB422FDB70469AFBF6F499FBF6F197FBB8
:103FD000F6F398FBF6FC2206059C43EA0C23A24468
:103FE00042EA0144049A1C43029B9144069AAB4264
:103FF0001744039A9044E0DA7445DCD004F0D8FF0B
:10400000BBF1010FCBEB050105F1FF33089A0798CF
:1040100020D004F047FB0135019B4FF0010BA64671
:10402000AB42CFDA204604F0C3FFBBF1010F17D03B
:10403000019B089ACBEB03010798013104F032FB96
:10404000099804F0B5FF07F069FD00289FD111B071
:10405000BDE8F08F691E04F0A3FAAEE704F0A8FFF4
:10406000089A0199079804F09BFAE9E7184604F0CA
:104070009FFF019B089A0299079804F013FBDFE762
:1040800088000020F0B5114F83B03B681D6DDC6CDB
:1040900005446846661814442BB2ADF80060ADF8CC
:1040A0000440ADF80230ADF8063007F0A5FE50B17F
:1040B0003B682246294630465B6E1B68984707F0EE
:1040C0002DFD0028F4D103B0F0BD00BF8800002012
:1040D00070B5104E82B03368DD6C1C6D05446846C7
:1040E0000C442AB223B2ADF80420ADF80020ADF89C
:1040F0000630ADF8023007F07FFE48B13368214644
:1041000028465B6E5B68984707F008FD0028F5D1EC
:1041100002B070BD880000202DE9F0431E4C83B032
:1041200025682E7E2F6DEC6C013E07EB010907EB35
:10413000030825181444B2B26846AE1A1119C2EB2E
:1041400009034244ADF80060ADF80410ADF8023048
:10415000ADF8062007F050FED8B109F1010708F1CB
:10416000FF3622464946284604F01AFA22464146BE
:10417000284604F015FA32463946284604F06AFA11
:1041800032463946204604F065FA07F0C7FC00289D
:10419000E7D103B0BDE8F08388000020104B1B6816
:1041A00070B5DD6C82B01C6D054468466618144419
:1041B0002BB2ADF80260ADF80640ADF80030ADF8B6
:1041C000043007F019FE40B122463146284604F07B
:1041D00041FA07F0A3FC0028F6D102B070BD00BF81
:1041E000880000202DE9F0410025124F124EDFF823
:1041F0004C803C681CB1A047041C18BF012405F08A
:10420000EDFE3368002818BF01244BB1984738B140
:10421000D8F8003013B1012498473CB10125E8E7F4
:10422000D8F80030002BF7D1002CF7D12846BDE894
:10423000F08100BF90CA012094CA01208CCA0120DD
:10424000F0B5104C83B02468E56C246D2F1815442C
:1042500066181C446846ADF80070ADF80450ADF81F
:104260000260ADF8064007F0C7FD48B123462A4674
:104270003146384604F016FA07F050FC0028F5D114
:1042800003B0F0BD88000020154B01461B68F0B557
:10429000DA6C83B01B6DB1F900706846B1F9045057
:1042A000B1F902601744B1F9064015441E44ADF857
:1042B00000701C44ADF80450ADF80260ADF8064043
:1042C00007F09AFD48B123462A463146384604F0A5
:1042D000E9F907F023FC0028F5D103B0F0BD00BFD9
:1042E00088000020002850D0C388013B10B5848886
:1042F00080681F2B47D8DFE803F016234631464677
:10430000463C46464646464646404646464646465D
:1043100046464646464646464610A31002FB031153
:1043200050F8210010BD02FB04F200EBD104C84399
:10433000A35C00F0070023FA00F000F0010010BDBC
:1043400002FB04F200EB91046FEA4100A35C00F071
:10435000060023FA00F000F0030010BD02FB04F297
:1043600000EB5104CB07A05C4CBF00F00F0000092C
:1043700010BD02FB0404605C10BD631002FB03115E
:1043800030F8110010BD002010BD7047034B08210C
:1043900053F82000C3689B6A184700BF6CCA01200D
:1043A00008B504F0BFF9BDE8084004F08BBB00BFBE
:1043B000024B00211B68DB695B68184788000020FE
:1043C000024B1B68DB695B68184700BF8800002050
:1043D00008B105F04DBF704708B504F0ABF9BDE872
:1043E000084004F06FBB00BF012801D900207047CE
:1043F000014B53F820007047E0C70120014B1B68B8
:10440000187C704788000020024B1B68DB69587ECF
:10441000704700BF8800002038B50D46144604F0F0
:1044200027FA10B100232B60236038BD044A054BE6
:10443000B2F90020B3F9003002600B60704700BF92
:1044400056CA012058CA012010B5044603F000FBEB
:1044500001462046BDE8104003F092BA0FF05EB965
:10446000044B3422352061219A7018701846197156
:10447000DA707047700000200A4B1A68938D03F0C1
:104480000C03082B05D00C2B03D0042B05D00020E7
:104490007047D369187E40087047D369187E013889
:1044A000704700BF88000020027EC07E02FB00F043
:1044B000704700BF024B53F820301B6918687047E3
:1044C0006CCA0120024B53F820301B6958687047B2
:1044D0006CCA0120024B1B685884002099847047E5
:1044E0008800002090B583B000AF534A524B1B6840
:1044F00023F001031360514B1B68C3F30A0340F21E
:10450000494293420CBF01230023DAB24B4B1B6894
:10451000C3F30A0340F251418B420CBF0123002335
:10452000DBB21343DBB21946444B1B68C3F30A03E7
:1045300040F2524293420CBF01230023DBB20B43F3
:10454000002B10D03E4B01221A6000BF3C4B1B6871
:10455000002BFBD13B4B3C4A1A603A4B1B683B4A51
:10456000934218D0FEE73A4B1B68C3F30A03B3F536
:104570008A6F10D1374B01221A6000BF354B1B6880
:10458000002BFBD1344B304A1A60334B1B682F4A47
:10459000934200D0FEE702F029FC304B2E221A7025
:1045A0000FF0C2F82E480CF037FC0EF003FC7860D8
:1045B00004F0D8F90346002B0CBF01230023DCB222
:1045C00004F016FA0346002B0CBF01230023DBB2D4
:1045D0002343DBB2002B09D004F0DAF9044604F0DF
:1045E0001DFA03461946204604F00EFD0021002066
:1045F00001F00EFF06F086F91A4B1B68002B12D053
:104600000DE0184B1B681B68002B03D0154B1B6873
:104610001B689847134B1B685B68124A1360114B69
:104620001B68002BEDD1104B01221A707B681846D5
:104630000C37BD4690BD00BF002000E0002004E024
:104640000830024000300240C2A507F4CDB5E8B5FD
:104650000010005C084C0258004C025854CA01205B
:10466000C0C6012038C7012064CA012010B582B03D
:1046700028B90F4B1B68186E08B902B010BDFEF7C1
:1046800077FE02AB446943F8080D1846FEF7A4FF15
:10469000002CF2D0204602ACFEF76AFE826844F895
:1046A000040D936898472046FEF796FF02B010BDB0
:1046B0008800002000B97047014A114600F002B896
:1046C00001F0FFFF2DE9F047DFF8F08084B00646E7
:1046D00000200C46154601F079FED8F800308146DE
:1046E00030461F6EFEF744FE03680090986901F0A3
:1046F0004FFE314B82469C42009B4DD01A895B890C
:10470000013AADF80840013BADF80A5022442B4471
:10471000ADF80C20ADF80E3005F090F96846FEF7C4
:104720005BFF02A807F068FB18BB504601F030FEA3
:10473000002F39D0D8F800301B6E93BB05F0ECFA8F
:104740003846FEF715FE04ACD8F8003044F80C0DDE
:104750001F660068FFF794F92046FEF73DFF04F05E
:1047600005FD04F017FC484601F030FE04B0BDE83A
:10477000F0872A462146304600F07CFC07F0CEF94F
:104780000028D2D02A462146304600F073FC07F0BC
:10479000C5F90028EDD1C8E7B3F90440B3F90650D4
:1047A000ACE701F0EBFDC9E701F0E8FD484601F098
:1047B0000DFE04B0BDE8F08701F0FFFF8800002087
:1047C0002DE9F0431C4D0F4606461C4C296885B068
:1047D00090469946487C54F8204001E02468DCB1BA
:1047E000E3681A68042AF9D1DB6A01212046984758
:1047F0000546B8B12469A3689847013016D00C99D2
:104800004B4642460294009139460195304600F0ED
:10481000ADFA05B0BDE8F083FFF7A2F9044608B190
:10482000C368E1E7002005B0BDE8F0830C9B044CB1
:1048300043F001030C93E2E7880000206CCA0120DA
:10484000E8DA0108C0B1114B1B681B6E984210B525
:10485000044682B016D02046FEF78AFD43690190D7
:104860005BB90068FFF70AF901A8FEF7B5FE20461C
:10487000FEF74CFB02B010BD7047184602F04EF830
:104880000198EEE701F07AFDE5E700BF880000201F
:104890002DE9F04FDFF864B1894604465548DBF84E
:1048A00000101E4687B092464F7CC3573846012BF6
:1048B00040F38E8004F05CF80546384604F09EF81C
:1048C0000746002C00F0818005A904A8FFF7AEFD83
:1048D000049A059B1544B4F900201F44B4F9023032
:1048E00022EAE272013D23EAE373013F114602929C
:1048F0001846B4F9042003939542D4BFC1EB0501D7
:10490000C1EB0201B4F9063002460D469F42D4BF06
:10491000C2EB0702C2EB030201351746013706B9A5
:104920007E42002D4DDD002F4BDD109B2A46039962
:10493000009333460298FFF743FF804600284FD08C
:1049400000F08AF88742064604D0DBF80030986C05
:1049500000284BD140463D46002400F07DF90EE092
:10496000AD1BACB950463444C847234BFF201B68ED
:1049700003B198474046FFF79DFEA74212DDAE42C5
:10498000EEDD2946404600F04DF9AD1B002CE9D084
:10499000039B40460299E21800F088F94046FFF771
:1049A00065FEDFE74046FFF74DFF002000F054F9B9
:1049B000B74206D0DBF80030986C10B1332107F015
:1049C00069FF002007B0BDE8F08F03940294A6E7CA
:1049D00003F078FF0546384603F09EFF074670E770
:1049E0005046C847012007B0BDE8F08F322107F0DC
:1049F00051FFAFE768CA0120D4C801208800002019
:104A000030B583B018B90446204603B030BDFEF778
:104A1000AFFC036802AD1B6945F8040D9B6898471D
:104A200004F0C4FC04462846FEF7D6FD204603B039
:104A300030BD00BF70B110B582B0FEF799FC00F137
:104A4000180402AB43F8040D1846FEF7C5FD2046D6
:104A500002B010BD704700BF10B582B060B1FEF764
:104A600087FC02ABB0F90A4043F8040D1846FEF784
:104A7000B3FD204602B010BD044B1B68186E002821
:104A8000EDD10446204602B010BD00BF88000020D2
:104A90002DE9F04F804687B0002758E0002E7ED1E8
:104AA00005F002FC804500F09A80584B01264946EB
:104AB000224602935846564B009601932B4600F02F
:104AC00055F981464046FEF753FC03460590C0F871
:104AD0002490B9F1000F79D0826A05A8DFF840B1BF
:104AE00042F480329A62FEF777FD484600F0B4F84F
:104AF00082463046474E01F075FF4846FFF79AFF61
:104B0000454B05FB04F2454C197892003568A847DF
:104B100040462568CBF8008005F022FC2060404626
:104B200007F080FD002225601046CBF8002001F040
:104B300059FF504600F090F84046FEF767FD406A86
:104B4000B0FA80F35B090137042F22DC0BB3404637
:104B5000FEF70EFC034605A8B3F900B0B3F90290C6
:104B6000B3F90440B3F90650CBEB04040593C9EB49
:104B700005055E6A0134FEF72FFD0135002DC8BF23
:104B8000002CD4BF0123002388DC01370020042F30
:104B9000DCDD08B100F0BCF807B0BDE8F08F3046AE
:104BA000FEF7E6FB034606A8B3F9065040F8083DB9
:104BB000B3F90440FEF710FDA94501D1A345BBD0D0
:104BC0004A465946304600F071F8B5E705A8FEF7A9
:104BD00003FD404607F026FD33464846B3E703F0A1
:104BE000ABFE064603F0EEFEB44202DC85427FF7E0
:104BF0005CAFB442A8BF34468542A8BF05462146F3
:104C000040462A4606F048FD4FE700BFE8DA0108B3
:104C10002408020854010020D8C801208CC90120B2
:104C200018D1012010B50C4682B060B1FEF7A0FB90
:104C3000B0F90A300190A342C8BF448101A8FEF731
:104C4000CBFC02B010BD034B1B68186E0028EDD1E1
:104C500002B010BD88000020F0B5134F83B03B6850
:104C60001E6ED8B10446B6B905F056F82046FEF7D8
:104C70007FFB02AD3B6845F8040D1C660068FEF73B
:104C8000FFFE2846FEF7A8FC04F070FA04F082F953
:104C9000304603B0F0BD01F071FBE5E701F06EFBBB
:104CA000304603B0F0BD00BF8800002030B50C4690
:104CB00083B028B9154B1B68186E08B903B030BD16
:104CC00015B224B2FEF754FBC5808480009004F036
:104CD00061F9009B586920B96846FEF77DFC03B076
:104CE00030BDFEF745FB009B0190B3F90820B3F9F6
:104CF0000A308280C38013B10AB10480458001A8C4
:104D0000FEF76AFC6846FEF767FCE8E788000020CB
:104D100000B9704770B584B00446FEF729FB014620
:104D200001A8B1F90460B1F906500A894B893244EF
:104D300001912B44ADF80860013AADF80A50013BEF
:104D4000ADF80C20ADF80E30FEF746FC02A807F0D7
:104D500053F840B12A463146204600F06DF906F07E
:104D6000DDFE0028F6D104B070BD00BF2DE9F04F84
:104D7000DFF82C8187B082468B46D8F800001746B2
:104D80001E461299437C00221198FEF7B1FD0028BF
:104D90004DD0036905469B68984704F007FB00FB6C
:104DA00007F48146FEF768FB109B073413F00103FC
:104DB0004FEAD4043FD0002E2CDD002B42D004FB60
:104DC00006F01830FEF75EF8024668B3002302933F
:104DD00010460392FEF7CCFA029A034606A8A3F8FF
:104DE00004A0A3F806B01F815E81DC60C3F81090B8
:104DF0005A6140F8043D1D60FEF7EEFB129AD8F8A8
:104E000000302A61039A1046AA605B7CAB6107B050
:104E1000BDE8F08F002C34D1204676428642A8BFF0
:104E2000064693B3002ECADC2846FEF727FE002074
:104E300007B0BDE8F08F0028B8BF0330801000EB4A
:104E40004000B8E700933A4633465946504601F0D1
:104E5000DBFC029004FB06F01830FEF717F8024660
:104E60000028B5D128460392FEF708FE029B002BCE
:104E7000DDD01846FEF74AF8039A104607B0BDE8A1
:104E8000F08F1838B0FBF4F0C7E700933A4633468A
:104E90005946504601F0B8FC002E0290DADCC3E718
:104EA000880000202DE9F04FDFF880918BB05D4B3A
:104EB000D9F800C0DFF878819CF811E053F82E4053
:104EC000D8F80030D4F810E0002B00F0A680164689
:104ED000DCF8602007460D46002A75D0E2681268AB
:104EE000072A78D0504AC2EB0E02B2FA82F2520977
:104EF000002A70D03846FEF73BFA03460AA8B3F9F9
:104F000008B040F8083DB3F90AA00BEB0504DB68D4
:104F1000013C0593FEF760FBD9F80010B1F90C30A5
:104F2000B1F90800E41A002CCCBFC4EB0B045C46BA
:104F300085425EDB0023002C43DD0AEB0600B1F95D
:104F40000EE00138CEEB00000028C8BFC0EB0A0A13
:104F5000B1F90A00B04247DC0021BAF1000F079313
:104F600006912EDD3846FFF765FD079BD9F8002036
:104F7000069901FB0B31136E00EB8107002B3CD02F
:104F80001846FEF7F5F902460AA8B2F90410B2F97C
:104F900006306D1A40F8042DF31AA900D56801F106
:104FA000180605FB03661644FEF716FB4EB1059B7B
:104FB000224600953946019330465346D8F80040C2
:104FC000A0470BB0BDE8F08FE2681268B2FA82F237
:104FD0005209002A8ED173463246294638460DF0D2
:104FE00097FC0BB0BDE8F08F811B0646C1EB0A0AA7
:104FF000B3E7431B0546E41A9DE7507C4FEA8B025A
:10500000DFF830E03B4602922946CDF804A0324654
:105010000094DEF80040A047D3E773460DF078FC1B
:10502000CFE700BF6CCA0120E8DA01088800002041
:1050300078CA012074CA01202DE9F04182B00F46E0
:1050400090460646FEF794F9034602AC16211D6809
:10505000002044F8043DEB685B6A9847054620460B
:10506000FEF7BAFA1DB1424639463046A84702B0AB
:10507000BDE8F08100B970472DE9F04FA3B08B4631
:1050800092460446FEF774F922AB456943F81C0DBD
:105090001846FEF7A1FA2046FFF7B2FC0828814621
:1050A00040DD002D3ED12046FEF762F922AA0346DC
:1050B000B0F9081042F8100D10460D92B3F90A200D
:1050C0000A9109921968DA680E690B930E92FEF73D
:1050D00083FA924892490068D6F80480407C51F8DF
:1050E00020100D692B680C93FFF750F908280B9BD3
:1050F00014D910288BBF20221022042702270B92DC
:10510000AE4200F0F882B9F1200F00F0B381B9F19E
:10511000100F00F0458123B0BDE8F08F0822012771
:105120000B92EDE70021012320467C4E20910DF1EA
:1051300088080B9121930A93FEF71AF90746306805
:105140003A68FB68B7F908101269139314913B6928
:10515000B7F90A10407C0993169148F8147D5568F8
:10516000D7F81490FFF712F932680E90507CFFF7D1
:10517000A9F907464046FEF72FFA099A0A9B082A22
:105180000B9940F29D80102A13460A918CBF04238C
:1051900002230C93BD4200F0C1813368587CFFF7B5
:1051A00089F9149B06469800FDF76CFE10900028C4
:1051B000B1D02046FFF73EFC0446B9F1000F00F0E5
:1051C00088804846FEF7D4F8169B1E90002B40F3CB
:1051D000A1810023DDF83880CDF834A00B93139B18
:1051E000CDF848B0E31815931FAB19460F938368A9
:1051F00000225B691F920B9A9847159B139A0446ED
:105200009B1A0E93149B834200F0F680099B012B9E
:1052100000F08880002842D01CAB11931098FEF754
:10522000A7F8099B07461C90082B1F9A65D90C9B71
:10523000A3460E99824602FB031939F8020BA847D0
:10524000B047BBF1010B4AF8040BF6D1B8F11F0FC0
:1052500004D838464246214601F02EFC0A99012323
:105260001F982246059112991C9F08440021019322
:1052700000930391CDF808800D99049703F00AF884
:105280001198FEF7A9F91F9B1E981C440B9A83687E
:105290000F991F945B69984704460028BED1159A60
:1052A00013990B9B0A44013315920D9A0B9301320B
:1052B0000D92169A9A4200F02D811E980F9996E74A
:1052C000012A03D120AB0C920A9363E70C930A9155
:1052D00060E701250A9B139A0999059304905846A3
:1052E000039202915146169B149A0195009502F083
:1052F000D1FF1098FDF70AFE0DE70C9BA2460E9910
:10530000814602FB031B1BF8010BA847B047BAF10B
:10531000010A49F8040BF6D198E700BF8800002085
:105320006CCA01200028BAD0CDF8608019960B9F76
:105330000A9EDDF83880DDF83490DDF848A0DDF80D
:105340003CB017951192DDF87CE02246119D0123B7
:105350000EF0070049460395012506900AEB0E0062
:10536000BEF1000F05960295B8BF0EF1070E01952C
:10537000009508EBEE0ECDF810E003F009FF1F9B3F
:105380001E983A461C44594683681F945B699847A7
:1053900004460028D7D1179DDDF86080199E7EE76E
:1053A0000A9B03FB07F0FDF76DFD109000283FF40A
:1053B000B2AEFDF7DDFF20902046FDF7D9FF00F1EA
:1053C00018031E900E932B69002B00F0A6817369C1
:1053D000002B00F0A281B0F908008000FDF752FD1B
:1053E0001190002840F0BA811F900D98FEF7F4F854
:1053F00020A8FEF7F1F87CE71098FDF7B9FF099BAC
:1054000081461C90082B149F0446DDF838A028D94B
:105410003AF8020BA847B047013F44F8040BF7D114
:10542000B8F11F0F04D848464246149901F044FBD6
:1054300022AB12980D991A460A9B059300230393F9
:10544000012352F818EDCDF8088017460193149AFD
:105450000093CDF810E002F01DFF3846FEF7BCF8CF
:105460001DE71AF8010BA847B047013F44F8040BA9
:10547000F7D1D5E70A9B07FB03F0FDF703FD0E907C
:1054800000283FF448AEFDF773FF20902046FDF75B
:105490006FFF1E902C6900F11808002C00F0EB80C3
:1054A0000A9A5C4601260A954FEA82099346CDF88E
:1054B0003090DDF8249017E0042F21D0012F15D073
:1054C0000B9B0020209D51460293012305905A46D4
:1054D0000390204601969A440096049502F0DAFE65
:1054E000B9F1010900F0E880022FE5D10C9D40469A
:1054F0003B465A46A8440A9D20992D69A847DFE7F4
:105500000C9B40460A9D5A46984420993B462D697B
:10551000A847D5E71EA8FEF75FF8EAE62046FFF7A2
:1055200089FA8046B9F1000F00F0D4804846FDF7B3
:105530001FFF169B1E90002B40F3C88000261FAB58
:10554000CDF834A00125B146DA461F4683683246BD
:10555000CDF87C9039465B699847149B044683429A
:1055600031D0099B012B57D020B30D9B0B9603EB39
:10557000060B1F9801230C990A9A01FB008E099EC5
:10558000139950440592224603915946CDF810E0F4
:1055900002960195009502F07DFE1F9B1E983946EC
:1055A0001C440B9A83681F945B6998470446002843
:1055B000DFD10B9E139B01369844169BB34240F3F8
:1055C00085801E98C2E7CDF82C80B346984600E04F
:1055D000A3461E980BF101043946836822465B6995
:1055E00098478045F4D00A9AC6EB0B03DDF82C806F
:1055F0005046059201330D9ACDF810809119139EF3
:10560000099A039602920195149A06FB0388009565
:10561000264602F03FFED0E70028CBD00D9B0B962C
:1056200003EB060BDDF87CE022460A9E01230EF018
:1056300007005946059606900AEB0E00BEF1000FD2
:10564000139E0295B8BF0EF1070E0396019508EB65
:10565000EE0E0095CDF810E003F09AFD1F9B1E980A
:1056600039461C440B9A83681F945B69984704462B
:105670000028D7D19DE7A1460125099E0123022FCD
:1056800051460A9A58460AEB030E00F0A981042FEE
:1056900000F07D819F4200F052810B9CF246CDF8D4
:1056A00014900294209CCDF80C90019500950494E0
:1056B00002F0F0FD013EE1D10D98FDF78DFF20A82D
:1056C000FDF78AFF0E98FDF721FC24E51EA8FDF7E3
:1056D00083FF20E501240A9B139A099905930490FE
:1056E0005846039202915146169B149A01940094D5
:1056F00002F0D0FD0FE50E9A012418330025039225
:10570000514604935846099BCDF808900A9A05958E
:105710000194009402F0BEFDFDE40125DDF828901F
:10572000099E0123022F51464A4658460AEB030EB2
:1057300000F0D480042F00F0A0809F426DD00024A0
:1057400001950095F246059403940B9C0294209CCD
:10575000049402F09FFD013EE3D146E6FDF708FE0A
:105760001F9000283FF441AE0A9A0124CDF828B0DA
:105770004FEA420990460C95CDF83C90B146DDF8D1
:1057800038B017E0042F2ED0012F28D00B9B00201B
:10579000209D5146029301230590424603909A446E
:1057A000019400940A98049502F074FD099B013B52
:1057B00009932BD0022FE5D1209B1E463B46424643
:1057C0001F995846D9F81450A8470F9D31463B46BB
:1057D000AB440C9D42461F982D69A847D6E7209BF5
:1057E0001E460223EBE7209B42460F9E58461D466D
:1057F0001F990223B344D9F81460B04729460C9D81
:105800003B4642461F982D69A847BFE71FA8FDF7F2
:10581000E3FE1198FDF77AFBE7E50A9B44460996FB
:105820005D000C9E0C95209DDDF83880DDF82890F9
:1058300038F8020BA047B047B9F1010905F8010B90
:10584000F6D10E9D01230B985146AE460C9D029059
:105850005846AE44209DCDF814909A440A9ACDF84B
:105860000C90019700970495CDF838E002F012FDF6
:10587000099B013B0993D6D1B7E50A9B01250996FF
:1058800044465E000C9F0C96209EDDF83880DDF8C3
:10589000289038F8020BA047B847B9F1010946F83B
:1058A000040BF6D10E9E01230B985146B6460C9E72
:1058B00002905846B644209ECDF814909A440A9A15
:1058C000CDF80C90019500950496CDF838E002F0E3
:1058D000E1FC099B013B0993D6D186E50A9B012592
:1058E000099644465E000C9F0C96209EDDF8388099
:1058F000DDF8289038F8020BA047B847B9F1010944
:1059000026F8020BF6D10E9E01230B985146B6469F
:105910000C9E02905846B644209ECDF814909A44AE
:105920000A9ACDF80C90019500950496CDF838E0D0
:1059300002F0B0FC099B013B0993D6D155E59500D7
:105940000C9C09960C95209D4646DDF8289056F84B
:10595000040BA047B9F1010905F8010BF7D10B9829
:105960000123209E514602905846CDF814909A4447
:105970000A9ACDF80C900197009704960C9D02F0BE
:1059800089FC099BA844013B0993DCD194E6099664
:10599000012596000C9C0C96209E4746DDF8289029
:1059A00057F8040BA047B9F1010946F8040BF7D1E9
:1059B0000B980123209F514602905846CDF8149031
:1059C0009A440A9ACDF80C900195009504970C9E84
:1059D00002F060FC099BB044013B0993DCD16BE60B
:1059E0000996012596000C9C0C96209E4746DDF8F2
:1059F000289057F8040BA047B9F1010926F8020BCB
:105A0000F7D10B980123209F514602905846CDF8BC
:105A100014909A440A9ACDF80C9001950095049739
:105A20000C9E02F037FC099BB044013B0993DCD18A
:105A300042E600BF094B1A6A002A18BF002003EB98
:105A4000800210B49469002C04DB4FF0FF3443F85B
:105A5000201094615DF8044B704700BF5CC70120C3
:105A600058B311B30AB3B1F90030F0B5B2F9005030
:105A7000B2F902E0B1F902409D42B2F90470B2F904
:105A80000660A8BF1D46B1F904207445B1F906307F
:105A9000A8BF7446BA420580B8BF3A46B3424480B4
:105AA000B8BF33468280C380F0BD002908BF1146CD
:105AB0000A684B68026043607047704778B189B2EA
:105AC000C38892B270B40688448885880E44144412
:105AD0001A442944068044808180C28070BC70478B
