:020000040800F2
:10000000B0D60120E10100082B9001089D7A01087B
:10001000299001084931010897A501080000000056
:1000200000000000000000000000000039990108F5
:100030008D32010800000000399001083D99010847
:10004000FB010008FB010008FB010008FB010008A0
:10005000FB010008FB010008FB010008FB01000890
:10006000FB010008FB010008FB010008FB01000880
:10007000FB010008FB010008FB010008FB01000870
:10008000FB010008FB010008FB010008FB01000860
:10009000FB010008FB010008FB010008FB01000850
:1000A000FB010008FB010008FB010008FB01000840
:1000B000FB010008FB010008FB010008FB01000830
:1000C000FB010008FB010008FB010008FB01000820
:1000D000FB010008FB010008FB010008FB01000810
:1000E000FB010008FB010008FB010008FB01000800
:1000F000FB010008FB010008FB010008FB010008F0
:10010000FB010008FB010008FB010008FB010008DF
:10011000FB010008FB0100087D9A0108899A01088B
:10012000FB010008FB010008FB010008FB010008BF
:10013000FB010008FB010008FB010008FB010008AF
:10014000FB010008FB010008FB0100082D900108DD
:10015000FB010008FB010008FB010008FB0100088F
:10016000FB010008FB010008FB010008FB0100087F
:10017000FB010008FB010008FB0100080000000073
:10018000FB010008FB010008FB010008FB0100085F
:10019000FB010008FB010008FB010008FB0100084F
:1001A000F9830108FB0100084D320108FB0100083A
:1001B000FB010008FB010008FB010008FB0100082F
:1001C000FB010008FB010008DFF810D000F0E2F8A6
:1001D00000480047ADB60108AFF30080B0D601205B
:1001E0000648804706480047FEE7FEE7FEE7FEE7D1
:1001F000FEE7FEE7FEE7FEE7FEE7FEE7299A0108D5
:10020000C90100082DE9F05F0546002092469B4693
:1002100088460646814640241BE02846414647461C
:10022000224600F0A7F853465A46C01A914110D30F
:1002300011461846224600F08EF82D1A67EB010889
:100240004F4622460120002100F085F817EB0009F7
:100250004E41201EA4F10104DFDC484631462A4607
:100260004346BDE8F09F00000649074A086850432E
:1002700043F23902104408604008704701490860A1
:1002800070470000580200206D4EC64110B5441A58
:100290000346944209D28418114403E011F8013D49
:1002A00004F8013D521EF9D210BD40EA0104A40732
:1002B00003D009E010C9121F10C3042AFAD203E0C8
:1002C00011F8014B03F8014B521EF9D210BDD2B206
:1002D00001E000F8012B491EFBD270470022F6E72F
:1002E00010B513460A4604461946FFF7F0FF2046AC
:1002F00010BD421E12F8013F002BFBD111F8013B4B
:1003000002F8013B002BF9D17047421C10F8011B89
:100310000029FBD1801A7047034611F8012B00F821
:10032000012B002AF9D11846704730B50B4601461B
:1003300000202022012409E021FA02F59D4205D384
:1003400003FA02F5491B04FA02F52844151EA2F12E
:100350000102F1DC30BD202A04DB203A00FA02F170
:10036000002070479140C2F1200320FA03F31943A3
:1003700090407047202A04DB203A21FA02F0002145
:10038000704721FA02F3D040C2F1200291400843A5
:1003900019467047064C074D06E0E06840F001033F
:1003A00094E8070098471034AC42F6D3FFF710FFEB
:1003B000F40302081404020870B58C1810F8015BED
:1003C00015F0070301D110F8013B2A1106D110F8EE
:1003D000012B03E010F8016B01F8016B5B1EF9D1F2
:1003E0002B0705D40023521E0DD401F8013BFAE778
:1003F00010F8013BCB1A921C03E013F8015B01F8E3
:10040000015B521EF9D5A142D8D3002070BD000077
:1004100070B5456882B004460146284607F020FFC3
:1004200068B123680F2B59D00BDD282B45D0B3F5CD
:10043000107F3CD0112B49D0204608F049FB02B078
:1004400070BD0B2B20D00E2BF6D1E3681A685968CB
:100450000D2A53D0202A31D1002928464FF480712B
:100460007DDD07F0DFFF284601F048FC02AB846A1F
:1004700043F8040D184601F075FDA207DFD52846A4
:10048000012109F0BDFCDAE7284602AD01F036FC97
:1004900003466830019301F023FA55F8040D032157
:1004A0006C3001F039FA284601F05CFDC4E7324BAC
:1004B000214628461B689847C1E7E368002BBBD15B
:1004C00028464FF4807107F0B3FEB5E72B4B1B684D
:1004D000002BB4D0214628469847B0E7284601F0C3
:1004E0000DFC034602A840F8043D5B6E1C6801F059
:1004F00039FD002CA3D02846A047A0E70029DDDD68
:100500004FF48071284607F08DFF02AC284601F0B9
:10051000F5FB866A44F8040D204601F023FDB1077F
:1005200003D50121284609F06BFC4FF48071284661
:1005300007F07EFE284601F0E1FB034620461E8EB2
:100540009C6A019301F00EFD304604F089FDA3077B
:100550007FF575AF2846022109F052FC6FE707F0DE
:1005600067FE284601F0CAFB034602A89C6A1E8E5D
:1005700040F8043DE6E700BF1001002044C8012018
:100580002DE9F043044687B0304F00260091A5695D
:10059000B0F90C104C35B0F90A001944B4F9103018
:1005A0001044B4F90E20039502970196B4F908504F
:1005B00008F0A2F9804618B9404607B0BDE8F083BC
:1005C000234F0DF1180901F099FB294610220590DF
:1005D0003E1D08F025F859F804ED0FCE0EF1340554
:1005E0000FC50FCE0FC596E80F0085E80F007B6B97
:1005F0004846CEF8643001F0B5FC7B6B40465B6842
:1006000098474046656801F079FB034604A89C6E54
:100610000493059401F0A6FC2946484606F0E2F84A
:100620000028C9D0059B9C4209D0404601F066FBDA
:10063000059A034604A89A66049301F093FC404689
:1006400009F00CF9404607B0BDE8F083110400083A
:1006500010010020974A816843682DE9F041044663
:1006600088B052F82160122B40D8DFE803F0B03F89
:100670003F3F3F0A973F3F3F3F3F3F3F3F3F3F3F67
:100680004300F569002D40F0B580371F57F8040F7F
:1006900004F094FC04F1140120690EC928445B1B8A
:1006A000521B2944013502F07FFA022DEED1626916
:1006B0003169E3690191911CF76813442069A269CB
:1006C0005B1028440097521B02F078F9E1696269D7
:1006D000B0698B1E1144A2690190491020697669A6
:1006E000521B01312844009602F068F9002008B03E
:1006F000BDE8F081006801F001FB876E0490002FD7
:1007000000F0D080A368B0F95C80002B00F0C880B6
:10071000032B14BF0023022300EB8303406D08ACBE
:100720001D6C04F04FFC284604F048FC06A802F0BB
:1007300069FBB28BBDF8181006A8BDF81C30114437
:10074000BDF81A509A1ABDF81E30ADF818100235CF
:1007500054F8101D023BADF81C20B1F96020B1F92E
:100760005E10ADF81E30ADF81A5003F077FF20464A
:1007700008AC01F0F7FB022004F060FC384601F001
:10078000BDFA06A9424644F80C0D02F0F3F82046E3
:1007900001F0E8FB002008B0BDE8F081006801F03E
:1007A000ADFA049020680AF043FDB8B9049B5D6F70
:1007B00005B9DD6E04A801F0D5FB002328462168A9
:1007C0001A4602F01BF8002008B0BDE8F08100686E
:1007D00009F062FD002008B0BDE8F081A368002B9D
:1007E00064D1049A136F002B14BF6C236823134445
:1007F0005D68DFE7B268B046C3690027039271689D
:100800008269029158F80409009561690190206994
:1008100005F08EFB58F8040F04F0D0FBF369A269D1
:1008200021696069D21A1944384402F097F9F369D2
:10083000A2692169E069D21A1944C01B02F08EF93D
:10084000F369E26961692069D21A1944384402F0F7
:10085000EDF9A069F369E269C01B61690137D21A39
:10086000194402F0E3F9022FD4D1B06804F0A6FBDA
:10087000F16922696569901CE3690A445B1A29449D
:10088000013A02F025FAF169A0696569E369821EFF
:10089000401A5B1A2944013002F01AFAF56906E79A
:1008A000012339E704A801F05DFB1FE7049BDD6E1F
:1008B00080E700BF9403020800B9704730B583B0E9
:1008C0000D46044601F01AFA02AB456543F8040DE3
:1008D000184601F047FB204608F0C0FF03B030BDCA
:1008E00070B582B018B90124204602B070BD0C4624
:1008F000054601F003FA0346866E68468DE8480017
:1009000001F030FB214601A805F06CFF00280CBF68
:1009100001240024E8D0019B9E4209D0284601F022
:10092000EDF9019A034668469A66009301F01AFBB6
:10093000284608F093FF204602B070BD2DE9F04F25
:10094000446805468BB020460AF072FC29460646EC
:10095000204607F085FC002834D02B680F2B5CD094
:1009600033DC0B2B46D00E2B51D1002E4FD0EB6831
:100970005A68002A4BDDD3F80080A8F10903192B2F
:1009800006D80121BF4A01FA03F31A40002A3ED1DA
:10099000C4B10AAE204601F0B1F90346876D46F8AE
:1009A000180D304693F854A0D3F83490DD6C01F064
:1009B000D9FA002F00F0DC8041462046B847204697
:1009C00008F04CFF0BB0BDE8F08F40F213129342D9
:1009D00028D0B3F5107F1AD1EB68002B00F0968079
:1009E0001A7A002A4ED0002C41D12046012109F06C
:1009F00007FA0CE020460AAC01F080F903463430D7
:100A000044F8043D00F06CFF204601F0ABFA2846A4
:100A100008F05EF80BB0BDE8F08F2046012110F021
:100A200011FCCFE720460AAE09F024FB204601F076
:100A300065F9034646F8040D304693F8562082F0D7
:100A4000040283F8562001F08DFA0021204610F0B0
:100A5000F9FB204601F052F903460021D0F884004A
:100A6000099309F0ADFA304601F07CFACFE7204651
:100A70001E6801F043F9436B079043B907A801F0E2
:100A800071FAB2E72046022109F0BAF9BFE7184629
:100A900001F034F9079B0690986E04F093FA8046B3
:100AA000204608F019FB0746069802F0E7F9079A76
:100AB0008146136E03F00303012B00F0E781022B44
:100AC00040F0DD813B1A013348BF0133A6EB6306DA
:100AD000069805F0BDFC002E0746C0F2F881B1452E
:100AE00019DA204601F00AF9436B0890002B40F018
:100AF000D38108A801F036FA06A801F033FA40467F
:100B000004F060FA204608F0A9FEB7E7204603216A
:100B100009F076F97BE702463146069805F018FCA5
:100B20000646204601F0EAF8436B0890002BE0D01F
:100B3000184626EAE67601F0E1F8099005F088FC0F
:100B40000899B1F9383091F85470CA6C002F18BF69
:100B5000013BB342A8BF33469842A8BF1846824221
:100B600000D0C864002309A80B6501F0FBF9C0E7B9
:100B7000A8F10803162B00F2E680DFE813F0A000CE
:100B8000E400E400E400E400E400E400E400BC006D
:100B9000850076004800E400E400E400E400E4009E
:100BA000E400E400E400E40038001700204601F00F
:100BB000A5F803460AA85D6B40F8083DDF6C01F01C
:100BC000D1F9002D3FF4FBAE284601F097F83946E5
:100BD0000646099004F094FB05463046FFF795FB66
:100BE0008542C0F0E28109A801F0BCF9E7E62046A1
:100BF00001F084F8BAF1010F0346049040F08781B8
:100C0000002280F85420304601F0ACF9D7E6B9F163
:100C1000000F3FF4D4AE484601F070F8064629466E
:100C2000099004F06DFB0644304604F029FB0023D4
:100C300005468DF82230ADF82030013D04F02CFB44
:100C40000746ADB2284604F027FB8742CBD12946A0
:100C500008A804F00FFB08A93A463046FFF716FB38
:100C60000521204609F0CCF8BDE7204601F046F802
:100C7000436B0890002B40F0A88108A801F072F99E
:100C80009DE600BF13000403B9F1000F3FF497AED7
:100C9000484601F033F806462946099004F030FB37
:100CA0000644304604F0ECFA002305468DF8223065
:100CB000ADF82030013504F0EFFA0746C1E7002D0A
:100CC0003FF47DAE204601F019F8436B0890002BED
:100CD00040F0948108A801F045F9204601F00EF893
:100CE000034608A85D6BDF6C089301F03BF9002D0B
:100CF0003FF465AE68E7204601F000F8436B0890CA
:100D0000002BBAD0184600F0F9FF099005F0A0FBBF
:100D1000089A6B1EB2F9381023EAE37392F8546014
:100D2000D56C002E18BF01398B42A8BF0B469842E4
:100D3000A8BF184600238542136518BFD06409A8D0
:100D400001F010F999E7B8F11F0F7FF738AEBAF14B
:100D5000000F40F00881204600F0D0FFB0F9383095
:100D600081460590002B07DD406B002840F06B8129
:100D700007469F4280F263811FFA88F30DF128092C
:100D80001E46019359F8143DDB6C4846039301F06D
:100D9000E9F8304604F080FA8346204600F0AEFFC2
:100DA000436B0690002B40F08F811E460AA80BEB88
:100DB000060350F8102D0133568F9E1B01F0D2F818
:100DC000002E40F37E812046103600F097FF034648
:100DD000B0F83A800AAFD3F834A0B04447F8080D11
:100DE000384601F0BFF84146504600F09BFF0290A4
:100DF00000283FF4E4ADBAF1000F00F0548109AED1
:100E0000204600F07BFF029A034638460893A3F879
:100E10003A805A6301F0A6F8204600F06FFF0346BF
:100E20004846D3F83480059301F09CF8404600F022
:100E300065FF80460399099004F062FA80444046B9
:100E4000FFF763FA4146421C08EB0B00FFF71EFA5E
:100E50000199404604F00EFA304601F083F805216E
:100E6000204608F0CDFF204600F048FF436B089075
:100E7000002B40F0F680384601F074F89FE5536E81
:100E8000D16A5A1C0B681344F61A21E6536E3F1AB6
:100E90000133FB1AF61A1BE6184627EAE77700F03B
:100EA0002DFF099005F0D4FA0899B1F9383091F87E
:100EB0005460CA6C002E18BF013BBB42A8BF3B4622
:100EC0009842A8BF184682427FF44BAE4AE62046BD
:100ED00000F014FF436B0890002B3FF40AAE184655
:100EE00000F00CFF099005F0B3FA0899B1F9383019
:100EF00091F85460CA6C002E18BF013B03EAE373FB
:100F00009842A8BF184682427FF42BAE2AE60122FF
:100F1000204683F8542000F0F1FE436B0890F3B1B3
:100F2000184625EAE57500F0E9FE099005F090FA0B
:100F3000089AB2F9383092F85470D16C002F18BF6B
:100F4000013BAB42A8BF2B469842A8BF18460023DE
:100F50008142136518BFD06409A801F003F808A8FE
:100F600001F000F84FE60AAF204600F0C7FE466BDE
:100F7000034647F8080D3846D3F84C9000F0F2FFCE
:100F8000002E3FF4E8AE304600F0B8FE4946074672
:100F9000099004F0B5F906463846FFF7B6F98642DF
:100FA0001CD309A800F0DEFFD5E63544284604F03E
:100FB0006DF929182846FFF7AFF909A800F0D2FF0C
:100FC0000521204608F01CFFF9E4184600F096FEC3
:100FD000099005F03DFA089A6B1C9BE63E443046AA
:100FE00004F054F931183046FFF796F909A800F0DB
:100FF000B9FF0521204608F003FFACE6184600F0D3
:101000007DFE099005F024FA089A6B1EB2F938109B
:1010100092F8546023EAE373D56C002E18BF0139AF
:101020008B42A8BF0B469842A8BF184600238542B2
:10103000136518BFD06409A800F094FF4AE605A81C
:1010400000F090FFBBE40AAE00F058FE46F8040D35
:1010500005F0FEF90746304600F084FFB9F9383054
:1010600087E6184600F04AFE099005F0F1F9089964
:101070006B1C91F854E0B1F9385023EAE373CA6C61
:10108000BEF1000F18BF013DAB42A8BF2B469842EE
:10109000A8BF1846002390420B6518BFC8643046AD
:1010A00000F060FFE7E600F029FE0AAE0D4B514666
:1010B00046F8040D42461B689847304600F052FF40
:1010C0009EE609AE08AFA7E618460AAF00F016FE86
:1010D00047F80C0DFFF719F90646384600F042FFB5
:1010E00064E600BFA00100202DE9F047044688B067
:1010F0004D4F4FF480560091A569B0F90C10603542
:10110000B0F90A001944B4F910301044B4F90E20B3
:10111000039502970196B4F90850D4F8148007F0AB
:10112000EBFB20B90027384608B0BDE8F08707463A
:1011300000F0E4FD29461022059007F071FA3B4EBD
:101140004FF0010CDDF814E00FCE0EF160050FC575
:101150000FCED6F8009018F1010618BF0126B8F19D
:10116000000F0FC5C5F800908EF855C08EF8886046
:1011700055DD0FFA88F808EB0C050023AEF838802F
:1011800005A808AEAEF83A30CEF8343000F0EAFEEA
:10119000384600F0B3FD0346428FD3F8348015443F
:1011A00046F8080D304600F0DDFE2946404600F0C6
:1011B000B9FD824678B3B8F1000F1DD00DF11C09BE
:1011C000384600F09BFD034630465D87C3F834A0E7
:1011D000069300F0C7FE3846648A00F08FFD079042
:1011E00018B10466384608F039FB484600F0BAFEEC
:1011F000384608B0BDE8F08700F080FD0DF1200909
:101200000B4B414649F8040D2A461B68984748464F
:1012100000F0A8FED4E7384607F08AFC82E70925EB
:101220004FF00808A9E700BF3D0900084801002069
:10123000A001002000B9704770B582B00D46044689
:1012400000F05CFD02AE03468566204646F8043D8C
:1012500008F004FB304600F085FE02B070BD00BF10
:1012600000B97047AFF300802DE9F04F8BB00E4608
:10127000074600F043FD0AAD0246446B45F8180DE1
:101280002846B2F9388000F06DFE002E00F0A880EC
:10129000002C7DD1A1463046444605F0D9F8804562
:1012A000A8BF04463046214604F02AF800F10108A0
:1012B000384600F023FD436BC9EB080A0690002B6B
:1012C00057D19946D144438F06A809F10109C3EBD0
:1012D000090900F047FEB9F1000F25DD384609F194
:1012E000100900F00BFD0346428F0DF1280AD3F8D8
:1012F00034B091444AF8080D504600F033FE494698
:10130000584600F00FFD019068B3BBF1000F54D0B8
:10131000384600F0F3FC019B02465046A2F83A9092
:101320005363089200F01EFE384600F0E7FC0346C7
:10133000406B049300F0E2FC314B4246314605908D
:101340001B689847059A0023904408F8013C049BC9
:10135000B3F93820DC64A24228D005A800F002FED0
:10136000284600F0FFFD384608F078FA0BB0BDE8DB
:10137000F08F18460DF1280B00F0C0FC4BF80C0D57
:10138000FEF7C3FF8146584600F0ECFD069899E74A
:1013900020460AAC00F0B2FC44F8140DFEF7B5FF8D
:1013A00000F10109204600F0DDFD74E793F85420B8
:1013B000012AD2D1013CDC64CFE700F09FFC0AABEC
:1013C000DFF840E0594643F8040D4A46DEF800B025
:1013D00002930393D847029B184600F0C3FD97E79A
:1013E000384600F08BFC03463430049300F078FA62
:1013F000049B28465E87DE6400F0B4FDB3E700BFBF
:101400009C010020A001002000B9704730B583B0D6
:1014100004460D4600F072FC019018B105662046A6
:1014200008F01CFA01A800F09DFD03B030BD00BF1C
:1014300000B9704770B582B0064615460C4600F0FC
:101440005DFC019008B1022C04D901A800F08AFDCE
:1014500002B070BD00EB84013046CD6608F0FEF9A5
:10146000F3E700BF0D4B10B5186806F019FC0C4BE4
:101470000C4C186806F04EFC2368002201219A8566
:1014800010465A85197606F077FC074A23681268D9
:1014900002B1DA6100229A7610BD00BFF40000208C
:1014A000F0000020F8000020EC000020014B83E851
:1014B000030070474CC60120014B83E803007047CE
:1014C00054C60120014B83E8030070475CC601202D
:1014D000704700BF704700BF2DE9F04F5C4E8DB0E4
:1014E0003368DA69B3F92250D469B4F80CB0834593
:1014F00000F29780E1898142C0F093802168CBEBB4
:10150000000B08914FF0FF310A91BBF1FF3F00F053
:10151000828092F81880A27CB3F92A10B3F9249043
:1015200018FB02F3084607911F4694F810A006F036
:1015300023FCD6F800E008994346DEF838C052464E
:10154000099007FB0B10DEF81CE00B9701270490B5
:101550004946CDF814C0284694F812C00297CDF839
:101560000CC09EF81BC0DFF8E8B0CDF804C09EF8B0
:101570001AE0CDF800E005F023FD0A9F7B1C25D082
:10158000079941F0020006F0F7FBDBF800100B9A18
:1015900043460898D1F838C002FB0700D1F81CE098
:1015A0000127CDF814C00490524694F812C0494661
:1015B00002972846CDF80CC09EF81BC0CDF804C099
:1015C0009EF81AE0CDF800E005F0FAFC3368DFF889
:1015D0008080DB695A7E1B7E9A4215D9079B022BBD
:1015E00012D083F0040006F0C7FBD8F8003028467C
:1015F000DB691F7ED97E9A7E5B7E07FB01910AFB29
:1016000002524B4405F0E4FE9DF8240006F0B4FBC2
:101610003368B3F92250627C15445D840DB0BDE897
:10162000F08FA1680029F6D00F88B842F3D3B1F843
:1016300002E08645EFD3C01B4968676880B208970F
:1016400001EB800731F920B0B7F902100A915CE78D
:10165000F8000020044B1B68DB69DB6909B11A7CC8
:101660000A60587C704700BFF800002002230B80FE
:10167000704700BFC3699A898A4202D8DA898A42D0
:1016800011D2986818B10388994201D2002070479E
:1016900042888A42FAD3C91A436833F82100C0430A
:1016A000C0F3C03070470120704700BF2DE9F04FF4
:1016B0003A4D89B02B68DA69B3F92A90D36943B1FE
:1016C0001A88904202D35988814205D29B68002B28
:1016D000F6D109B0BDE8F08F841AD3F804804846EB
:1016E00008EBC40696F802B006F046FB824628686E
:1016F00018F834204FF0010EC769D0F838C0B0F99F
:101700002410B0F922003B7E0790CDF814C0706819
:10171000CDF80CB00490CDF808E097F81BE00798DE
:10172000CDF804E0BF7E009705F04AFC2B68DA692B
:10173000537E177EBB4223D9B9F1020F07931FD006
:1017400092F81BB001F062FB814601F043FB03F00D
:1017500035FC124B18F834E01868079BC169B0F9E2
:101760002240CA7EB0F9241020460EFB02420BFB39
:1017700003130BFB071105F02BFE484603F01EFC7C
:10178000504606F0F9FA2B687178D8695A8C807E39
:1017900000FB01225A8409B0BDE8F08FF800002058
:1017A000114B1B6870B4DD69EB6943B11A88904234
:1017B00002D35C88844205D29B68002BF6D1184680
:1017C00070BC7047821A5E68AC7E06EBC2035B7821
:1017D00013FB04F00029F3D016F8323014FB03F3A6
:1017E00070BC0B60704700BFF800002001230B8025
:1017F000704700BFC06950B103888B4202D843884C
:101800008B4203D280680028F6D1704701207047D0
:1018100000B970470AF000B908B900207047F8B560
:1018200006460AF0F9F8044638B3154D3246154F0E
:101830000021E8696B6B013003EBC406E86113F823
:101840003400013003F8340076683B6806F1080084
:10185000984731686A6B12F83130012B01D9E86979
:1018600020B9013B204602F83130F8BD0138013B78
:10187000E861204602F83130F8BD0020F8BD00BF15
:101880009CC90120A001002021F00301014B83E845
:101890000300704764C6012000B9704770B50A4C58
:1018A000C6000546636B33445968486809F006FF73
:1018B0006368626B0021606A013316446360706084
:1018C00002F83510656270BD9CC9012028B1034A39
:1018D000D36B036003B15860D06370479CC901208B
:1018E000F8B50468054694B10A4EE700736B3B44B3
:1018F0005968486809F0E2FE7368726B0020716AEB
:10190000013317447360796002F834007462002375
:101910002B60F8BD9CC9012000292ADD2DE9F04784
:1019200000258A46041F134FA94603E0AA45C4F8C0
:1019300000901CD054F8046F0135002EF6D04FEA09
:10194000C6087B6B43445968486809F0B7FE7B685A
:10195000796BAA457A6A03F1010388447B60C8F871
:10196000042001F836907E62C4F80090E2D1BDE810
:10197000F08770479CC90120F8B58B4E044696F855
:101980002830002B2FD00334356CF26B24F0030485
:101990000434A54238BF254662B152F8043C1446CF
:1019A0009D4204D114E054F8043C9D4210D02468B8
:1019B000002CF8D1F368B46B1C4454F8041C611A71
:1019C0000B68002B68D14B689D426FDD002408E056
:1019D00023680BB161685960616801B10B60A24274
:1019E00056D02046F8BD714B01219A6886F8281020
:1019F00058680AB982089A605A27102220254FF0A9
:101A0000400E3762802732644FF48072B5644FF421
:101A100000751968C6F850E04FF4806EB7654FF452
:101A2000006732664FF48052B5664FF40055A1F15D
:101A30001403C6F870E0B7674FF4804EC6F88020F4
:101A40004FF40047C6F888504FF480324FF4003509
:101A50000344C6F890E04FF4802EC6F898704FF417
:101A60000027C6F8A0200222C6F8A8500125B163BD
:101A70007363C6F8B0E03261F060C6F8B8705D60BC
:101A80007562756009F01AFE0DF0D8FB35637AE7D0
:101A900023682046F363F8BD00200FF081FF54F85F
:101AA000041C611A0B68002B90D18CE7581BD6F8E8
:101AB000B8703D4A041DBB420C4472D2D2F8B070DB
:101AC000BB426CD2D2F8A870BB4266D2D2F8A070EA
:101AD000BB4260D2D2F898709F425AD9D2F8907027
:101AE000BB4254D2D2F88870BB424ED2D2F880703A
:101AF000BB4248D2926F934243D2376F2A4ABB42CD
:101B00003DD2976EBB4238D2176EBB4233D2976D2F
:101B1000BB422ED2176DBB4229D2976CBB4224D256
:101B2000126C93420CD2F2687369521B2B44F26020
:101B3000736110B944F8045C53E709F0BFFDF9E79D
:101B400000223768D1F808E0FF1ACB683760BEF191
:101B5000000F01D0CEF8043013B1C3F800E0E2E783
:101B600006EBC202C2F844E0DDE70122E9E7022207
:101B7000E7E70322E5E70422E3E70522E1E706229F
:101B8000DFE70722DDE70822DBE70922D9E70A229F
:101B9000D7E70B22D5E70C22D3E70D22D1E70E229F
:101BA000CFE70F22CDE700BF9CC9012064C601200A
:101BB000F8B54A4C94F82830002B3DD0D4F8BC300E
:101BC000464A3BBBD2F8B43023BBD2F8AC300BBB97
:101BD000D2F8A430F3B9D2F89C30DBB9D2F8943003
:101BE000C3B9D2F88C30ABB9D2F8843093B9D36F83
:101BF00083B9536F73B9E36E63B9536E53B9D36D41
:101C000043B9536D33B9D36C23B9536C13B96FF027
:101C10000B00F8BD9B68002BF9D0002201E09B6807
:101C200043B159681046914201D90A4608469B685B
:101C3000002BF4D10C38F8BD294B01219A6884F8A7
:101C4000281058680AB982089A605A26102220255E
:101C500040272662802622644FF48072A5644FF4E8
:101C60000075196827654FF48067A6654FF4006614
:101C700022664FF48052A5664FF40055A1F114037B
:101C80002767A6674FF48047C4F880204FF40046CA
:101C9000C4F888504FF480324FF400350344C4F840
:101CA00090704FF48027C4F898604FF40026C4F871
:101CB000A0200222C4F8A8500125A1636363226119
:101CC000E060C4F8B070C4F8B8605D6065626560DB
:101CD00009F0F4FC0DF0B2FA25636FE79CC901200E
:101CE00064C6012030B1044B5B6B03EBC00043685A
:101CF00058680C38704700BF9CC90120084AD16958
:101D0000536B013110B4D16103EBC00413F83020E0
:101D1000013203F8302060685DF8044B08307047EA
:101D20009CC9012009B9084670472DE9F0470646CD
:101D300008468A4609F070FE044600285AD0002E54
:101D400058D02E4DF700DFF8B8C06B6BE969DA198F
:101D500013F8300003EBC40E0231D2F804800130D6
:101D6000D8F8042003F834000C3ADEF80490E96156
:101D700008F1080113F836E0524509F108000EF1A8
:101D8000010EA8BF524603F836E0DCF80030984751
:101D9000D9F800106B6B13F83120012A03D9E869D8
:101DA00008B10138E861013A03F83120D8F8001091
:101DB00013F83120012A06D9E869DFF840E010B1B4
:101DC0000138CEF81C00D819013A03F831204168D7
:101DD000486809F073FC6B68696B4FF0000E6A6A23
:101DE00001330F4420466B607A6001F836E06E6282
:101DF000BDE8F0872046BDE8F08700BF9CC9012000
:101E00009C010020F8B5544C94F82830002B51D098
:101E1000D4F8BC30504A83BBD2F8B4306BBBD2F894
:101E2000AC3053BBD2F8A4303BBBD2F89C3023BBC0
:101E3000D2F894300BBBD2F88C30F3B9D2F884309E
:101E4000DBB9D36FCBB9536FBBB9E36EABB9536E8C
:101E50009BB9D36D8BB9536D7BB9D36C6BB9536C94
:101E60005BB96FF00B033D49DA1781FB0313C2EB3B
:101E70006313206A00FB03F0F8BD9B68002BF8D0C9
:101E8000002201E09B6843B159681046914201D994
:101E90000A4608469B68002BF4D10C38B0F5800F39
:101EA0000346E0D8226A2D4B02FB00F0A3FB00237F
:101EB0005809F8BD2A4B01219A6884F828105868FF
:101EC0000AB982089A605A261022202540272662E5
:101ED000802622644FF48072A5644FF4007519685F
:101EE00027654FF48067A6654FF4006622664FF4BD
:101EF0008052A5664FF40055A1F114032767A66729
:101F00004FF48047C4F880204FF40046C4F888504E
:101F10004FF480324FF400350344C4F890704FF40E
:101F20008027C4F898604FF40026C4F8A02002224D
:101F3000C4F8A8500125A16363632261E060C4F87E
:101F4000B070C4F8B8605D606562656009F0B6FBAA
:101F50000DF074F925635BE79CC901201F85EB51E7
:101F600064C6012003680B4A30B4044653F8085C89
:101F7000506B10F83530012B03D9D16909B1013903
:101F8000D1610022013B00F835301046226030BCA0
:101F9000704700BF9CC90120034B5B6B03EBC00083
:101FA00040680830704700BF9CC9012010B584B05C
:101FB0000C46064B114601AA009020460193CDF82D
:101FC0000CD00AF0B3FA04B010BD00BF092000081D
:101FD00000B583B000F1120302A840F8043D04F0FC
:101FE000D7FB03B05DF804FB00B583B000F1160326
:101FF00002A840F8043D04F0CBFB0028B8BF4042E3
:1020000003B05DF804FB00BF10B40468104623441D
:102010005DF8044B0B6070472DE9F043044683B034
:102020000020894690461E46606003462568694642
:10203000A0683622A847362803D0012003B0BDE8A7
:10204000F083636868463633636004F09BFB009B53
:10205000054668460C33009304F09AFB0746684631
:1020600004F096FBC9F80000684604F091FB009B61
:10207000C8F8000068460233009304F083FB308008
:10208000684604F085FB009B0B9A0C331060684691
:10209000009304F07DFB3388013B1F2BCDD801A2B8
:1020A00052F823F06F2100083B2000083B20000875
:1020B000672100083B2000083B2000083B20000867
:1020C000252100083B2000083B2000083B20000899
:1020D0003B2000083B2000083B2000083B20000874
:1020E000772100083B2000083B2000083B20000827
:1020F0003B2000083B2000083B2000083B20000854
:10210000772100083B2000083B2000083B20000806
:102110003B2000083B2000083B2000083B20000833
:10212000772100084FF480730A9A136008B10A9B64
:1021300018600B9B1B68032B21D06068283838443B
:1021400060600A9B1B68B3F5807F3FF776AF44F66B
:1021500042539D427FF471AF0B9B1868032894BFD4
:10216000002001206AE710230A9A1360DEE70223A9
:102170000A9A1360DAE700230A9A1360D9E72668FF
:102180001022636801A9A068B047102805D06368D1
:10219000A3F1380038446060D3E7636801A8254E96
:1021A0001033636004F0F4FA306001A804F0F0FA30
:1021B000706001A804F0ECFA00223368F260DA07DC
:1021C000B06007D401225B081146013213F0010F01
:1021D000F9D0F16001225B089646013213F001014B
:1021E000F9D17368C6F818E0DA07316107D4012223
:1021F0005B081146013213F0010FF9D03161012261
:102200005B089646013213F00101F9D1C307C6F805
:102210001CE0716106D4012340081A460133C1074E
:10222000FAD57261012340081A460133C107FAD476
:102230003262ACE754C80120F8B5134B0022134DAD
:102240001B685C7CA600331905EB830358691A727E
:1022500040B159681F698A68DB684968BA1A591A17
:1022600002F064FB204600F0D9FD38B9344405EB98
:1022700084046069BDE8F84002F02EBB0021BDE88F
:10228000F84002F0BFBE00BFF800002014C70120D4
:102290002DE9F041064610461446884600F0BEFD82
:1022A000C8B9A700184D3B1905EB8303DA68B242A1
:1022B00004D11B69434501D1BDE8F0813B1905EB11
:1022C00083035869B0B93C4405EB8404E660C4F864
:1022D0001080BDE8F0810C4B04EB840403EB840414
:1022E00063689A685968C2EB0802711ABDE8F04148
:1022F00002F086BE5B689A685968C2EB0802711AE0
:1023000002F014FBDFE700BF14C70120C3B2CAB25A
:102310009A1A92B210B414B2002C1EDBC1F3072239
:10232000C0F307239B1A9BB21AB2002A12DB090CD6
:1023300002FB02F2C1EB104104FB042089B20CB293
:10234000002C01DA49420CB2A1B25DF8044B01FB4A
:10235000010070475B421AB2E9E7524214B2DDE76E
:1023600000212DE9F041084682B000F0C7FD0420AD
:1023700005F002FD144B154F43F6FF761B698046AE
:102380003D463446DA6C68461B6D174416441D44BE
:102390001C44ADF80070ADF80460ADF80250ADF823
:1023A000064008F04FFB48B12346324629463846DE
:1023B00005F00EF808F0D8F90028F5D1404605F0F0
:1023C000DBFC02B0BDE8F081E800002001C0FFFFA7
:1023D0002DE9F041074682B0042016461C460D4602
:1023E00005F0CAFC124B804668461B69DA6C1B6D0F
:1023F000174416441D441C44ADF80070ADF8046049
:10240000ADF80250ADF8064008F01CFB48B1234679
:1024100032462946384604F0DBFF08F0A5F90028CB
:10242000F5D1404605F0A8FC02B0BDE8F08100BF40
:10243000E8000020034604202DE9F04182B0B3F902
:102440000070B3F90260B3F90450B3F9064005F027
:1024500093FC124B804668461B69DA6C1B6D17446F
:1024600015441E441C44ADF80070ADF80450ADF89E
:102470000260ADF8064008F0E5FA48B123462A4666
:102480003146384604F0A4FF08F06EF90028F5D173
:10249000404605F071FC02B0BDE8F081E800002084
:1024A0002DE9F047044682B00D461646002B37D082
:1024B0009A46009651460B9B204626680A9AB047DA
:1024C000074618B9384602B0BDE8F08706F0A6FD09
:1024D000618A8046384605F0A5FF013D384607F081
:1024E00039FF404607F036FF002D1DDD4FF0000993
:1024F00003E007F02FFF013D16D054F81C6F0023B6
:10250000CDF80090414620461A46B04706460028BE
:10251000EFD1384606F00CFB304602B0BDE8F0873C
:1025200006F08AFD8246C4E740461D2107F0D8FD2B
:10253000BAF1FF3FC6D006F0A3FD40B9BA450CD0B2
:10254000384607F033FE3846BDE70028F8D0FFF7DD
:1025500023FD80698742F8D1B4E75046B3E700BF56
:10256000012B17DC2DE9F04107461C2090460D4653
:102570001E46FFF701FA0446D0B16DB10561002394
:102580002046A661A4F81480E76023606360A3601E
:10259000BDE8F08100207047074B53F826200AB9A8
:1025A000EDE71A461368002BFBD113692361E6E7B8
:1025B0000020BDE8F08100BF78CA0120012B3BDC80
:1025C0002DE9F84381461C2090460F461E46FFF732
:1025D000D3F9054600287FD0414A002F31D000238F
:1025E000DFF804E152F8264003609EF8001007610E
:1025F0008E428661A0F81480C0F80C90436083601E
:1026000002DB731C8EF80030002C5DD021464C6834
:10261000002CFBD1D9F80000CB681B6883422CDD6D
:1026200009680029F8D148B92E4B163628461A6891
:1026300042F82650BDE8F883002070472846BDE8E0
:10264000F88352F82610002930D0084600E01846DA
:102650000368002BFBD10069DFF88CE02B60286158
:102660009EF80000AE618642A5F81480C5F80C9073
:102670006B60AB60CBDB0C46C3E70AD04B6843B35F
:102680001D606B608D4214BF0B4600234D602B60B4
:10269000C9E7B8F1010FF1D104E0DC6819462368FD
:1026A0008342EBDB0B68002BF7D1E7E7DFF838E07C
:1026B00001609EF8003086619E42A0F81480C0F848
:1026C0000C9041608160D6DA42F82650D9F80000BB
:1026D000A9E742F82650D5E70020BDE8F88300BFFF
:1026E00078CA0120F800002071CA0120FFF7EEB877
:1026F00000283DD070B48469012C03DD0123184605
:1027000070BC70471F4B1A78944221DA1E4D55F861
:1027100024300BB932E013465A68002AFBD1C26854
:10272000116802E01B68002BE8D0DA681268914259
:10273000F8DB10D05A68F2B110604260984214BFC2
:102740001A460022586000230260184670BC704789
:10275000621C1A70DAE7828A012AEBD104E0D6689B
:10276000134632689142E5DC1A68002AF7D1E1E7A6
:1027700001231846704745F82400DFE745F8240098
:10278000BDE700BF71CA012078CA01200F4A8169E4
:1027900052F8213098420AD042680AB103681360A7
:1027A000036803B15A600023036043607047036805
:1027B00042F821302BB100225A604268002AEED143
:1027C000F0E74268002AEAD1EDE700BF78CA0120AD
:1027D00001280EDC084B53F8200058B1C3681B6871
:1027E0001BB908E0C3681B6823B100680028F9D151
:1027F000704700207047704778CA012000B97047C1
:102800002DE9F04182B01E4615460C460746FFF7FB
:1028100075FA02AB026843F8040D1846D2F800803E
:10282000FFF7A0FB33462A4621463846C04702B090
:10283000BDE8F0812DE9F04F484D83B0044600F02B
:10284000FDFA2B680646B3F9228000F02FFB2B68B7
:102850001FFA80F99A8CC9EB020212B29A8421788D
:1028600000294FD0B6B22F4647F6FF71204603F03D
:10287000C7FD01468346204603F082FD29688B8D03
:1028800003F00303012B58D0022B5AD01FFA80FA11
:102890004FF0000E4B8C0AF1FF3CB1F92420CEEB37
:1028A0000303ADF80220013A9BB2B0186A460FFA52
:1028B00083FE6344ADF806002046A1F822E05946A5
:1028C000ADF800E0ADF8043003F0CCF82B682046FA
:1028D000BDF8022059469A8402F012FD235C04449C
:1028E0000A2B19D00D2B17D0BDF800003B6882448D
:1028F000A3F822A022781AB162780134002AB3D159
:10290000B3F92420998D914421F00302A3F8249077
:102910009A8503B0BDE8F08F2B689A8D02F0030210
:10292000013A012A16D8A3F8228022780A2AE2D195
:102930009A8C32449A842278DDE71FFA80FEF246B0
:10294000A8E7002803461FFA80FAB8BF431CC3F368
:102950004F0E9FE71A8C5A84E7E700BFF80000206B
:10296000034B1B6859849A8408B1FFF763BF704713
:10297000F800002000B3F0B5054683B016460C46BB
:10298000C1B1084607F0DAFC074638B102462146D5
:10299000684603F0ADFD684607F0D0FC324621469C
:1029A000284647F6FF7303F0BFF8384607F0C6FC29
:1029B00003B0F0BD0F46F1E7704700BF2DE9F04FBF
:1029C000654C91B02468E56C246D2818AA1861182C
:1029D000E318064607900EA808920D46029101934F
:1029E0001C46ADF83860ADF83C20ADF83A10ADF8B3
:1029F0003E3008F027F8002800F09580C5EB040B66
:102A00001A999DF86820C1F30724BBF1000F1B99A8
:102A10005B46B8BF0BF101030BFB02FEC1F30727B6
:102A20001A995B109DF86CC0C1F307401B9903EB2A
:102A30000E05C1F307461A990A95090E0BFB0435DA
:102A40003C1B0B9503940BFB0034301A0BFB01333A
:102A50005E460C940D931B9B0490C1EB136305938E
:102A6000C2EB0C03069300F0D1F91A9B1B9A099054
:102A7000934267D0002E52D0029D019A954259DCB4
:102A80000AAF86464FF0010B97E8800706E00BF18E
:102A9000010B0135019BA646AB422FDB70469AFB2A
:102AA000F6F499FBF6F197FBF6F398FBF6FC220699
:102AB000059C43EA0C23A24442EA0144049A1C43C5
:102AC000029B9144069AAB421744039A9044E0DA81
:102AD0007445DCD005F01EF9BBF1010FCBEB05010D
:102AE00005F1FF33089A079820D004F071FC0135F6
:102AF000019B4FF0010BA646AB42CFDA204605F012
:102B000009F9BBF1010F17D0019B089ACBEB030128
:102B10000798013104F05CFC099805F0FBF807F018
:102B200023FE00289FD111B0BDE8F08F691E04F08C
:102B3000CDFBAEE705F0EEF8089A0199079804F08E
:102B4000C5FBE9E7184605F0E5F8019B089A0299EC
:102B5000079804F03DFCDFE7F8000020F0B5114FC6
:102B600083B03B681D6DDC6C0544684666181444F0
:102B70002BB2ADF80060ADF80440ADF80230ADF80E
:102B8000063007F05FFF50B13B68224629463046C9
:102B90005B6E1B68984707F0E7FD0028F4D103B08F
:102BA000F0BD00BFF80000202DE9F0431E4C83B0BB
:102BB00025682E7E2F6DEC6C013E07EB010907EBBB
:102BC000030825181444B2B26846AE1A1119C2EBB4
:102BD00009034244ADF80060ADF80410ADF80230CE
:102BE000ADF8062007F02EFFD8B109F1010708F172
:102BF000FF3622464946284604F068FB22464146F5
:102C0000284604F063FB32463946284604F0B8FBF8
:102C100032463946204604F0B3FB07F0A5FD0028F4
:102C2000E7D103B0BDE8F083F8000020104B1B682B
:102C300070B5DD6C82B01C6D05446846661814449E
:102C40002BB2ADF80260ADF80640ADF80030ADF83B
:102C5000043007F0F7FE40B122463146284604F022
:102C60008FFB07F081FD0028F6D102B070BD00BFD8
:102C7000F80000202DE9F0410025124F124EDFF838
:102C80004C803C681CB1A047041C18BF012406F00E
:102C90006BF83368002818BF01244BB1984738B14E
:102CA000D8F8003013B1012498473CB10125E8E77A
:102CB000D8F80030002BF7D1002CF7D12846BDE81A
:102CC000F08100BF9CCA0120A0CA012098CA01203F
:102CD000F0B5104C83B02468E56C246D2F181544B2
:102CE00066181C446846ADF80070ADF80450ADF8A5
:102CF0000260ADF8064007F0A5FE48B123462A461B
:102D00003146384604F064FB07F02EFD0028F5D16B
:102D100003B0F0BDF8000020002850D0C388013B6C
:102D200010B5848880681F2B47D8DFE803F016238E
:102D300046314646463C4646464646464640464658
:102D40004646464646464646464646464610A31032
:102D500002FB031150F8210010BD02FB04F200EB4E
:102D6000D104C843A35C00F0070023FA00F000F090
:102D7000010010BD02FB04F200EB91046FEA410078
:102D8000A35C00F0060023FA00F000F0030010BD81
:102D900002FB04F200EB5104CB07A05C4CBF00F037
:102DA0000F00000910BD02FB0404605C10BD63103D
:102DB00002FB031130F8110010BD002010BD704758
:102DC000034B082153F82000C3689B6A184700BFD3
:102DD00078CA012008B504F03BFBBDE8084004F0C8
:102DE0000FBD00BF024B00211B68DB695B68184701
:102DF000F8000020024B1B68DB695B68184700BFC6
:102E0000F800002008B106F0F9B8704708B504F0E2
:102E100027FBBDE8084004F0F3BC00BF012801D93E
:102E200000207047014B53F820007047E4C7012091
:102E3000014B1B68187C7047F8000020024B1B6890
:102E4000DB69587E704700BFF800002038B50D469A
:102E5000144604F0A3FB10B100232B60236038BD9F
:102E6000044A054BB2F90020B3F9003002600B6050
:102E7000704700BF62CA012064CA012010B5044631
:102E800003F0E6FA01462046BDE8104003F078BAA8
:102E900010F02ABB044B3422352061219A7018703F
:102EA00018461971DA707047E00000200A4B1A6862
:102EB000938D03F00C03082B05D00C2B03D0042BAF
:102EC00005D000207047D369187E40087047D36949
:102ED000187E0138704700BFF8000020024B53F8FD
:102EE00020301B691868704778CA0120024B53F8DC
:102EF00020301B695868704778CA0120024B1B6854
:102F00005884002099847047F800002090B583B061
:102F100000AF534A524B1B6823F001031360514B1F
:102F20001B68C3F30A0340F2494293420CBF0123DA
:102F30000023DAB24B4B1B68C3F30A0340F2514142
:102F40008B420CBF01230023DBB21343DBB21946D3
:102F5000444B1B68C3F30A0340F2524293420CBF36
:102F600001230023DBB20B43002B10D03E4B012288
:102F70001A6000BF3C4B1B68002BFBD13B4B3C4A0B
:102F80001A603A4B1B683B4A934218D0FEE73A4B13
:102F90001B68C3F30A03B3F58A6F10D1374B0122C4
:102FA0001A6000BF354B1B68002BFBD1344B304AF5
:102FB0001A60334B1B682F4A934200D0FEE702F0A1
:102FC00011FD304B2E221A7010F094FA2E480DF09D
:102FD000B5FC0FF091FE786004F05AFB0346002B1D
:102FE0000CBF01230023DCB204F098FB0346002B46
:102FF0000CBF01230023DBB22343DBB2002B09D03B
:1030000004F05CFB044604F09FFB0346194620468F
:1030100004F0ACFE0021002001F0F6FF06F00CFBEE
:103020001A4B1B68002B12D00DE0184B1B681B6855
:10303000002B03D0154B1B681B689847134B1B686C
:103040005B68124A1360114B1B68002BEDD1104BCB
:1030500001221A707B6818460C37BD4690BD00BF30
:10306000002000E0002004E0083002400030024070
:10307000C2A507F4CDB5E8B50010005C084C0258B5
:10308000004C025860CA012078C60120F0C6012019
:1030900070CA012010B582B028B90F4B1B68186E9A
:1030A00008B902B010BDFEF729FE02AB446943F82F
:1030B000080D1846FEF756FF002CF2D0204602AC51
:1030C000FEF71CFE826844F8040D9368984720467A
:1030D000FEF748FF02B010BDF800002000B97047AD
:1030E000014A114600F002B801F0FFFF2DE9F04758
:1030F000DFF8F08084B0064600200C46154601F04B
:103100005FFFD8F80030814630461F6EFEF7F6FDAF
:1031100003680090986901F035FF314B82469C426C
:10312000009B4DD01A895B89013AADF80840013BFC
:10313000ADF80A5022442B44ADF80C20ADF80E3007
:1031400005F04EFB6846FEF70DFF02A807F07AFC7B
:1031500018BB504601F016FF002F39D0D8F80030C8
:103160001B6E93BB05F0AAFC3846FEF7C7FD04AC06
:10317000D8F8003044F80C0D1F660068FFF7B8FA65
:103180002046FEF7EFFE04F0BBFE04F0B5FD484616
:1031900001F016FF04B0BDE8F0872A46214630460C
:1031A00000F038FD07F0E0FA0028D2D02A46214688
:1031B000304600F02FFD07F0D7FA0028EDD1C8E720
:1031C000B3F90440B3F90650ACE701F0D1FEC9E70A
:1031D00001F0CEFE484601F0F3FE04B0BDE8F087F2
:1031E00001F0FFFFF80000202DE9F0431D4F0E46CF
:1031F00005461D4C396885B017469846487C54F8FA
:10320000204001E0246814B3E3681A68042AF9D165
:10321000DB6A0121204698478146F0B12469A36802
:103220009847124A013043463146CDF8049006BF14
:1032300014464FF0010E4FF0000E3A462846029415
:10324000CDF800E000F062FB05B0BDE8F083FFF7C9
:10325000BFFA044608B1C368DAE7002005B0BDE84C
:10326000F08300BFF800002078CA0120B0CD01082B
:103270002DE9F0431C4D0F4606461C4C296885B0CD
:1032800090469946487C54F8204001E02468DCB11F
:10329000E3681A68042AF9D1DB6A012120469847BD
:1032A0000546B8B12469A3689847013016D00C9937
:1032B0004B4642460294009139460195304600F053
:1032C00025FB05B0BDE8F083FFF782FA044608B19C
:1032D000C368E1E7002005B0BDE8F0830C9B044C17
:1032E00043F001030C93E2E7F800002078CA0120C4
:1032F000B0CD010870B4059C14B170BC00F006BBE1
:10330000204670BC704700BFC0B1114B1B681B6EDC
:10331000984210B5044682B016D02046FEF7EEFC67
:10332000436901905BB90068FFF7E0F901A8FEF777
:1033300019FE2046FEF7B0FA02B010BD70471846DD
:1033400002F0E8F80198EEE701F012FEE5E700BFB1
:10335000F80000202DE9F04FDFF864B189460446FB
:103360005548DBF800101E4687B092464F7CC35785
:103370003846012B40F38E8004F090F9054638461C
:1033800004F0D2F90746002C00F0818005A904A8BA
:10339000FFF766FD049A059B1544B4F900201F440D
:1033A000B4F9023022EAE272013D23EAE373013FFD
:1033B000114602921846B4F9042003939542D4BFF3
:1033C000C1EB0501C1EB0201B4F9063002460D461E
:1033D0009F42D4BFC2EB0702C2EB0302013517467E
:1033E000013706B97E42002D4DDD002F4BDD109BCD
:1033F0002A460399009333460298FFF739FF804627
:1034000000284FD000F0C2F88742064604D0DBF80F
:103410000030986C00284BD140463D46002400F017
:10342000B5F90EE0AD1BACB950463444C847234B48
:10343000FF201B6803B198474046FFF74FFEA742A5
:1034400012DDAE42EEDD2946404600F085F9AD1BA7
:10345000002CE9D0039B40460299E21800F0C0F925
:103460004046FFF717FEDFE74046FFF74DFF00201D
:1034700000F08CF9B74206D0DBF80030986C10B140
:10348000332108F02DF8002007B0BDE8F08F039439
:103490000294A6E704F0ACF80546384604F0D2F8EA
:1034A000074670E75046C847012007B0BDE8F08FD7
:1034B000322108F015F8AFE774CA01204CC9012089
:1034C000F800002030B583B018B90446204603B098
:1034D00030BDFEF713FC036802AD1B6945F8040D0F
:1034E0009B68984704F02CFE04462846FEF73AFDF8
:1034F000204603B030BD00BF70B110B582B0FEF7FA
:10350000FDFB00F1180402AB43F8040D1846FEF76A
:1035100029FD204602B010BD704700BF10B582B033
:1035200060B1FEF7EBFB02ABB0F9044043F8040DC9
:103530001846FEF717FD204602B010BD044B1B686D
:10354000186E0028EDD10446204602B010BD00BF21
:10355000F800002010B582B060B1FEF7CFFB02ABDF
:10356000B0F9064043F8040D1846FEF7FBFC204670
:1035700002B010BD044B1B68186E0028EDD1044644
:10358000204602B010BD00BFF800002010B582B088
:1035900060B1FEF7B3FB02ABB0F90A4043F8040D8B
:1035A0001846FEF7DFFC204602B010BD044B1B6836
:1035B000186E0028EDD10446204602B010BD00BFB1
:1035C000F80000202DE9F04F804687B0002758E032
:1035D000002E7ED105F030FD804500F09A80584BDA
:1035E00001264946224602935846564B00960193BF
:1035F0002B4600F08BF981464046FEF77FFB0346E1
:103600000590C0F82490B9F1000F79D0826A05A81E
:10361000DFF840B142F480329A62FEF7A3FC4846DC
:1036200000F0B4F882463046474E01F0D7FF4846D6
:10363000FFF762FF454B05FB04F2454C19789200F9
:103640003568A84740462568CBF8008005F03CFD6A
:103650002060404607F00CFE002225601046CBF8A3
:10366000002001F0BBFF504600F090F84046FEF706
:1036700093FC406AB0FA80F35B090137042F22DC27
:103680000BB34046FEF73AFB034605A8B3F900B07A
:10369000B3F90290B3F90440B3F90650CBEB04043C
:1036A0000593C9EB05055E6A0134FEF75BFC013545
:1036B000002DC8BF002CD4BF0123002388DC0137B4
:1036C0000020042FDCDD08B100F0BCF807B0BDE835
:1036D000F08F3046FEF712FB034606A8B3F90650FA
:1036E00040F8083DB3F90440FEF73CFCA94501D180
:1036F000A345BBD04A465946304600F071F8B5E7BD
:1037000005A8FEF72FFC404607F0B2FD33464846B9
:10371000B3E703F0A7FF064603F0EAFFB44202DC7A
:1037200085427FF75CAFB442A8BF34468542A8BF4C
:103730000546214640462A4606F0D4FD4FE700BF25
:10374000B0CD010820030208A001002050C90120CB
:1037500098C9012028D7012010B50C4682B060B16D
:10376000FEF7CCFAB0F90A300190A342C8BF4481F9
:1037700001A8FEF7F7FB02B010BD034B1B68186EE3
:103780000028EDD102B010BDF8000020F0B5134FB5
:1037900083B03B681E6ED8B10446B6B905F08EF909
:1037A0002046FEF7ABFA02AD3B6845F8040D1C66F7
:1037B0000068FEF79DFF2846FEF7D4FB04F0A0FB4F
:1037C00004F09AFA304603B0F0BD01F0D1FBE5E712
:1037D00001F0CEFB304603B0F0BD00BFF800002082
:1037E00030B50C4683B028B9154B1B68186E08B964
:1037F00003B030BD15B224B2FEF780FAC5808480D4
:10380000009004F079FA009B586920B96846FEF7E9
:10381000A9FB03B030BDFEF771FA009B0190B3F92C
:103820000820B3F90A308280C38013B10AB1048042
:10383000458001A8FEF796FB6846FEF793FBE8E794
:10384000F800002000B9704770B584B00446FEF758
:1038500055FA014601A8B1F90460B1F906500A8988
:103860004B89324401912B44ADF80860013AADF820
:103870000A50013BADF80C20ADF80E30FEF772FB9C
:1038800002A807F0DFF840B12A463146204600F092
:10389000A3F906F069FF0028F6D104B070BD00BF9F
:1038A00000B9704770B584B00C4615460646FEF761
:1038B00025FA154A0346019094421FD01A8901A89F
:1038C0005B89013AADF80840013BADF80A5022444B
:1038D0002B44ADF80C20ADF80E30FEF743FB02A8E8
:1038E00007F0B0F840B12A462146304600F074F99E
:1038F00006F03AFF0028F6D104B070BDB0F90440DC
:10390000B0F90650DAE700BF01F0FFFF2DE9F04FF4
:10391000DFF82C8187B082468B46D8F80000174626
:103920001E461299437C00221198FEF719FE0028CA
:103930004DD0036905469B68984704F001FC00FBE5
:1039400007F48146FEF75EFA109B073413F001037B
:103950004FEAD4043FD0002E2CDD002B42D004FBD4
:1039600006F01830FDF754FF024668B300230293B7
:1039700010460392FEF7C2F9029A034606A8A3F87E
:1039800004A0A3F806B01F815E81DC60C3F810902C
:103990005A6140F8043D1D60FEF7E4FA129AD8F827
:1039A00000302A61039A1046AA605B7CAB6107B0C5
:1039B000BDE8F08F002C34D1204676428642A8BF65
:1039C000064693B3002ECADC2846FEF78FFE002081
:1039D00007B0BDE8F08F0028B8BF0330801000EBBF
:1039E0004000B8E700933A4633465946504601F046
:1039F00007FD029004FB06F01830FDF70DFF0246AC
:103A00000028B5D128460392FEF770FE029B002BDA
:103A1000DDD01846FDF740FF039A104607B0BDE819
:103A2000F08F1838B0FBF4F0C7E700933A463346FE
:103A30005946504601F0E4FC002E0290DADCC3E760
:103A4000F80000202DE9F04FDFF880918BB05D4B3E
:103A5000D9F800C0DFF878819CF811E053F82E40C7
:103A6000D8F80030D4F810E0002B00F0A6801646FD
:103A7000DCF8602007460D46002A75D0E26812681F
:103A8000072A78D0504AC2EB0E02B2FA82F25209EB
:103A9000002A70D03846FEF731F903460AA8B3F978
:103AA00008B040F8083DB3F90AA00BEB0504DB6849
:103AB000013C0593FEF756FAD9F80010B1F90C3025
:103AC000B1F90800E41A002CCCBFC4EB0B045C462F
:103AD00085425EDB0023002C43DD0AEB0600B1F9D2
:103AE0000EE00138CEEB00000028C8BFC0EB0A0A88
:103AF000B1F90A00B04247DC0021BAF1000F079388
:103B000006912EDD3846FFF7F7FC079BD9F8002019
:103B1000069901FB0B31136E00EB8107002B3CD0A3
:103B20001846FEF7EBF802460AA8B2F90410B2F9FB
:103B300006306D1A40F8042DF31AA900D56801F17A
:103B4000180605FB03661644FEF70CFA4EB1059BFA
:103B5000224600953946019330465346D8F8004036
:103B6000A0470BB0BDE8F08FE2681268B2FA82F2AB
:103B70005209002A8ED173463246294638460EF045
:103B800069FE0BB0BDE8F08F811B0646C1EB0A0A47
:103B9000B3E7431B0546E41A9DE7507C4FEA8B02CE
:103BA000DFF830E03B4602922946CDF804A03246C9
:103BB0000094DEF80040A047D3E773460EF04AFEBB
:103BC000CFE700BF78CA0120B0CD0108F80000207F
:103BD00084CA012080CA01202DE9F04182B00F463D
:103BE00090460646FEF78AF8034602AC16211D6889
:103BF000002044F8043DEB685B6A98470546204680
:103C0000FEF7B0F91DB1424639463046A84702B02A
:103C1000BDE8F08100B970472DE9F04FA3B08B46A5
:103C200092460446FEF76AF822AB456943F81C0D3C
:103C30001846FEF797F92046FFF744FC082881460E
:103C400040DD002D3ED12046FEF758F822AA03465B
:103C5000B0F9081042F8100D10460D92B3F90A2081
:103C60000A9109921968DA680E690B930E92FEF7B1
:103C700079F9924892490068D6F80480407C51F85E
:103C800020100D692B680C93FFF79AF808280B9BFE
:103C900014D910288BBF20221022042702270B9250
:103CA000AE4200F0F882B9F1200F00F0B381B9F113
:103CB000100F00F0458123B0BDE8F08F08220127E6
:103CC0000B92EDE70021012320467C4E20910DF15F
:103CD00088080B9121930A93FEF710F80746306885
:103CE0003A68FB68B7F908101269139314913B699D
:103CF000B7F90A10407C0993169148F8147D55686D
:103D0000D7F81490FFF75CF832680E90507CFFF7FC
:103D1000EDF807464046FEF725F9099A0A9B082A5E
:103D20000B9940F29D80102A13460A918CBF042300
:103D300002230C93BD4200F0C1813368587CFFF729
:103D4000CDF8149B06469800FDF762FD1090002800
:103D5000B1D02046FFF7D0FB0446B9F1000F00F0C8
:103D600088804846FDF7CAFF169B1E90002B40F343
:103D7000A1810023DDF83880CDF834A00B93139B8C
:103D8000CDF848B0E31815931FAB19460F9383681D
:103D900000225B691F920B9A9847159B139A044661
:103DA0009B1A0E93149B834200F0F680099B012B13
:103DB00000F08880002842D01CAB11931098FDF7CA
:103DC0009DFF099B07461C90082B1F9A65D90C9BE9
:103DD000A3460E99824602FB031939F8020BA84745
:103DE000B047BBF1010B4AF8040BF6D1B8F11F0F35
:103DF00004D838464246214601F05AFC0A9901236C
:103E00001F982246059112991C9F08440021019396
:103E100000930391CDF808800D99049703F0D0F832
:103E20001198FEF79FF81F9B1E981C440B9A8368FD
:103E30000F991F945B69984704460028BED1159AD4
:103E400013990B9B0A44013315920D9A0B9301327F
:103E50000D92169A9A4200F02D811E980F9996E7BE
:103E6000012A03D120AB0C920A9363E70C930A91C9
:103E700060E701250A9B139A099905930490584617
:103E8000039202915146169B149A0195009503F0F6
:103E900097F81098FDF700FD0DE70C9BA2460E99D0
:103EA000814602FB031B1BF8010BA847B047BAF180
:103EB000010A49F8040BF6D198E700BFF80000208A
:103EC00078CA01200028BAD0CDF8608019960B9FDF
:103ED0000A9EDDF83880DDF83490DDF848A0DDF882
:103EE0003CB017951192DDF87CE02246119D01232C
:103EF0000EF0070049460395012506900AEB0E00D7
:103F0000BEF1000F05960295B8BF0EF1070E0195A0
:103F1000009508EBEE0ECDF810E004F003F81F9BBF
:103F20001E983A461C44594683681F945B6998471B
:103F300004460028D7D1179DDDF86080199E7EE7E2
:103F40000A9B03FB07F0FDF763FC109000283FF489
:103F5000B2AEFDF7D3FE20902046FDF7CFFE00F174
:103F600018031E900E932B69002B00F0A681736935
:103F7000002B00F0A281B0F908008000FDF748FC9A
:103F80001190002840F0BA811F900D98FDF7EAFFCC
:103F900020A8FDF7E7FF7CE71098FDF7AFFE099B2F
:103FA00081461C90082B149F0446DDF838A028D9C0
:103FB0003AF8020BA847B047013F44F8040BF7D189
:103FC000B8F11F0F04D848464246149901F070FB1F
:103FD00022AB12980D991A460A9B0593002303936E
:103FE000012352F818EDCDF8088017460193149A72
:103FF0000093CDF810E002F0E3FF3846FDF7B2FF82
:104000001DE71AF8010BA847B047013F44F8040B1D
:10401000F7D1D5E70A9B07FB03F0FDF7F9FB0E90FC
:1040200000283FF448AEFDF769FE20902046FDF7DA
:1040300065FE1E902C6900F11808002C00F0EB8042
:104040000A9A5C4601260A954FEA82099346CDF802
:104050003090DDF8249017E0042F21D0012F15D0E7
:104060000B9B0020209D51460293012305905A4648
:104070000390204601969A440096049502F0A0FF12
:10408000B9F1010900F0E880022FE5D10C9D40460E
:104090003B465A46A8440A9D20992D69A847DFE768
:1040A0000C9B40460A9D5A46984420993B462D69F0
:1040B000A847D5E71EA8FDF755FFEAE62046FFF71B
:1040C0001BFA8046B9F1000F00F0D4804846FDF796
:1040D00015FE169B1E90002B40F3C88000261FABD8
:1040E000CDF834A00125B146DA461F468368324632
:1040F000CDF87C9039465B699847149B044683420F
:1041000031D0099B012B57D020B30D9B0B9603EBAD
:10411000060B1F9801230C990A9A01FB008E099E39
:10412000139950440592224603915946CDF810E068
:1041300002960195009502F043FF1F9B1E98394699
:104140001C440B9A83681F945B69984704460028B7
:10415000DFD10B9E139B01369844169BB34240F36C
:1041600085801E98C2E7CDF82C80B346984600E0C3
:10417000A3461E980BF101043946836822465B6909
:1041800098478045F4D00A9AC6EB0B03DDF82C80E3
:104190005046059201330D9ACDF810809119139E67
:1041A000099A039602920195149A06FB03880095DA
:1041B000264602F005FFD0E70028CBD00D9B0B96DA
:1041C00003EB060BDDF87CE022460A9E01230EF08D
:1041D00007005946059606900AEB0E00BEF1000F47
:1041E000139E0295B8BF0EF1070E0396019508EBDA
:1041F000EE0E0095CDF810E003F094FE1F9B1E9884
:1042000039461C440B9A83681F945B69984704469F
:104210000028D7D19DE7A1460125099E0123022F41
:1042200051460A9A58460AEB030E00F0A981042F62
:1042300000F07D819F4200F052810B9CF246CDF848
:1042400014900294209CCDF80C9001950095049454
:1042500002F0B6FE013EE1D10D98FDF783FE20A8E5
:10426000FDF780FE0E98FDF717FB24E51EA8FDF76D
:1042700079FE20E501240A9B139A0999059304907D
:104280005846039202915146169B149A0194009449
:1042900002F096FE0FE50E9A0124183300250392D2
:1042A000514604935846099BCDF808900A9A059503
:1042B0000194009402F084FEFDE40125DDF82890CD
:1042C000099E0123022F51464A4658460AEB030E27
:1042D00000F0D480042F00F0A0809F426DD0002415
:1042E00001950095F246059403940B9C0294209C42
:1042F000049402F065FE013EE3D146E6FDF7FEFCC4
:104300001F9000283FF441AE0A9A0124CDF828B04E
:104310004FEA420990460C95CDF83C90B146DDF845
:1043200038B017E0042F2ED0012F28D00B9B00208F
:10433000209D5146029301230590424603909A44E2
:10434000019400940A98049502F03AFE099B013BFF
:1043500009932BD0022FE5D1209B1E463B464246B7
:104360001F995846D9F81450A8470F9D31463B462F
:10437000AB440C9D42461F982D69A847D6E7209B69
:104380001E460223EBE7209B42460F9E58461D46E1
:104390001F990223B344D9F81460B04729460C9DF5
:1043A0003B4642461F982D69A847BFE71FA8FDF767
:1043B000D9FD1198FDF770FAE7E50A9B4446099686
:1043C0005D000C9E0C95209DDDF83880DDF828906E
:1043D00038F8020BA047B047B9F1010905F8010B05
:1043E000F6D10E9D01230B985146AE460C9D0290CE
:1043F0005846AE44209DCDF814909A440A9ACDF8C0
:104400000C90019700970495CDF838E002F0D8FDA4
:10441000099B013B0993D6D1B7E50A9B0125099673
:1044200044465E000C9F0C96209EDDF83880DDF837
:10443000289038F8020BA047B847B9F1010946F8AF
:10444000040BF6D10E9E01230B985146B6460C9EE6
:1044500002905846B644209ECDF814909A440A9A89
:10446000CDF80C90019500950496CDF838E002F057
:10447000A7FD099B013B0993D6D186E50A9B01253F
:10448000099644465E000C9F0C96209EDDF838800D
:10449000DDF8289038F8020BA047B847B9F10109B8
:1044A00026F8020BF6D10E9E01230B985146B64614
:1044B0000C9E02905846B644209ECDF814909A4423
:1044C0000A9ACDF80C90019500950496CDF838E045
:1044D00002F076FD099B013B0993D6D155E5950085
:1044E0000C9C09960C95209D4646DDF8289056F8C0
:1044F000040BA047B9F1010905F8010BF7D10B989E
:104500000123209E514602905846CDF814909A44BB
:104510000A9ACDF80C900197009704960C9D02F032
:104520004FFD099BA844013B0993DCD194E6099611
:10453000012596000C9C0C96209E4746DDF828909D
:1045400057F8040BA047B9F1010946F8040BF7D15D
:104550000B980123209F514602905846CDF81490A5
:104560009A440A9ACDF80C900195009504970C9EF8
:1045700002F026FD099BB044013B0993DCD16BE6B8
:104580000996012596000C9C0C96209E4746DDF866
:10459000289057F8040BA047B9F1010926F8020B3F
:1045A000F7D10B980123209F514602905846CDF831
:1045B00014909A440A9ACDF80C90019500950497AE
:1045C0000C9E02F0FDFC099BB044013B0993DCD139
:1045D00042E600BF094B1A6A002A18BF002003EB0D
:1045E000800210B49469002C04DB4FF0FF3443F8D0
:1045F000201094615DF8044B704700BF60C7012034
:1046000058B311B30AB3B1F90030F0B5B2F90050A4
:10461000B2F902E0B1F902409D42B2F90470B2F978
:104620000660A8BF1D46B1F904207445B1F90630F3
:10463000A8BF7446BA420580B8BF3A46B342448028
:10464000B8BF33468280C380F0BD002908BF114641
:104650000A684B68026043607047704778B189B25E
:10466000C38892B270B40688448885880E44144486
:104670001A442944068044808180C28070BC7047FF
:1046800070B4124D04462B686A6893420FD0104EE6
:10469000B34293E8070014BF0C333C3B84E80700A7
:1046A0002B60207A003070BC18BF01207047094A87
:1046B000934204D013E9070084E80700F1E73C3394
:1046C00093E8070084E80700EBE700BFFC00002048
:1046D000C8C701208CC70120034B09CBC01AB0FA10
:1046E00080F04009704700BFFC000020F0B53C4E50
:1046F00085B00446336D002B55D03A4A01AD3A4996
:10470000F36C116094E8070085E807000BB12846B8
:104710009847364F3C687B689C4232D0B342304A5F
:1047200032D09DF80C00A3F10C0113F804EC8C4678
:10473000864535D18C4233D091423BD002F13C0EBC
:1047400011F8042C82423DD0734595E8070083E8B8
:1047500007000BD00C339C427B600BD0B36C0BB1C9
:104760002846984700F074FC05B0F0BD1C4B9C42F5
:104770007B60F3D11E4B9C4214BF0C343C3C3C602C
:10478000ECE7DFF86CE0DFE79DF80C0096F84420DA
:1047900082421DD106F13C0E744519D07146CFE717
:1047A00002F13C0ED0E7134B304640F8503F02F088
:1047B00005F8A2E791F8442001F13C0E8242C3D1F2
:1047C0006346C1E7B34208D0A3F10C0C6346BBE7D4
:1047D00095E8070086E80700BCE7054BB4E700BF93
:1047E0008CC7012034D7012031910008FC00002043
:1047F000C8C701208D100108094A136851688B420F
:104800000CD010B5074CA34293E8030014BF083343
:10481000503B136005F008FB012010BD00207047DD
:1048200088010020FCC80120F0B5164C059F2568C2
:10483000069CB5F908E0B5F90C607045B8BF704644
:10484000B242A8BF324690421ADCB5F90A60B5F907
:104850000E50B142B8BF3146AB42A8BF2B468B4287
:1048600003DAF0BD25682DB12C46E5682D6835F0DA
:104870000405F7D106940597BDE8F04003F0DEB8D3
:10488000F0BD00BFF8000020B0F90220B1F90630F9
:104890009A4214DCB1F90220B0F906309A420EDCDB
:1048A000B0F90020B1F904309A4208DCB0F90400F4
:1048B000B1F900308342CCBF0020012070470020B6
:1048C000704700BF08B5034B014674221868FBF718
:1048D000DDFC08BDF800002000B9704710B582B0BB
:1048E0000446FDF70BFA038A00909B0704D4684640
:1048F000FDF738FB02B010BD20460DF09FFE2046AC
:10490000FDF7FCF902AC0346006844F8043DFDF7EE
:104910003DFF2046FDF726FB009A6846138A23F0E8
:1049200002031382FDF71EFB02B010BD00B97047F1
:104930002DE9F04FABB00D4616461C921B91FDF7CA
:10494000DDF9B0F9043004689D422790119400F01D
:1049500058810020FEF71AFFAD4B119A1B6892692F
:10496000597C1F900846279D19928242209118BFBA
:104970005A74B5F90430B5F9062019460793B5F90C
:104980000830104612925B1AB5F90A201C46121A1A
:1049900008931646139222462B8A01329B071A92DD
:1049A000324602F101021D9240F10E811B9B6A69A1
:1049B0005B1A0392002B1C9A1493A2EB000440F3A1
:1049C000A48109934FF0010B0023DDF86890109348
:1049D000002C40F3A5811D9B4FF0000A17941693FD
:1049E00001231593119E8B4BB0691B56012B40F38D
:1049F00086810023ADF8A230ADF8A03002F04EFE63
:104A0000431EB069ADF8A43002F08EFE0138ADF857
:104A1000A60027985A4600F1140107F0DFFC219008
:104A2000002800F0D08027985A4600F1140107F0C2
:104A3000D5FC2390002800F0C180279BD86800286F
:104A400040F07E81169A524500F0B4801A9B10996E
:104A50009A00CDF810900AFB0313C4EB0A01D94663
:104A6000229005EB83030D9115990E93129B01FB88
:104A700002F223441E9218934FEA8B03D346059308
:104A8000179B139A5B45109CCCBF002301235A450A
:104A9000B8BF00230B93129B5B440F93189B5B449E
:104AA0000A93049B1A46A24275D01498079BC0EB48
:104AB000040A0E9D03440C935A4621460398FEF7C0
:104AC0002BF9030E06465FD0099B089AA34207996B
:104AD000CCBF00230123A2420C9A214402EB04071D
:104AE000BDF9A020B8BF00230691BA420B9903EA92
:104AF00001030DDCBDF9A2200A98824208DCBDF951
:104B0000A420BA4204DBBDF9A620824280F2A6802E
:104B10004FF00008002B00F08380BAF1000F09DB92
:104B20000D9B002B06DB1A4651460398FEF7F4F85E
:104B3000030E75D0BDF9A0309F4223DBBDF9A23032
:104B40000A9883421EDCBDF9A430BB421ADBBDF9D2
:104B5000A630834216DB30462F4B229EFF221B6875
:104B600046F07F419847199A2C4B53F822301B6925
:104B70001B689847219B02460A9900933846119B6F
:104B80000DF000FAC5F82080059B4C44CA441D4432
:104B9000049BA34290D10E9B1E99159A0B449344FB
:104BA0000E930D9B1946169B11445B450D917FF4A6
:104BB00067AF279B239918680CF0ACFE279B2199BF
:104BC00018680CF0A7FE279D1B991A9B1C980B4494
:104BD000A980421E1D99013BE8800A442B81199B44
:104BE0006A811946209A914202D0094B1B685A7477
:104BF0001F98FEF7CBFD27A8FDF7B4F92BB0BDE851
:104C0000F08FB0F906309E427FF4A3AEF3E700BF09
:104C1000F800002074CA01200401002078CA012095
:104C2000BDF9A030069A934286DCBDF9A2200F9808
:104C3000824281DCBDF9A42006998A42FFF67CAF4E
:104C4000BDF9A62001468242FFF676AF239B2A6A71
:104C500006980093119B0DF095F96BE7DDF89C80A9
:104C6000B8F90420BA422FDCB8F90810B9422BDB9E
:104C7000B8F906E00146864526DCB8F90A00884204
:104C800022DBD8F81400F8B12593BB1A19462293F9
:104C90000A9BCEEB03031A462493FEF73DF8030E5E
:104CA000259B11D0B8F90410B8F90820521A24999C
:104CB00002FB011222990A4408EB8208D8F820204E
:104CC00042F07F4090460FE0119A1068002833D0E0
:104CD000D0F80CE039460A9ADEF814802293C047D7
:104CE000229B804640F07F402493199A9A4B53F8B8
:104CF0002220126952689047249B22900AE7F368A9
:104D0000304628A91B6B984783E60022089B4FF08A
:104D1000FF390992149ACB4610931344089357E62F
:104D2000139900224FF0FF3317920A4616938A46D2
:104D300022441593139255E680464FF07F40D3E707
:104D4000FCF7DCFF169B2690534500F099801A9BD8
:104D500010999A00CDF810900AFB0313C4EB0A01D6
:104D6000D9460D9105EB830312990F934FEA8B03FC
:104D70002144D346059318911599079B01FB02F234
:104D80002292149A13440C93179B139A5B45CCBF41
:104D9000002301235A45109AB8BF00230B93129B9E
:104DA0005B441E93189B5B440A93049B93425AD026
:104DB0001446149A0F9DC2EB040A5A4621460398E2
:104DC000FDF7AAFF0646002846D0099B089AA34291
:104DD0000B99CCBF00230123A242BDF9A020B8BF8C
:104DE00000231F460C9B03EB0408079B0F40424522
:104DF00023440CDCBDF9A2200A98824207DCBDF9ED
:104E0000A420424503DBBDF9A620824257DA0022E6
:104E10000692002F39D0BAF1000F0E9309DB0D9BDB
:104E2000002B06DB1A4651460398FDF775FF0E9BD3
:104E300058B3BDF9A02090450CDBBDF9A2300A990A
:104E40008B4207DCBDF9A430434503DBBDF9A63036
:104E50008B4257DA069B2B62059B4C44CA441D4487
:104E6000049B9C42A9D10F9B2299159A0B44934411
:104E70000F930D9B1946169B11449B450D9183D1B1
:104E800026A8FDF76FF8279B94E6BDF9A0209A426B
:104E9000D1DCBDF9A2101E9FB942CCDCBDF9A41033
:104EA0009942C8DBBDF9A610B942C4DB1846239B62
:104EB0002A6A39460093119B0DF064F8B9E7279AE6
:104EC0000692B2F9042042450DDC0698B0F90810AC
:104ED000414508DBB0F906E00A998E4503DCB0F9DC
:104EE0000A00884218DA119A106800288FD0D0F88A
:104EF0000CE041460E930A9ADEF8143098470E9B58
:104F0000069086E7269A4046119B52F82620219E5D
:104F100000960DF037F89DE72593C2EB0803CEEB22
:104F2000010206990E93486919462492FDF7F4FE92
:104F3000259B0028D7D00698B0F90410B0F90820B6
:104F4000521A249902FB01120E990A4400EB8202C4
:104F5000126A06925DE700BF78CA012008B5034BCC
:104F600074221968FBF792F908BD00BFF800002011
:104F700008B502F073FE02F0C3FFBDE8084003F07D
:104F80002FBC00BF70B50A4D01282A68567C01D994
:104F9000304670BD0446FDF71BFC0028F8D02B6896
:104FA0005C74FFF7E5FF034B30461C6070BD00BF2B
:104FB000F8000020CCD6012002F072BE02F0AABE9A
:104FC00002F0DABE034B02461B68D86902B1DA610F
:104FD000704700BFF800002010B418B111B10346AB
:104FE000002002E0002101200B46034C034A21600F
:104FF00013605DF8044B704780CA012084CA012009
:1050000002F000BF02F064BF084A0B46014670B4CC
:1050100015681A46064C074E6D7C308054F8250002
:10502000054DC4682B80236A70BC1847F800002027
:1050300078CA012062CA012064CA0120034B1B68A0
:10504000B3F92A2058851046704700BFF8000020A9
:10505000024B1B6803B11847704700BF1CC90120F1
:10506000024B1A6802B91860FFF7F2BFA8C8012006
:1050700000B970472DE9F041DFF8B88082B00546ED
:10508000D8F80040A04242D06F461CB919E0FCF7A6
:1050900069FFB4B12046FCF731FE034638469C68F0
:1050A0000093A542F3D12846FCF728FE0346009A58
:1050B00001A8996801939160FCF754FF3846FCF70A
:1050C00051FF2846FCF71AFED8F804400090A5428C
:1050D000184B29D094B101AE02E0FCF743FF6CB14C
:1050E0002046FCF70BFE034630465C680193A54260
:1050F000F3D1009A52685A60FCF734FF3846FCF747
:1051000031FF2846FCF7C8FB02B0BDE8F08102AED3
:10511000FCF7F4FD83686F4646F8040D3046C8F886
:105120000030FCF71FFFCCE7426838465A60FCF7B6
:1051300019FFE6E708C9012010B582B018B90124AB
:10514000204602B010BD0C46FCF7D8FD828902ABA8
:10515000224243F8040D184614BF01240024FCF732
:1051600001FF204602B010BD00B9704730B585B0D0
:105170000546FCF7C3FD0190FDF78AFE04AA52F82C
:105180000C1D8B69034410464B61FCF7EBFE28466F
:10519000FCF7B4FD124B02905C68A54219D084B1B3
:1051A0002046FCF7ABFD034603A85C680393A542C9
:1051B00002D0FCF7D7FEF2E7029A52685A60FCF779
:1051C000D1FE02A8FCF7CEFE28460BF069FC05B024
:1051D00030BD426802A85A60FCF7C4FEF4E700BF85
:1051E00008C9012000B9704710B582B00C46FCF721
:1051F00085FD02AB846143F8040D1846FCF7B2FE4E
:1052000002B010BD0A4A002330B5146883B00360B1
:105210005CB105462046FCF771FD02AB026943F81C
:10522000040D18462A60FCF79DFE204603B030BDF1
:1052300008C90120002370B50B6082B018B904467C
:10524000204602B070BD0D46FCF758FD846801AEE3
:1052500001902CB93046FCF785FE204602B070BDA7
:105260003046FCF77FFE2046FCF748FD03690190BD
:105270002B60EFE7014B1B68DB6818478CCA0120E5
:10528000014B1B681B6818478CCA0120014B1B6827
:105290005B6818478CCA0120014B1B689B68184744
:1052A0008CCA0120F8B5084E0546046833682046CC
:1052B0001B6898473368074620465B689847044454
:1052C00038462C60F8BD00BF8CCA012000292DE9AA
:1052D000F04111DD00240F460646DFF82080254608
:1052E000D8F80030301901355B6898470444A7426C
:1052F000F6DC2846BDE8F0810025FAE78CCA0120DB
:10530000F8B569B105460C460026064F3B682846AD
:105310005B689847013C05440644F7D13046F8BD28
:105320000E46FBE78CCA01202DE9F843089C054690
:1053300089469846A96843462846561C4F68494600
:10534000B847013C3246F5D1BDE8F883F8B5B0F96D
:105350000040B0F904500C1BAC422ADA2344B0F9E7
:105360000250E710FF21013B551B026904F00704BE
:10537000DE4302FB057541FA04F406F00706D7EB9D
:10538000E30205F11405E4B201FA06F600EB050E9E
:10539000F6B20FD0435D013A0EF101071C43002A1B
:1053A000445503DD38461744FAF79AFF3C783443F6
:1053B0003C70F8BD435D34401C434455F8BD00BF0C
:1053C00030B4B0F9024080250369121BB0F90040E7
:1053D00003FB02F3091B143301F0070203EBE101A5
:1053E0001541435C2B4330BC435470470346B0F92E
:1053F0000620002114301B6903FB02F2FAF770BF8C
:105400002DE9F04302F10F04804683B016462411C3
:105410001D460F46640003FB04F01430FCF7FCF952
:10542000814688B1FCF76AFC01230146084A02A8BC
:105430008E8040F8041DCD800C61A1F800804F8063
:105440008A608B81FCF78EFD484603B0BDE8F0838F
:10545000BC030208B0F9063093423BDDB0F90430DA
:10546000F0B40D689D4232DAEE1007695C1E05F05B
:10547000070307FB0262C6EBE4061432845C0132C8
:1054800004FA03F3104413F0FF0308D126B30835E0
:1054900010F8013B013E25F00705002BF6D01C0655
:1054A00034D45B000135DBB21A06FAD55F062A4612
:1054B00004D55B000132DBB25C06FAD402F00703CC
:1054C000072B0CD0561B0D60701CF0BC70470020E1
:1054D000F0BC7047002070473046F0BC7047002E8B
:1054E000F0DD0478471CFF2C0DD1831903E017F879
:1054F000014BFF2C07D1BB4202F10802F7D1E1E7D3
:1055000064000132E4B22306FAD4DBE7FF2BCDD1ED
:10551000EA1DD3E730B583B00546FCF7EFFB034641
:1055200002A89C8940F8043D013C24B29C81FCF710
:1055300019FD14B92846FCF7AFF903B030BD00BF20
:10554000F0B583B0C0B9224C05462369CBB1E06801
:105550001F4E18B91F4B1868F060D8B123681C4F54
:105560002BB3002663681A4FC3B115B1A368184C5A
:105570002BB3304603B0F0BD154C01AD2369002BB1
:10558000E5D1154A2046012340F8142F236101F08C
:1055900015F9DCE702F03CF8F060DFE7F86880001E
:1055A000FCF7EAF90028786008BF0126DDE78000F3
:1055B000FCF7E2F9B0FA80F638607609D2E7E068E5
:1055C0008000FCF7D9F90028A06008BF0126D0E7C9
:1055D000ECC701206CCA0120A5100108094B10B5C9
:1055E0001C7838B902464FF07F401A7001F09AFCDF
:1055F000204610BD012200201A7001F093FC2046C5
:1056000010BD00BF72CA0120002846D02DE9F0412C
:105610001D4614460E46FDF731FC05F00303074610
:10562000012B2AD0022B40D1B6F90030B6F9042064
:10563000D21A0132121A48BF013203EB620805F098
:105640000C05FDF7FBFB042D22D00C2D2AD1B6F959
:105650000210B6F90620521A0132121A48BF01325E
:1056600001EB62027B1E0138A4F800804344104421
:105670006280A380E080BDE8F081B6F9043005F0D7
:105680000C051B1A03F10108FDF7D8FB042DDCD132
:10569000B6F90620121A0132E4E708684B68106078
:1056A00053607047B6F90220DCE7B6F90080C6E720
:1056B000082A10B40EDD102A1CDC00EB4101034661
:1056C00050F8042B23F8022B9942F9D101205DF800
:1056D000044B7047022A11D0042A00F09A80012A54
:1056E0003FD00144034650F8042B03F8012B9942A4
:1056F000F9D1EBE700205DF8044B704700F1100290
:1057000052F8103C01294FEA8313DBB226D052F83D
:105710000C4C02294FEA041404F0300443EA040359
:105720001CD052F8084C03294FEA840404F00C04FE
:1057300043EA040312D052F8044C043902F1100277
:1057400004F0030443EA040300F8013BBED052F81E
:10575000103C01294FEA8313DBB2D8D1037001203A
:10576000B5E700F1200252F8203C01294FEAC313AB
:10577000DBB2F3D052F81C4C02294FEA841404F037
:10578000400443EA0403E9D052F8184C03294FEAD5
:10579000441404F0200443EA0403DFD052F8144C0C
:1057A00004294FEA041404F0100443EA0403D5D09A
:1057B00052F8104C05294FEAC40404F0080443EAE7
:1057C0000403CBD052F80C4C06294FEA840404F0B1
:1057D000040443EA0403C1D052F8084C073902F12B
:1057E00020024FEA440404F0020443EA0403B5D063
:1057F00052F8244C012904F0010443EA040300F8A0
:10580000013B52F8203C4FEAC313DBB2B2D1037024
:10581000A5E700F1080454F8083C01294FEA0313F6
:10582000DBB213D054F8042C023904F1080402F05E
:105830000F0243EA020300F8013B3FF447AF54F87C
:10584000083C01294FEA0313DBB2EBD10370084691
:105850005DF8044B704700BF082A2DE9F0410C4663
:1058600005461F680CDD102A21DC1E69002E00F0A1
:105870009180224629460223B0470120BDE8F081ED
:10588000013A072A10D8DFE802F004510F770F0F12
:105890000F9A00F1200858F8200CB847012C4FEA65
:1058A000C010C6B206D12E700120BDE8F0810020E4
:1058B000BDE8F08158F81C0CB847022C46EA80106D
:1058C000C6B2F0D058F8180CB847032C46EA40107E
:1058D000C6B2E8D058F8140CB847042C46EA0010B9
:1058E000C6B2E0D058F8100CB847052C46EAC00004
:1058F000C6B2D8D058F80C0CB847062C46EA80003F
:10590000C6B2D0D058F8080CB847072C46EA400079
:10591000C6B2C8D058F8040C08F12008B847083CB3
:1059200040EA060005F8010BB5D1BDE700F110080B
:1059300058F8100CB847012C4FEA8010C6B2B2D00C
:1059400058F80C0CB847022C46EA0010C6B2AAD090
:1059500058F8080CB847032C46EA8000C6B2A2D01B
:1059600058F8040C08F11008B847043C40EA060057
:1059700005F8010BDCD197E700F1080858F8080C8E
:10598000B847012C4FEA0010C6B20CD12E70204649
:10599000BDE8F081861E55F8040BB847013C26F897
:1059A000020FF8D180E758F8040C08F10808B8474E
:1059B000023C40EA060005F8010BDFD174E71E69DE
:1059C0003EB12846224601232946B0470120BDE8C2
:1059D000F0816E1E55F8040BB847013C06F8010F24
:1059E000F8D161E7F0B51B4E85B0F36F0BB105B090
:1059F000F0BD194B6F4604AD4FF0010E06F1800467
:105A0000C6F87CE00FCB07C7190C15F8102D27F846
:105A1000023B397004F8012B15F8012F002AF9D147
:105A2000FDF738FA234610F8012B194603F8012B2D
:105A30000278002AF7D14A700DF04EFD12F0BCFB3F
:105A4000064B0748C6F8943005B0BDE8F04000F0BA
:105A5000B5BE00BF78C6012060CE0108491001081C
:105A60000CC701202E4B1B682DE9F041044682B083
:105A70000D4683B1002004F0E5FF48B16E46324682
:105A80002946204606F004FD04F06EFE0028F6D1FB
:105A900002B0BDE8F081DFF88C806B4610686E467E
:105AA000D8F800705168B7F84CC0B7F850E003C39D
:105AB000BDF800706846BDF80410BDF802206744C8
:105AC000BDF8063061447244ADF800707344ADF81F
:105AD0000410ADF80220ADF8063004F0B3FF60B951
