:020000040800F2
:10000000607F0020E1010008EB910108F57B010809
:10001000E9910108052A01087BA9010800000000F8
:100020000000000000000000000000001F9D01080B
:10003000252B010800000000F9910108219D01080D
:10004000FB010008FB010008FB010008FB010008A0
:10005000FB010008FB010008FB010008FB01000890
:10006000FB010008FB010008FB010008FB01000880
:10007000FB010008FB010008FB010008FB01000870
:10008000FB010008FB010008FB010008FB01000860
:10009000FB010008FB010008FB010008FB01000850
:1000A000FB010008FB010008FB010008FB01000840
:1000B000FB010008FB010008FB010008FB01000830
:1000C000FB010008FB010008FB010008FB01000820
:1000D000FB010008FB010008FB010008FB01000810
:1000E000FB010008FB010008FB010008FB01000800
:1000F000FB010008FB010008FB010008FB010008F0
:10010000FB010008FB010008FB010008FB010008DF
:10011000FB010008FB010008619E01086D9E0108BB
:10012000FB010008FB010008FB010008FB010008BF
:10013000FB010008FB010008FB010008FB010008AF
:10014000FB010008FB010008FB010008ED9101081C
:10015000FB010008FB010008FB010008FB0100088F
:10016000FB010008FB010008FB010008FB0100087F
:10017000FB010008FB010008FB0100080000000073
:10018000FB010008FB010008FB010008FB0100085F
:10019000FB010008FB010008FB010008FB0100084F
:1001A00051850108FB010008E52A0108FB01000850
:1001B000FB010008FB010008FB010008FB0100082F
:1001C000FB010008FB010008DFF810D000F0C4F8C4
:1001D0000048004759C70108AFF30080607F002046
:1001E0000648804706480047FEE7FEE7FEE7FEE7D1
:1001F000FEE7FEE7FEE7FEE7FEE7FEE70D9E0108ED
:10020000C90100082DE9F05F0546002092469B4693
:1002100088460646814640241BE02846414647461C
:10022000224600F088F853465A46C01A914110D32E
:1002300011461846224600F06FF82D1A67EB0108A8
:100240004F4622460120002100F066F817EB000916
:100250004E41201EA4F10104DFDC484631462A4607
:100260004346BDE8F09F10B5441A0346944209D2B4
:100270008418114403E011F8013D04F8013D521EB9
:10028000F9D210BD40EA0104A40703D009E010C967
:10029000121F10C3042AFAD203E011F8014B03F82D
:1002A000014B521EF9D210BDD2B201E000F8012B71
:1002B000491EFBD270470022F6E710B513460A46E6
:1002C00004461946FFF7F0FF204610BD421C10F807
:1002D000011B0029FBD1801A7047034611F8012B3E
:1002E00000F8012B002AF9D11846704730B50B46AB
:1002F000014600202022012409E021FA02F59D4256
:1003000005D303FA02F5491B04FA02F52844151E29
:10031000A2F10102F1DC30BD202A04DB203A00FA10
:1003200002F1002070479140C2F1200320FA03F34C
:10033000194390407047202A04DB203A21FA02F04A
:100340000021704721FA02F3D040C2F1200291400F
:100350000843194670470000064C074D06E0E06868
:1003600040F0010394E8070098471034AC42F6D3FC
:10037000FFF72EFFCC5B0208EC5B020870B58C180F
:1003800010F8015B15F0070301D110F8013B2A11A9
:1003900006D110F8012B03E010F8016B01F8016B96
:1003A0005B1EF9D12B0705D40023521E0DD401F892
:1003B000013BFAE710F8013BCB1A921C03E013F85B
:1003C000015B01F8015B521EF9D5A142D8D3002090
:1003D00070BD000070B5456882B0044601462846ED
:1003E00008F09AF968B123680F2B59D00BDD282B40
:1003F00045D0B3F5107F3CD0112B49D0204608F0F2
:10040000C1FD02B070BD0B2B20D00E2BF6D1E368DE
:100410001A6859680D2A53D0202A31D1002928465C
:100420004FF480717DDD08F059FA284601F050FC48
:1004300002AB846A43F8040D184601F08DFDA20753
:10044000DFD52846012109F03DFFDAE7284602AD55
:1004500001F03EFC03466830019301F02BFA55F899
:10046000040D03216C3001F041FA284601F074FDBF
:10047000C4E7324B214628461B689847C1E7E3682A
:10048000002BBBD128464FF4807108F02DF9B5E759
:100490002B4B1B68002BB4D0214628469847B0E769
:1004A000284601F015FC034602A840F8043D5B6EA7
:1004B0001C6801F051FD002CA3D02846A047A0E7FE
:1004C0000029DDDD4FF48071284608F007FA02AC00
:1004D000284601F0FDFB866A44F8040D204601F031
:1004E0003BFDB10703D50121284609F0EBFE4FF48F
:1004F0008071284608F0F8F8284601F0E9FB034629
:1005000020461E8E9C6A019301F026FD304605F0C0
:1005100021F9A3077FF575AF2846022109F0D2FE25
:100520006FE708F0E1F8284601F0D2FB034602A885
:100530009C6A1E8E40F8043DE6E700BFD000002014
:10054000087100202DE9F043044687B0304F0026A3
:100550000091A569B0F90C104C35B0F90A001944A6
:10056000B4F910301044B4F90E20039502970196A7
:10057000B4F9085008F01AFC804618B9404607B094
:10058000BDE8F083234F0DF1180901F0A1FB2946C6
:10059000102205903E1D08F09DFA59F804ED0FCE8B
:1005A0000EF134050FC50FCE0FC596E80F0085E894
:1005B0000F007B6B4846CEF8643001F0CDFC7B6BBE
:1005C00040465B6898474046656801F081FB0346FA
:1005D00004A89C6E0493059401F0BEFC294648468D
:1005E00006F086FC0028C9D0059B9C4209D04046F5
:1005F00001F06EFB059A034604A89A66049301F085
:10060000ABFC404609F08CFB404607B0BDE8F083E8
:10061000D5030008D0000020974A816843682DE97F
:10062000F041044688B052F82160122B40D8DFE830
:1006300003F0B03F3F3F3F0A973F3F3F3F3F3F3FC1
:100640003F3F3F3F4300F569002D40F0B580371F25
:1006500057F8040F05F02EF804F1140120690EC9B3
:1006600028445B1B521B2944013502F0E5FE022D94
:10067000EED162693169E3690191911CF768134415
:100680002069A2695B1028440097521B02F0DEFD2E
:10069000E1696269B0698B1E1144A2690190491039
:1006A00020697669521B01312844009602F0CEFD84
:1006B000002008B0BDE8F081006801F009FB876EFA
:1006C0000490002F00F0D080A368B0F95C80002B6C
:1006D00000F0C880032B14BF0023022300EB830328
:1006E000406D08AC1D6C04F0E9FF284604F0E2FF01
:1006F00006A802F0CFFFB28BBDF8181006A8BDF80F
:100700001C301144BDF81A509A1ABDF81E30ADF8CD
:100710001810023554F8101D023BADF81C20B1F939
:100720006020B1F95E10ADF81E30ADF81A5004F03B
:1007300029FB204608AC01F00FFC022004F0F8FF72
:10074000384601F0C5FA06A9424644F80C0D02F0FD
:100750008DFC204601F000FC002008B0BDE8F081CF
:10076000006801F0B5FA049020680AF0B3FFB8B948
:10077000049B5D6F05B9DD6E04A801F0EDFB00235D
:10078000284621681A4602F0B5FB002008B0BDE8F3
:10079000F081006809F0E2FF002008B0BDE8F081B8
:1007A000A368002B64D1049A136F002B14BF6C2331
:1007B000682313445D68DFE7B268B046C369002769
:1007C000039271688269029158F804090095616981
:1007D0000190206905F02AFF58F8040F04F06AFF21
:1007E000F369A26921696069D21A1944384402F098
:1007F000FDFDF369A2692169E069D21A1944C01BA1
:1008000002F0F4FDF369E26961692069D21A1944C2
:10081000384402F053FEA069F369E269C01B6169C4
:100820000137D21A194402F049FE022FD4D1B06820
:1008300004F040FFF16922696569901CE3690A448C
:100840005B1A2944013A02F08BFEF169A0696569DF
:10085000E369821E401A5B1A2944013002F080FECF
:10086000F56906E7012339E704A801F075FB1FE7E6
:10087000049BDD6E80E700BF6C5B020800B9704727
:1008800030B583B00D46044601F022FA02AB45654F
:1008900043F8040D184601F05FFB204609F040FACA
:1008A00003B030BD70B582B018B90124204602B043
:1008B00070BD0C46054601F00BFA0346866E68468D
:1008C0008DE8480001F048FB214601A806F010FB26
:1008D00000280CBF01240024E8D0019B9E4209D0CF
:1008E000284601F0F5F9019A034668469A66009396
:1008F00001F032FB284609F013FA204602B070BD21
:100900002DE9F04F446805468BB020460AF0E2FE20
:1009100029460646204607F0FFFE002834D02B6803
:100920000F2B5CD033DC0B2B46D00E2B51D1002E7D
:100930004FD0EB685A68002A4BDDD3F80080A8F14D
:100940000903192B06D80121BF4A01FA03F31A4003
:10095000002A3ED1C4B10AAE204601F0B9F90346DF
:10096000876D46F8180D304693F854A0D3F83490AC
:10097000DD6C01F0F1FA002F00F0DC8041462046EA
:10098000B847204609F0CCF90BB0BDE8F08F40F233
:100990001312934228D0B3F5107F1AD1EB68002BC5
:1009A00000F096801A7A002A4ED0002C41D12046C1
:1009B000012109F087FC0CE020460AAC01F088F91F
:1009C0000346343044F8043D00F074FF204601F043
:1009D000C3FA284608F0D6FA0BB0BDE8F08F2046DF
:1009E000012110F0A7FACFE720460AAE09F0A4FDD6
:1009F000204601F06DF9034646F8040D304693F8A1
:100A0000562082F0040283F8562001F0A5FA002156
:100A1000204610F08FFA204601F05AF903460021D3
:100A2000D0F88400099309F02DFD304601F094FAC6
:100A3000CFE720461E6801F04BF9436B079043B99E
:100A400007A801F089FAB2E72046022109F03AFC32
:100A5000BFE7184601F03CF9079B0690986E04F03A
:100A60002DFE8046204608F099FD0746069802F0C4
:100A70004DFE079A8146136E03F00303012B00F02D
:100A8000E781022B40F0DD813B1A013348BF01337F
:100A9000A6EB6306069806F059F8002E0746C0F24A
:100AA000F881B14519DA204601F012F9436B08903C
:100AB000002B40F0D38108A801F04EFA06A801F0FF
:100AC0004BFA404604F0FAFD204609F029F9B7E751
:100AD0002046032109F0F6FB7BE7024631460698E3
:100AE00005F0B4FF0646204601F0F2F8436B08908B
:100AF000002BE0D0184626EAE67601F0E9F80990E6
:100B000006F024F80899B1F9383091F85470CA6C9D
:100B1000002F18BF013BB342A8BF33469842A8BF7D
:100B20001846824200D0C864002309A80B6501F072
:100B300013FAC0E7A8F10803162B00F2E680DFE8FD
:100B400013F0A000E400E400E400E400E400E400AA
:100B5000E400BC00850076004800E400E400E40006
:100B6000E400E400E400E400E400E40038001700DE
:100B7000204601F0ADF803460AA85D6B40F8083D39
:100B8000DF6C01F0E9F9002D3FF4FBAE284601F0DF
:100B90009FF839460646099004F02CFF054630467A
:100BA000FFF794FB8542C0F0E28109A801F0D4F977
:100BB000E7E6204601F08CF8BAF1010F03460490F5
:100BC00040F08781002280F85420304601F0C4F9BB
:100BD000D7E6B9F1000F3FF4D4AE484601F078F8FB
:100BE00006462946099004F005FF0644304604F005
:100BF000C1FE002305468DF82230ADF82030013DBE
:100C000004F0C4FE0746ADB2284604F0BFFE87429A
:100C1000CBD1294608A804F0A7FE08A93A463046D9
:100C2000FFF721FB0521204609F04CFBBDE72046DC
:100C300001F04EF8436B0890002B40F0A88108A803
:100C400001F08AF99DE600BF13000403B9F1000F1B
:100C50003FF497AE484601F03BF806462946099016
:100C600004F0C8FE0644304604F084FE0023054626
:100C70008DF82230ADF82030013504F087FE0746AC
:100C8000C1E7002D3FF47DAE204601F021F8436B13
:100C90000890002B40F0948108A801F05DF92046EF
:100CA00001F016F8034608A85D6BDF6C089301F0AD
:100CB00053F9002D3FF465AE68E7204601F008F8CF
:100CC000436B0890002BBAD0184601F001F8099048
:100CD00005F03CFF089A6B1EB2F9381023EAE37363
:100CE00092F85460D56C002E18BF01398B42A8BF12
:100CF0000B469842A8BF184600238542136518BFCB
:100D0000D06409A801F028F999E7B8F11F0F7FF71F
:100D100038AEBAF1000F40F00881204600F0D8FF4D
:100D2000B0F9383081460590002B07DD406B002874
:100D300040F06B8107469F4280F263811FFA88F37F
:100D40000DF128091E46019359F8143DDB6C484605
:100D5000039301F001F9304604F018FE8346204663
:100D600000F0B6FF436B0690002B40F08F811E46CB
:100D70000AA80BEB060350F8102D0133568F9E1B6B
:100D800001F0EAF8002E40F37E812046103600F094
:100D90009FFF0346B0F83A800AAFD3F834A0B044BE
:100DA00047F8080D384601F0D7F84146504600F0A4
:100DB000A3FF029000283FF4E4ADBAF1000F00F069
:100DC000548109AE204600F083FF029A034638465C
:100DD0000893A3F83A805A6301F0BEF8204600F069
:100DE00077FF03464846D3F83480059301F0B4F802
:100DF000404600F06DFF80460399099004F0FAFD2B
:100E000080444046FFF762FA4146421C08EB0B0063
:100E1000FFF729FA0199404604F0A6FD304601F09B
:100E20009BF80521204609F04DFA204600F050FFBE
:100E3000436B0890002B40F0F680384601F08CF8A8
:100E40009FE5536ED16A5A1C0B681344F61A21E6CB
:100E5000536E3F1A0133FB1AF61A1BE6184627EAAF
:100E6000E77700F035FF099005F070FE0899B1F9B9
:100E7000383091F85460CA6C002E18BF013BBB4259
:100E8000A8BF3B469842A8BF184682427FF44BAEAB
:100E90004AE6204600F01CFF436B0890002B3FF40D
:100EA0000AAE184600F014FF099005F04FFE0899AD
:100EB000B1F9383091F85460CA6C002E18BF013B6C
:100EC00003EAE3739842A8BF184682427FF42BAE30
:100ED0002AE60122204683F8542000F0F9FE436BF5
:100EE0000890F3B1184625EAE57500F0F1FE099087
:100EF00005F02CFE089AB2F9383092F85470D16C93
:100F0000002F18BF013BAB42A8BF2B469842A8BF99
:100F1000184600238142136518BFD06409A801F068
:100F20001BF808A801F018F84FE60AAF204600F0B9
:100F3000CFFE466B034647F8080D3846D3F84C9071
:100F400001F00AF8002E3FF4E8AE304600F0C0FE93
:100F500049460746099004F04DFD06463846FFF71E
:100F6000B5F986421CD309A800F0F6FFD5E6354452
:100F7000284604F005FD29182846FFF7AEF909A810
:100F800000F0EAFF0521204609F09CF9F9E4184633
:100F900000F09EFE099005F0D9FD089A6B1C9BE6B7
:100FA0003E44304604F0ECFC31183046FFF795F92A
:100FB00009A800F0D1FF0521204609F083F9ACE62D
:100FC000184600F085FE099005F0C0FD089A6B1EDA
:100FD000B2F9381092F8546023EAE373D56C002E0E
:100FE00018BF01398B42A8BF0B469842A8BF1846CC
:100FF00000238542136518BFD06409A800F0ACFF38
:101000004AE605A800F0A8FFBBE40AAE00F060FEC7
:1010100046F8040D05F09AFD0746304600F09CFFA7
:10102000B9F9383087E6184600F052FE099005F00D
:101030008DFD08996B1C91F854E0B1F9385023EA02
:10104000E373CA6CBEF1000F18BF013DAB42A8BFED
:101050002B469842A8BF1846002390420B6518BF44
:10106000C864304600F078FFE7E600F031FE0AAED3
:101070000D4B514646F8040D42461B6898473046D2
:1010800000F06AFF9EE609AE08AFA7E618460AAF71
:1010900000F01EFE47F80C0DFFF718F9064638461B
:1010A00000F05AFF64E600BF5C0100202DE9F04724
:1010B000044688B04D4F4FF480560091A569B0F9B1
:1010C0000C106035B0F90A001944B4F9103010441E
:1010D000B4F90E20039502970196B4F90850D4F89C
:1010E000148007F063FE20B90027384608B0BDE839
:1010F000F087074600F0ECFD29461022059007F026
:10110000E9FC3B4E4FF0010CDDF814E00FCE0EF180
:1011100060050FC50FCED6F8009018F1010618BF74
:101120000126B8F1000F0FC5C5F800908EF855C024
:101130008EF8886055DD0FFA88F808EB0C0500235F
:10114000AEF8388005A808AEAEF83A30CEF83430A4
:1011500000F002FF384600F0BBFD0346428FD3F893
:101160003480154446F8080D304600F0F5FE294657
:10117000404600F0C1FD824678B3B8F1000F1DD0A3
:101180000DF11C09384600F0A3FD034630465D878B
:10119000C3F834A0069300F0DFFE3846648A00F0FE
:1011A00097FD079018B10466384608F0B9FD484627
:1011B00000F0D2FE384608B0BDE8F08700F088FDA8
:1011C0000DF120090B4B414649F8040D2A461B68D6
:1011D0009847484600F0C0FED4E7384607F002FFC3
:1011E00082E709254FF00808A9E700BF01090008B8
:1011F000080100205C01002000B9704770B582B082
:101200000D46044600F064FD02AE034685662046A6
:1012100046F8043D08F084FD304600F09DFE02B023
:1012200070BD00BF00B97047AFF300802DE9F04FEB
:101230008BB00E46074600F04BFD0AAD0246446BEC
:1012400045F8180D2846B2F9388000F085FE002ECA
:1012500000F0A880002C7DD1A1463046444605F020
:1012600075FC8045A8BF04463046214604F0C2FB09
:1012700000F10108384600F02BFD436BC9EB080A6A
:101280000690002B57D19946D144438F06A809F107
:101290000109C3EB090900F05FFEB9F1000F25DD7C
:1012A000384609F1100900F013FD0346428F0DF195
:1012B000280AD3F834B091444AF8080D504600F09B
:1012C0004BFE4946584600F017FD019068B3BBF14C
:1012D000000F54D0384600F0FBFC019B02465046FC
:1012E000A2F83A905363089200F036FE384600F0B8
:1012F000EFFC0346406B049300F0EAFC314B42469E
:10130000314605901B689847059A0023904408F8D9
:10131000013C049BB3F93820DC64A24228D005A824
:1013200000F01AFE284600F017FE384608F0F8FCD8
:101330000BB0BDE8F08F18460DF1280B00F0C8FC8B
:101340004BF80C0DFEF7C2FF8146584600F004FE34
:10135000069899E720460AAC00F0BAFC44F8140D50
:10136000FEF7B4FF00F10109204600F0F5FD74E737
:1013700093F85420012AD2D1013CDC64CFE700F07D
:10138000A7FC0AABDFF840E0594643F8040D4A4693
:10139000DEF800B002930393D847029B184600F092
:1013A000DBFD97E7384600F093FC034634300493A6
:1013B00000F080FA049B28465E87DE6400F0CCFDD6
:1013C000B3E700BF580100205C01002000B970475E
:1013D00030B583B004460D4600F07AFC019018B198
:1013E0000566204608F09CFC01A800F0B5FD03B09E
:1013F00030BD00BF00B9704770B582B006461546D3
:101400000C4600F065FC019008B1022C04D901A83B
:1014100000F0A2FD02B070BD00EB84013046CD6645
:1014200008F07EFCF3E700BF0D4B10B5186806F01E
:10143000F1FD0C4B0C4C186806F026FE23680022C8
:1014400001219A8510465A85197606F04FFE074A03
:101450002368126802B1DA6100229A7610BD00BFDB
:10146000846F0020B4000020B8000020B0000020ED
:10147000014B83E803007047F46E0020014B83E8C2
:1014800003007047FC6E0020014B83E803007047A7
:101490000C6F0020014B83E803007047046F0020AD
:1014A000014B83E803007047146F00202DE9F04FD3
:1014B0005C4E8DB03368DA69B3F92250D469B4F860
:1014C0000CB0834500F29780E1898142C0F093809F
:1014D0002168CBEB000B08914FF0FF310A91BBF173
:1014E000FF3F00F0828092F81880A27CB3F92A10A6
:1014F000B3F9249018FB02F3084607911F4694F8AD
:1015000010A006F0F3FDD6F800E008994346DEF897
:1015100038C05246099007FB0B10DEF81CE00B9711
:10152000012704904946CDF814C0284694F812C00B
:101530000297CDF80CC09EF81BC0DFF8E8B0CDF8DC
:1015400004C09EF81AE0CDF800E005F005FF0A9F00
:101550007B1C25D0079941F0020006F0C7FDDBF89F
:1015600000100B9A43460898D1F838C002FB0700D8
:10157000D1F81CE00127CDF814C00490524694F82D
:1015800012C0494602972846CDF80CC09EF81BC0F1
:10159000CDF804C09EF81AE0CDF800E005F0DCFEBE
:1015A0003368DFF88080DB695A7E1B7E9A4215D94A
:1015B000079B022B12D083F0040006F097FDD8F8A9
:1015C00000302846DB691F7ED97E9A7E5B7E07FB52
:1015D00001910AFB02524B4406F0C6F89DF8240024
:1015E00006F084FD3368B3F92250627C15445D84B3
:1015F0000DB0BDE8F08FA1680029F6D00F88B84281
:10160000F3D3B1F802E08645EFD3C01B49686768A1
:1016100080B2089701EB800731F920B0B7F90210CA
:101620000A915CE7B8000020044B1B68DB69DB69AA
:1016300009B11A7C0A60587C704700BFB8000020CE
:1016400002230B80704700BFC3699A898A4202D87F
:10165000DA898A4211D2986818B10388994201D276
:101660000020704742888A42FAD3C91A436833F887
:101670002100C043C0F3C03070470120704700BF55
:101680002DE9F04F3A4D89B02B68DA69B3F92A9009
:10169000D36943B11A88904202D35988814205D256
:1016A0009B68002BF6D109B0BDE8F08F841AD3F8FF
:1016B0000480484608EBC40696F802B006F016FD12
:1016C0008246286818F834204FF0010EC769D0F818
:1016D00038C0B0F92410B0F922003B7E0790CDF855
:1016E00014C07068CDF80CB00490CDF808E097F8FD
:1016F0001BE00798CDF804E0BF7E009705F02CFEB4
:101700002B68DA69537E177EBB4223D9B9F1020FE9
:1017100007931FD092F81BB001F0C0FF814601F083
:10172000A1FF03F0C7FF124B18F834E01868079BBD
:10173000C169B0F92240CA7EB0F9241020460EFBE0
:1017400002420BFB03130BFB071106F00DF8484692
:1017500003F0B0FF504606F0C9FC2B687178D869D9
:101760005A8C807E00FB01225A8409B0BDE8F08FBC
:10177000B8000020114B1B6870B4DD69EB6943B100
:101780001A88904202D35C88844205D29B68002B61
:10179000F6D1184670BC7047821A5E68AC7E06EBC4
:1017A000C2035B7813FB04F00029F3D016F8323043
:1017B00014FB03F370BC0B60704700BFB80000203F
:1017C00001230B80704700BFC06950B103888B4272
:1017D00002D843888B4203D280680028F6D1704734
:1017E0000120704700B970470AF068BB08B90020B3
:1017F0007047F8B506460AF061FB044638B3154D4C
:101800003246154F0021E8696B6B013003EBC406CB
:10181000E86113F83400013003F8340076683B685F
:1018200006F10800984731686A6B12F83130012BD5
:1018300001D9E86920B9013B204602F83130F8BDF2
:101840000138013BE861204602F83130F8BD002044
:10185000F8BD00BF507200205C01002021F00301A0
:10186000014B83E8030070471C6F002000B97047EC
:1018700070B50A4CC6000546636B33445968486826
:101880000AF06EF96368626B0021606A01331644E6
:101890006360706002F83510656270BD50720020A0
:1018A00028B1034AD36B036003B15860D06370471B
:1018B00050720020F8B50468054694B10A4EE7005E
:1018C000736B3B44596848680AF04AF97368726B55
:1018D0000020716A013317447360796002F83400A4
:1018E000746200232B60F8BD5072002000292ADDAD
:1018F0002DE9F04700258A46041F134FA94603E04F
:10190000AA45C4F800901CD054F8046F0135002E8D
:10191000F6D04FEAC6087B6B4344596848680AF022
:101920001FF97B68796BAA457A6A03F10103884441
:101930007B60C8F8042001F836907E62C4F80090FD
:10194000E2D1BDE8F087704750720020F8B58B4EA9
:10195000044696F82830002B2FD00334356CF26BF8
:1019600024F003040434A54238BF254662B152F87E
:10197000043C14469D4204D114E054F8043C9D42BA
:1019800010D02468002CF8D1F368B46B1C4454F8D0
:10199000041C611A0B68002B68D14B689D426FDDF7
:1019A000002408E023680BB161685960616801B1E7
:1019B0000B60A24256D02046F8BD714B01219A68B7
:1019C00086F8281058680AB982089A605A271022A7
:1019D00020254FF0400E3762802732644FF480722A
:1019E000B5644FF400751968C6F850E04FF4806E86
:1019F000B7654FF4006732664FF48052B5664FF416
:101A00000055A1F11403C6F870E0B7674FF4804E9B
:101A1000C6F880204FF40047C6F888504FF4803253
:101A20004FF400350344C6F890E04FF4802EC6F81A
:101A300098704FF40027C6F8A0200222C6F8A850DC
:101A40000125B1637363C6F8B0E03261F060C6F897
:101A5000B8705D60756275600AF082F80DF08CFAFE
:101A600035637AE723682046F363F8BD00200FF062
:101A700029FD54F8041C611A0B68002B90D18CE7E7
:101A8000581BD6F8B8703D4A041DBB420C4472D2B4
:101A9000D2F8B070BB426CD2D2F8A870BB4266D20A
:101AA000D2F8A070BB4260D2D2F898709F425AD947
:101AB000D2F89070BB4254D2D2F88870BB424ED25A
:101AC000D2F88070BB4248D2926F934243D2376FB4
:101AD0002A4ABB423DD2976EBB4238D2176EBB42F8
:101AE00033D2976DBB422ED2176DBB4229D2976C71
:101AF000BB4224D2126C93420CD2F2687369521B1F
:101B00002B44F260736110B944F8045C53E70AF0A7
:101B100027F8F9E700223768D1F808E0FF1ACB6808
:101B20003760BEF1000F01D0CEF8043013B1C3F816
:101B300000E0E2E706EBC202C2F844E0DDE7012282
:101B4000E9E70222E7E70322E5E70422E3E70522CB
:101B5000E1E70622DFE70722DDE70822DBE70922CB
:101B6000D9E70A22D7E70B22D5E70C22D3E70D22CB
:101B7000D1E70E22CFE70F22CDE700BF5072002041
:101B80001C6F0020F8B54A4C94F82830002B3DD04B
:101B9000D4F8BC30464A3BBBD2F8B43023BBD2F8B1
:101BA000AC300BBBD2F8A430F3B9D2F89C30DBB91F
:101BB000D2F89430C3B9D2F88C30ABB9D2F88430B3
:101BC00093B9D36F83B9536F73B9E36E63B9536E2F
:101BD00053B9D36D43B9536D33B9D36C23B9536C37
:101BE00013B96FF00B00F8BD9B68002BF9D00022F1
:101BF00001E09B6843B159681046914201D90A46F9
:101C000008469B68002BF4D10C38F8BD294B012104
:101C10009A6884F8281058680AB982089A605A2687
:101C20001022202540272662802622644FF48072ED
:101C3000A5644FF40075196827654FF48067A665A1
:101C40004FF4006622664FF48052A5664FF40055AB
:101C5000A1F114032767A6674FF48047C4F88020DA
:101C60004FF40046C4F888504FF480324FF40035EA
:101C70000344C4F890704FF48027C4F898604FF480
:101C80000026C4F8A0200222C4F8A8500125A163B0
:101C900063632261E060C4F8B070C4F8B8605D604E
:101CA0006562656009F05CFF0DF066F925636FE71A
:101CB000507200201C6F002030B1044B5B6B03EBB3
:101CC000C000436858680C38704700BF507200204D
:101CD000084AD169536B013110B4D16103EBC004E0
:101CE00013F83020013203F8302060685DF8044BAF
:101CF000083070475072002009B9084670472DE936
:101D0000F047064608468A460AF0D8F804460028F6
:101D10005AD0002E58D02E4DF700DFF8B8C06B6BAC
:101D2000E969DA1913F8300003EBC40E0231D2F876
:101D300004800130D8F8042003F834000C3ADEF8AF
:101D40000490E96108F1080113F836E0524509F101
:101D500008000EF1010EA8BF524603F836E0DCF889
:101D600000309847D9F800106B6B13F83120012A26
:101D700003D9E86908B10138E861013A03F8312074
:101D8000D8F8001013F83120012A06D9E869DFF8E5
:101D900040E010B10138CEF81C00D819013A03F820
:101DA00031204168486809F0DBFE6B68696B4FF0D1
:101DB000000E6A6A01330F4420466B607A6001F8B6
:101DC00036E06E62BDE8F0872046BDE8F08700BFD0
:101DD0005072002058010020F8B5544C94F8283077
:101DE000002B51D0D4F8BC30504A83BBD2F8B43069
:101DF0006BBBD2F8AC3053BBD2F8A4303BBBD2F8AB
:101E00009C3023BBD2F894300BBBD2F88C30F3B9A2
:101E1000D2F88430DBB9D36FCBB9536FBBB9E36E63
:101E2000ABB9536E9BB9D36D8BB9536D7BB9D36C82
:101E30006BB9536C5BB96FF00B033D49DA1781FB4B
:101E40000313C2EB6313206A00FB03F0F8BD9B6829
:101E5000002BF8D0002201E09B6843B1596810467E
:101E6000914201D90A4608469B68002BF4D10C38F0
:101E7000B0F5800F0346E0D8226A2D4B02FB00F03C
:101E8000A3FB00235809F8BD2A4B01219A6884F866
:101E9000281058680AB982089A605A26102220250C
:101EA00040272662802622644FF48072A5644FF496
:101EB0000075196827654FF48067A6654FF40066C2
:101EC00022664FF48052A5664FF40055A1F1140329
:101ED0002767A6674FF48047C4F880204FF4004678
:101EE000C4F888504FF480324FF400350344C4F8EE
:101EF00090704FF48027C4F898604FF40026C4F81F
:101F0000A0200222C4F8A8500125A16363632261C6
:101F1000E060C4F8B070C4F8B8605D606562656088
:101F200009F01EFE0DF028F825635BE750720020D3
:101F30001F85EB511C6F0020102807D9054B5A68EC
:101F40005208904228BF1046986070471020014BFD
:101F5000986070471C6F002003680B4A30B4044639
:101F600053F8085C506B10F83530012B03D9D16958
:101F700009B10139D1610022013B00F8353010462A
:101F8000226030BC704700BF50720020034B5B6B77
:101F900003EBC00040680830704700BF507200205B
:101FA0002DE9F04FBA4DA5B00E469A462D6824ACE7
:101FB0000DF1700C0DF16C0EE96B1546B54F1AAAB8
:101FC0000B6819A944F8300D21A806930DF15E03A2
:101FD000CDF804C0CDF800E023942197DDF8B8B027
:101FE00000F076FB40B10120A94B069A1B68DB6B21
:101FF0001A6025B0BDE8F08F01F050FBA44A199B90
:10200000116803FB0AF31A9ACC6C02FB0AF2096D01
:1020100034190A9069181FA807940891ADF87E102A
:102020000139ADF87C40B3FBFBF3B2FBFBF2234478
:102030000A44013BADF88220ADF8803008F054FF2F
:1020400000286FD0BBF1000F5B464FF00004B8BF13
:102050000BF101035B10099319E014DB022B12DC76
:102060001B9921A800F05CFC1C981A9C019021A8E7
:102070000094199B089ACDF80CB00799CDF808A0E8
:102080000CF0CEF9044608F0D1FD00284BD01C9B83
:10209000002BE2D1BDF85E30013B1F2BF3D801A22B
:1020A00052F823F0872400088720000887200008C2
:1020B0008724000887200008872000088720000860
:1020C0008724000887200008872000088720000850
:1020D0008720000887200008872000088720000844
:1020E000692300088720000887200008872000084F
:1020F0008720000887200008872000088720000824
:102100004722000887200008872000088720000851
:102110008720000887200008872000088720000803
:102120003121000804460A9803F0C4FA20465BE710
:102130001A9B0022199903FB0AF30C911E9293FB40
:10214000FBF39342109340F33C82013B0B934FF01F
:10215000FF330E930B4643F31A03DDF82480D94670
:102160009E00D0440024C1450AD9D0440134C8455A
:10217000FBD305E000F0BCFB013C002840F0B0813F
:10218000631C1EAA4FF00003314621A8F2D1D944A6
:102190000123C14500F24182D9440133C845FBD235
:1021A0000E9A119302FB03F212921E9A10460E9A97
:1021B000013200F01B82089B0B9A134419460F93BF
:1021C000119B5D4613960646013B099C0C9A0B44F5
:1021D0001593079B0D930023511C02E00133994294
:1021E00025D05444D71AAC42F8D331780133B278B1
:1021F0005D44707806EB8306A54242EA014343EA58
:10220000002000F20E8201225D440132AC42FBD27A
:10221000149205F039FF149A0D98159B02440F99FA
:102220000D92013A05F0A0FA7A1E002FD3D10B9B34
:10223000129A10991344139E8B420B9380F294814F
:10224000002B8EDA90E11A9B0022199903FB0AF306
:102250000C911E9293FBFBF39342109340F3A981E0
:10226000013B0B934FF0FF330E930B4603EB4303FD
:10227000DDF82480D946DB001F335B119E00D0447B
:102280000024C8450ED2D0440134C845FBD309E030
:10229000B8000020C126000800F02AFB013C0028FD
:1022A00040F01E81002C4FF000031EAA314621A8E9
:1022B000F2DAD9440123C14500F2AB81D94401339C
:1022C000C845FBD20E9A119302FB03F212921E9A9A
:1022D00010460E9A013200F08181089B0B9A13443C
:1022E00019460F93119B5D4613960646013B099CC8
:1022F0000C9A0B441593079B0D930023511C01E08E
:10230000994226D05444D71A0133AC42F8D33278DC
:102310005D44B17803EB43037078AC4241EA02427A
:102320001E4442EA0020C0F09C8101225D4401323B
:10233000AC42FBD2149205F0A7FE149A0D98159B9F
:1023400002440F990D92013A05F00EFA7A1E002F01
:10235000D3D10B9B129A139E9B180B9300F104810F
:10236000109A93428BDBFFE01A9B0022199903FB22
:102370000AF30C911E9293FBFBF39342109340F3EC
:102380001081013B0B934FF0FF330E930B461B0163
:10239000DDF82480D9461F335B119E00D044002411
:1023A000C1450AD9D0440134C845FBD305E000F04B
:1023B0009FFA013C002840F09380621C4FF000031C
:1023C0001EAA314621A8F2D1D9440123C845C0F044
:1023D0001C81D9440133C845FBD20E9A119302FBEC
:1023E00003F214920E9A01321E9900F00781089BA5
:1023F0000B9A13440F9324AA119B099C5D46104627
:10240000013B0F9A13440C9A1593079B0D930346B7
:1024100043F81C1D12930023511C02E00133994222
:1024200028D05444D71AAC42F8D312985D44139381
:1024300004F02EFD05F01AFC1D9A139BAC420146D8
:1024400002EB43031D93C0F0F98001225D44013289
:10245000AC42FBD20846139205F016FE139A0D9873
:10246000159B02440F990D92013A05F07DF97A1EF1
:10247000002FD0D10B9B149A9B180B9374D4109AF5
:1024800093428BDB70E01B9921A800F049FA1A9B5C
:102490000022199903FB0AF30C91BDF85E101E92FD
:1024A0000B9193FBFBF8904573DD4FF0FF3308F180
:1024B000FF390D930B46013B1F2B68D8DFE803F073
:1024C0006167675B67676756676767676767671214
:1024D0006767676767676712676767676767671236
:1024E0000124D0E50C9BDF001F377F11BF00099D41
:1024F0005E4655440024AE4209D955440134B542E4
:10250000FBD304E000F0F4F9013C0028E8D1611CA1
:102510004FF000031EAA394621A8F3D15E44AE4213
:1025200000F2998001235E440133AE42FBD90D9A3B
:10253000194602FB03FE01321E984AD0089B03EBAA
:1025400009020B9B0124F14402910493CDF804B0DD
:102550000C9BCDF800A0079903940CF0C3FBC14578
:1025600002DAB9F1000FC4DA00248CE50C9BDF1C01
:1025700027F00307BBE70C9B9F001F377F11BF00AD
:10258000B5E70C9B03F11F077F11BF00AFE70027E2
:10259000ADE7A5D00123C8F1000891460D930B4685
:1025A00089E79DD05B420B92109301230E930B465B
:1025B000EDE695D05B420B92109301230E930B46F0
:1025C00054E68DD05B420B92109301230E930B4681
:1025D000C1E5089A4A44D31A5A1CB2E70B99089AE3
:1025E0000A44D31A01330F9319467BE60B99089AD4
:1025F0000A44D31A01330F931946E1E5089A0B9860
:102600000244D31A01330F93F5E60E9A11931492F4
:10261000E9E60E9A1193129259E60E9A11931292CC
:10262000C3E505F031FD119B012B27D10F990D98C2
:1026300005F040F80D9B01330D93F5E505F024FD01
:10264000119B012B1CD10F990D9805F033F80D9BB0
:1026500001330D930BE70121DDF834E00B467246A0
:1026600069E705F011FD119B012B0BD10F990D9816
:1026700005F020F80D9B01330D9367E60122CBE5B1
:102680000122ECE6012259E600B583B000F1120305
:1026900002A840F8043D04F001FC03B05DF804FB1F
:1026A00000B583B000F1160302A840F8043D04F021
:1026B000F5FB0028B8BF404203B05DF804FB00BF43
:1026C00010B40468104623445DF8044B0B60704757
:1026D0002DE9F043044683B00020894690461E460B
:1026E0006060034625686946A0683622A8473628F8
:1026F00003D0012003B0BDE8F08363686846363339
:10270000636004F0C5FB009B054668460C330093EC
:1027100004F0C4FB0746684604F0C0FBC9F800009B
:10272000684604F0BBFB009BC8F800006846023313
:10273000009304F0ADFB3080684604F0AFFB009BD3
:102740000B9A0C3310606846009304F0A7FB3388A3
:10275000013B1F2BCDD801A252F823F027280008F7
:10276000F3260008F32600081F280008F3260008B7
:10277000F3260008F3260008DD270008F3260008EA
:10278000F3260008F3260008F3260008F3260008C5
:10279000F3260008F32600082F280008F326000877
:1027A000F3260008F3260008F3260008F3260008A5
:1027B000F3260008F32600082F280008F326000857
:1027C000F3260008F3260008F3260008F326000885
:1027D000F3260008F32600082F2800084FF4807322
:1027E0000A9A136008B10A9B18600B9B1B68032BA5
:1027F00021D060682838384460600A9B1B68B3F5B4
:10280000807F3FF776AF44F642539D427FF471AF2D
:102810000B9B1868032894BF002001206AE710234F
:102820000A9A1360DEE702230A9A1360DAE70023AC
:102830000A9A1360D9E726681022636801A9A06884
:10284000B047102805D06368A3F1380038446060B1
:10285000D3E7636801A8254E1033636004F01EFBC4
:10286000306001A804F01AFB706001A804F016FBA8
:1028700000223368F260DA07B06007D401225B08F7
:102880001146013213F0010FF9D0F16001225B080B
:102890009646013213F00101F9D17368C6F818E0C9
:1028A000DA07316107D401225B081146013213F0C7
:1028B000010FF9D0316101225B089646013213F015
:1028C0000101F9D1C307C6F81CE0716106D40123E8
:1028D00040081A460133C107FAD572610123400846
:1028E0001A460133C107FAD43262ACE7286F0020E0
:1028F00070B504460D464BB94368114626682A4612
:10290000A068B047854205D0012070BD00210B466C
:102910004160F2E7636800201D44656070BD00BF40
:1029200000292DDD2DE9F0410F4682B00446002537
:10293000DFF8508013E06368019A0433D8F8006030
:102940006360537811781B02907843EA014318437F
:1029500004F0BAFC46F825000135AF420CD0042241
:10296000266863680DEB0201A068B0470428E2D036
:10297000012002B0BDE8F081002002B0BDE8F08186
:1029800000207047587700202DE9F0410646104698
:102990001446884600F08AFEC8B9A700184D3B19B6
:1029A00005EB8303DA68B24204D11B69434501D1C8
:1029B000BDE8F0813B1905EB83035869B0B93C448D
:1029C00005EB8404E660C4F81080BDE8F0810C4B90
:1029D00004EB840403EB840463689A685968C2EBCF
:1029E0000802711ABDE8F04102F086BE5B689A6881
:1029F0005968C2EB0802711A02F002FBDFE700BF60
:102A0000C8710020C3B2CAB29A1A92B210B414B2FA
:102A1000002C1EDBC1F30722C0F307239B1A9BB2D5
:102A20001AB2002A12DB090C02FB02F2C1EB1041C0
:102A300004FB042089B20CB2002C01DA49420CB22A
:102A4000A1B25DF8044B01FB010070475B421AB272
:102A5000E9E7524214B2DDE700212DE9F0410846D2
:102A600082B000F093FE042005F040FB144B154F9C
:102A700043F6FF76DB6880463D463446DA6C6846AE
:102A80001B6D174416441D441C44ADF80070ADF88E
:102A90000460ADF80250ADF8064008F025FA48B1E0
:102AA000234632462946384604F05EFE08F0BEF85A
:102AB0000028F5D1404605F019FB02B0BDE8F081D1
:102AC000AC00002001C0FFFF2DE9F041074682B0B5
:102AD000042016461C460D4605F008FB124B8046A6
:102AE0006846DB68DA6C1B6D174416441D441C44B1
:102AF000ADF80070ADF80460ADF80250ADF80640D6
:102B000008F0F2F948B1234632462946384604F027
:102B10002BFE08F08BF80028F5D1404605F0E6FAC8
:102B200002B0BDE8F08100BFAC00002003460420E5
:102B30002DE9F04182B0B3F90070B3F90260B3F946
:102B40000450B3F9064005F0D1FA124B80466846AE
:102B5000DB68DA6C1B6D174415441E441C44ADF849
:102B60000070ADF80450ADF80260ADF8064008F012
:102B7000BBF948B123462A463146384604F0F4FDF5
:102B800008F054F80028F5D1404605F0AFFA02B03D
:102B9000BDE8F081AC0000202DE9F047044682B08A
:102BA0000D461646002B37D09A46009651460B9B91
:102BB000204626680A9AB047074618B9384602B038
:102BC000BDE8F08706F082FC618A8046384605F051
:102BD00085FE013D384607F01FFE404607F01CFE0B
:102BE000002D1DDD4FF0000903E007F015FE013D4B
:102BF00016D054F81C6F0023CDF8009041462046B3
:102C00001A46B04706460028EFD1384606F0EAF9E2
:102C1000304602B0BDE8F08706F066FC8246C4E7A5
:102C200040461D2107F0BEFCBAF1FF3FC6D006F0BA
:102C30007FFC40B9BA450CD0384607F019FD38463C
:102C4000BDE70028F8D0FFF7A1F980698742F8D1E5
:102C5000B4E75046B3E700BF012B17DC2DE9F04184
:102C600007461C2090460D461E46FEF76FFE0446A2
:102C7000D0B16DB1056100232046A661A4F814808F
:102C8000E76023606360A360BDE8F08100207047C7
:102C9000074B53F826200AB9EDE71A461368002BB4
:102CA000FBD113692361E6E70020BDE8F08100BF96
:102CB0002C730020012B3BDC2DE9F84381461C20BE
:102CC00090460F461E46FEF741FE054600287FD07F
:102CD000414A002F31D00023DFF804E152F82640AA
:102CE00003609EF8001007618E428661A0F8148090
:102CF000C0F80C904360836002DB731C8EF80030D8
:102D0000002C5DD021464C68002CFBD1D9F8000086
:102D1000CB681B6883422CDD09680029F8D148B9CB
:102D20002E4B163628461A6842F82650BDE8F8831E
:102D3000002070472846BDE8F88352F82610002985
:102D400030D0084600E018460368002BFBD100692C
:102D5000DFF88CE02B6028619EF80000AE618642AF
:102D6000A5F81480C5F80C906B60AB60CBDB0C460B
:102D7000C3E70AD04B6843B31D606B608D4214BF3C
:102D80000B4600234D602B60C9E7B8F1010FF1D16C
:102D900004E0DC68194623688342EBDB0B68002BF8
:102DA000F7D1E7E7DFF838E001609EF80030866190
:102DB0009E42A0F81480C0F80C9041608160D6DA81
:102DC00042F82650D9F80000A9E742F82650D5E786
:102DD0000020BDE8F88300BF2C730020B80000205D
:102DE00025730020FEF75CBD00283DD070B48469D7
:102DF000012C03DD0123184670BC70471F4B1A7865
:102E0000944221DA1E4D55F824300BB932E01346B6
:102E10005A68002AFBD1C268116802E01B68002BC7
:102E2000E8D0DA6812689142F8DB10D05A68F2B143
:102E300010604260984214BF1A4600225860002376
:102E40000260184670BC7047621C1A70DAE7828A0A
:102E5000012AEBD104E0D668134632689142E5DCE2
:102E60001A68002AF7D1E1E701231846704745F8B0
:102E70002400DFE745F82400BDE700BF25730020EC
:102E80002C7300200F4A816952F8213098420AD0F1
:102E900042680AB103681360036803B15A600023F3
:102EA000036043607047036842F821302BB1002271
:102EB0005A604268002AEED1F0E74268002AEAD15F
:102EC000EDE700BF2C73002001280EDC084B53F8FF
:102ED000200058B1C3681B681BB908E0C3681B68B1
:102EE00023B100680028F9D170470020704770476F
:102EF0002C73002000B970472DE9F04182B01E46C6
:102F000015460C460746FEF7E3FE02AB026843F89F
:102F1000040D1846D2F80080FFF71EF833462A4603
:102F200021463846C04702B0BDE8F0812DE9F04F98
:102F3000484D83B0044600F0C9FB2B680646B3F940
:102F4000228000F0FBFB2B681FFA80F99A8CC9EBFA
:102F5000020212B29A84217800294FD0B6B22F46CD
:102F600047F6FF71204603F0C9FD0146834620461F
:102F700003F084FD29688B8D03F00303012B58D0E7
:102F8000022B5AD01FFA80FA4FF0000E4B8C0AF138
:102F9000FF3CB1F92420CEEB0303ADF80220013A47
:102FA0009BB2B0186A460FFA83FE6344ADF8060080
:102FB0002046A1F822E05946ADF800E0ADF8043013
:102FC00003F0CAF82B682046BDF8022059469A84BF
:102FD00002F010FD235C04440A2B19D00D2B17D0EE
:102FE000BDF800003B688244A3F822A022781AB101
:102FF00062780134002AB3D1B3F92420998D914429
:1030000021F00302A3F824909A8503B0BDE8F08F65
:103010002B689A8D02F00302013A012A16D8A3F810
:10302000228022780A2AE2D19A8C32449A84227829
:10303000DDE71FFA80FEF246A8E7002803461FFAE4
:1030400080FAB8BF431CC3F34F0E9FE71A8C5A8413
:10305000E7E700BFB8000020034B1B6859849A843F
:1030600008B1FFF763BF7047B800002000B3F0B5A8
:10307000054683B016460C46C1B1084607F0C0FBB2
:10308000074638B102462146684603F0AFFD684660
:1030900007F0B6FB32462146284647F6FF7303F099
:1030A000BDF8384607F0ACFB03B0F0BD0F46F1E7C2
:1030B000704700BF08B100F001B870472DE9F04F2C
:1030C00089468BB01F46B1F90030B1F9041015469E
:1030D00000930446CE1AB9F90630059201910136E3
:1030E000B9F902B0039300F0F1FA15F00C05029063
:1030F00019D0A2463A4631464FF00008504603F038
:1031000063FF48B182443A46314608F1010850460F
:1031100003F05AFF0028F5D1082D79D00C2D00F0CE
:103120008280042D74D0BDF808A0484607F068FBE3
:1031300002460490A8B10099002506A82B4661F329
:103140000F0501996BF31F4561F30F030399069572
:1031500061F31F434946079303F048FD06A807F0B3
:103160004FFB059B1FFA8BF503F003080AF1FF33B1
:1031700002934346B0461E4615E0022E34D01EB9D7
:10318000B9F80030ADF820302046594608AA554419
:1031900002F0E2FF20463A46414603F015FF0444A0
:1031A000ADB2237873B33A464146204603F06EFF32
:1031B000BDF80020029B8346ADF820202046EB1886
:1031C000BDF804205946ADF82250ADF82420ADF8E2
:1031D000263003F053FC012ECFD1B9F8043001336F
:1031E000181AADF82000CFE7B9F90010B9F904308A
:1031F0005B1A181A013048BF013001EB6000ADF8CE
:103200002000C1E7049807F0FBFA0BB0BDE8F08F8F
:10321000BDF808A0039B18FB0AF85D1CC8EB050568
:103220000FFA85FB81E7039B029ACBEB0303BDF802
:1032300008A0013308FB1238B8F1000FB8BF08F13D
:1032400001080BEB68050FFA85FB6EE72DE9F04FDF
:10325000654C91B02468E56C246D2818AA18611893
:10326000E318064607900EA808920D4602910193B6
:103270001C46ADF83860ADF83C20ADF83A10ADF81A
:103280003E3007F031FE002800F09580C5EB040BBE
:103290001A999DF86820C1F30724BBF1000F1B9910
:1032A0005B46B8BF0BF101030BFB02FEC1F307271E
:1032B0001A995B109DF86CC0C1F307401B9903EB92
:1032C0000E05C1F307461A990A95090E0BFB043542
:1032D0003C1B0B9503940BFB0034301A0BFB0133A2
:1032E0005E460C940D931B9B0490C1EB13630593F6
:1032F000C2EB0C03069300F0D1F91A9B1B9A0990BC
:10330000934267D0002E52D0029D019A954259DC1B
:103310000AAF86464FF0010B97E8800706E00BF1F5
:10332000010B0135019BA646AB422FDB70469AFB91
:10333000F6F499FBF6F197FBF6F398FBF6FC220600
:10334000059C43EA0C23A24442EA0144049A1C432C
:10335000029B9144069AAB421744039A9044E0DAE8
:103360007445DCD004F090FEBBF1010FCBEB0501FE
:1033700005F1FF33089A079820D004F0F5F90135DC
:10338000019B4FF0010BA646AB42CFDA204604F07A
:103390007BFEBBF1010F17D0019B089ACBEB030119
:1033A0000798013104F0E0F9099804F06DFE07F088
:1033B0003DFC00289FD111B0BDE8F08F691E04F0DC
:1033C00051F9AEE704F060FE089A0199079804F0FD
:1033D00049F9E9E7184604F057FE019B089A02995B
:1033E000079804F0C1F9DFE7B8000020F0B5114FED
:1033F00083B03B681D6DDC6C054468466618144458
:103400002BB2ADF80060ADF80440ADF80230ADF875
:10341000063007F069FD50B13B6822462946304628
:103420005B6E1B68984707F001FC0028F4D103B0DD
:10343000F0BD00BFB80000202DE9F0431E4C83B062
:1034400025682E7E2F6DEC6C013E07EB010907EB22
:10345000030825181444B2B26846AE1A1119C2EB1B
:1034600009034244ADF80060ADF80410ADF8023035
:10347000ADF8062007F038FDD8B109F1010708F1D1
:10348000FF3622464946284604F0ECF822464146DB
:10349000284604F0E7F832463946284604F03CF95D
:1034A00032463946204604F037F907F0BFFB0028C2
:1034B000E7D103B0BDE8F083B8000020104B1B68D3
:1034C00070B5DD6C82B01C6D054468466618144406
:1034D0002BB2ADF80260ADF80640ADF80030ADF8A3
:1034E000043007F001FD40B122463146284604F081
:1034F00013F907F09BFB0028F6D102B070BD00BFA6
:10350000B80000202DE9F0410025124F124EDFF8DF
:103510004C803C681CB1A047041C18BF012405F076
:103520007DFE3368002818BF01244BB1984738B19D
:10353000D8F8003013B1012498473CB10125E8E7E1
:10354000D8F80030002BF7D1002CF7D12846BDE881
:10355000F08100BF50730020547300204C73002092
:10356000F0B5104C83B02468E56C246D2F18154419
:1035700066181C446846ADF80070ADF80450ADF80C
:103580000260ADF8064007F0AFFC48B123462A467A
:103590003146384604F0E8F807F048FB0028F5D13A
:1035A00003B0F0BDB8000020002850D0C388013B14
:1035B00010B5848880681F2B47D8DFE803F01623F6
:1035C00046314646463C46464646464646404646C0
:1035D0004646464646464646464646464610A3109A
:1035E00002FB031150F8210010BD02FB04F200EBB6
:1035F000D104C843A35C00F0070023FA00F000F0F8
:10360000010010BD02FB04F200EB91046FEA4100DF
:10361000A35C00F0060023FA00F000F0030010BDE8
:1036200002FB04F200EB5104CB07A05C4CBF00F09E
:103630000F00000910BD02FB0404605C10BD6310A4
:1036400002FB031130F8110010BD002010BD7047BF
:10365000034B082153F82000C3689B6A184700BF3A
:103660002C73002008B504F0BFF8BDE8084004F052
:103670008BBA00BF024B00211B68DB695B681847EF
:10368000B8000020024B1B68DB695B68184700BF6D
:10369000B800002008B105F00BBF704708B504F072
:1036A000ABF8BDE8084004F06FBA00BF012801D9AB
:1036B00000207047014B53F820007047A87000208D
:1036C000014B1B68187C7047B8000020024B1B6838
:1036D000DB69587E704700BFB800002038B50D4642
:1036E000144604F027F910B100232B60236038BD85
:1036F000044A054BB2F90020B3F9003002600B60B8
:10370000704700BF167300201873002010B50446E0
:1037100003F01CFA01462046BDE8104003F0AEB9A4
:103720000FF0FCBB044B3422352061219A701870D5
:1037300018461971DA707047A40000200A4B1A6805
:10374000938D03F00C03082B05D00C2B03D0042B16
:1037500005D000207047D369187E40087047D369B0
:10376000187E0138704700BFB8000020024B53F8A4
:1037700020301B69186870472C730020024B53F8E7
:1037800020301B69586870472C730020024B1B685F
:103790005884002099847047B800002090B583B009
:1037A00000AF534A524B1B6823F001031360514B87
:1037B0001B68C3F30A0340F2494293420CBF012342
:1037C0000023DAB24B4B1B68C3F30A0340F25141AA
:1037D0008B420CBF01230023DBB21343DBB219463B
:1037E000444B1B68C3F30A0340F2524293420CBF9E
:1037F00001230023DBB20B43002B10D03E4B0122F0
:103800001A6000BF3C4B1B68002BFBD13B4B3C4A72
:103810001A603A4B1B683B4A934218D0FEE73A4B7A
:103820001B68C3F30A03B3F58A6F10D1374B01222B
:103830001A6000BF354B1B68002BFBD1344B304A5C
:103840001A60334B1B682F4A934200D0FEE702F008
:1038500043FC304B2E221A700FF066FB2E480DF001
:103860002BF80EF023FE786004F0DEF80346002B00
:103870000CBF01230023DCB204F01CF90346002B2B
:103880000CBF01230023DBB22343DBB2002B09D0A2
:1038900004F0E0F8044604F023F9034619462046F4
:1038A00004F01EFC0021002001F028FF06F026F99C
:1038B0001A4B1B68002B12D00DE0184B1B681B68BD
:1038C000002B03D0154B1B681B689847134B1B68D4
:1038D0005B68124A1360114B1B68002BEDD1104B33
:1038E00001221A707B6818460C37BD4690BD00BF98
:1038F000002000E0002004E00830024000300240D8
:10390000C2A507F4CDB5E8B50010005C084C02581C
:10391000004C025814730020886F002000700020B3
:103920002473002010B582B028B90F4B1B68186EA5
:1039300008B902B010BDFEF7CBF902AB446943F8F9
:10394000080D1846FEF708FB002CF2D0204602AC0A
:10395000FEF7BEF9826844F8040D93689847204644
:10396000FEF7FAFA02B010BDB800002000B97047A7
:10397000014A114600F002B801F0FFFF2DE9F047BF
:10398000DFF8F08084B0064600200C46154601F0B2
:1039900093FED8F80030814630461F6EFEF798F946
:1039A00003680090986901F069FE314B82469C42A1
:1039B000009B4DD01A895B89013AADF80840013B64
:1039C000ADF80A5022442B44ADF80C20ADF80E306F
:1039D00005F060F96846FEF7BFFA02A807F084FA1E
:1039E00018BB504601F04AFE002F39D0D8F80030FD
:1039F0001B6E93BB05F0BCFA3846FEF769F904ACC0
:103A0000D8F8003044F80C0D1F660068FFF7ECF999
:103A10002046FEF7A1FA04F015FC04F027FB484607
:103A200001F04AFE04B0BDE8F0872A462146304640
:103A300000F084FC07F0FAF80028D2D02A4621468C
:103A4000304600F07BFC07F0F1F80028EDD1C8E724
:103A5000B3F90440B3F90650ACE701F005FEC9E73D
:103A600001F002FE484601F027FE04B0BDE8F087F1
:103A700001F0FFFFB80000202DE9F0431C4D0F4678
:103A800006461C4C296885B090469946487C54F8F7
:103A9000204001E02468DCB1E3681A68042AF9D107
:103AA000DB6A0121204698470546B8B12469A3681E
:103AB0009847013016D00C994B464246029400912B
:103AC00039460195304600F0ADFA05B0BDE8F08307
:103AD000FFF7FAF9044608B1C368E1E7002005B032
:103AE000BDE8F0830C9B044C43F001030C93E2E728
:103AF000B80000202C730020CCEB0108C0B1114BA2
:103B00001B681B6E984210B5044682B016D0204642
:103B1000FEF7DEF8436901905BB90068FFF762F9D0
:103B200001A8FEF719FA2046FDF7A0FE02B010BD6D
:103B30007047184602F068F80198EEE701F094FD2E
:103B4000E5E700BFB80000202DE9F04FDFF864B1D1
:103B5000894604465548DBF800101E4687B0924659
:103B60004F7CC3573846012B40F38E8003F062FF31
:103B70000546384603F0A4FF0746002C00F081807C
:103B800005A904A8FFF7B4FD049A059B1544B4F9F0
:103B900000201F44B4F9023022EAE272013D23EA18
:103BA000E373013F114602921846B4F904200393CF
:103BB0009542D4BFC1EB0501C1EB0201B4F9063057
:103BC00002460D469F42D4BFC2EB0702C2EB03027E
:103BD00001351746013706B97E42002D4DDD002F15
:103BE0004BDD109B2A460399009333460298FFF75A
:103BF00043FF804600284FD000F08AF887420646EF
:103C000004D0DBF80030986C00284BD140463D468C
:103C1000002400F07DF90EE0AD1BACB950463444F1
:103C2000C847234B00201B6803B198474046FFF765
:103C30009DFEA74212DDAE42EEDD2946404600F071
:103C40004DF9AD1B002CE9D0039B40460299E218C8
:103C500000F088F94046FFF765FEDFE74046FFF7D2
:103C60004DFF002000F054F9B74206D0DBF80030D9
:103C7000986C10B1332107F085FE002007B0BDE835
:103C8000F08F03940294A6E703F07EFE05463846C3
:103C900003F0A4FE074670E75046C847012007B06E
:103CA000BDE8F08F322107F06DFEAFE728730020EA
:103CB00098710020B800002030B583B018B90446D0
:103CC000204603B030BDFEF703F8036802AD1B6960
:103CD00045F8040D9B68984704F0D4FB0446284639
:103CE000FEF73AF9204603B030BD00BF70B110B501
:103CF00082B0FDF7EDFF00F1180402AB43F8040DAC
:103D00001846FEF729F9204602B010BD704700BFE3
:103D100010B582B060B1FDF7DBFF02ABB0F90A402D
:103D200043F8040D1846FEF717F9204602B010BDFF
:103D3000044B1B68186E0028EDD10446204602B0E3
:103D400010BD00BFB80000202DE9F04F804687B0BD
:103D5000002758E0002E7ED105F0C6FB804500F01C
:103D60009A80584B01264946224602935846564BA4
:103D7000009601932B4600F055F981464046FDF729
:103D8000A7FF03460590C0F82490B9F1000F79D041
:103D9000826A05A8DFF840B142F480329A62FEF7E9
:103DA000DBF8484600F0B4F882463046474E01F052
:103DB0008FFF4846FFF79AFF454B05FB04F2454C41
:103DC000197892003568A84740462568CBF80080EE
:103DD00005F0DCFB2060404607F09CFC00222560DB
:103DE0001046CBF8002001F073FF504600F090F829
:103DF0004046FEF7CBF8406AB0FA80F35B09013722
:103E0000042F22DC0BB34046FDF762FF034605A8F2
:103E1000B3F900B0B3F90290B3F90440B3F9065016
:103E2000CBEB04040593C9EB05055E6A0134FEF78C
:103E300093F80135002DC8BF002CD4BF0123002307
:103E400088DC01370020042FDCDD08B100F0BCF86D
:103E500007B0BDE8F08F3046FDF73AFF034606A8ED
:103E6000B3F9065040F8083DB3F90440FEF774F882
:103E7000A94501D1A345BBD04A465946304600F07A
:103E800071F8B5E705A8FEF767F8404607F042FC71
:103E900033464846B3E703F0B1FD064603F0F4FDB0
:103EA000B44202DC85427FF75CAFB442A8BF34461F
:103EB0008542A8BF0546214640462A4606F074FCC6
:103EC0004FE700BFCCEB0108F85A02085C01002064
:103ED000640100204C720020D87F002010B50C46F1
:103EE00082B060B1FDF7F4FEB0F90A300190A34250
:103EF000C8BF448101A8FEF72FF802B010BD034BE4
:103F00001B68186E0028EDD102B010BDB80000206B
:103F1000F0B5134F83B03B681E6ED8B10446B6B9F6
:103F200005F026F82046FDF7D3FE02AD3B6845F8C4
:103F3000040D1C660068FEF757FF2846FEF70CF8D4
:103F400004F080F904F092F8304603B0F0BD01F0BF
:103F50008BFBE5E701F088FB304603B0F0BD00BF06
:103F6000B800002030B50C4683B028B9154B1B684B
:103F7000186E08B903B030BD15B224B2FDF7A8FE23
:103F8000C5808480009004F071F8009B586920B9C6
:103F90006846FDF7E1FF03B030BDFDF799FE009BD9
:103FA0000190B3F90820B3F90A308280C38013B1BD
:103FB0000AB10480458001A8FDF7CEFF6846FDF7F1
:103FC000CBFFE8E7B800002000B9704770B584B0B7
:103FD0000446FDF77DFE014601A8B1F90460B1F980
:103FE00006500A894B89324401912B44ADF8086090
:103FF000013AADF80A50013BADF80C20ADF80E3097
:10400000FDF7AAFF02A806F06FFF40B12A4631462D
:10401000204600F075F906F009FE0028F6D104B03C
:1040200070BD00BF2DE9F04FDFF82C8187B08246CC
:104030008B46D8F8000017461E461299437C002292
:104040001198FEF709FE00284DD0036905469B68CC
:10405000984704F017FA00FB07F48146FDF7BCFE11
:10406000109B073413F001034FEAD4043FD0002E15
:104070002CDD002B42D004FB06F01830FDF7B2FB1C
:10408000024668B30023029310460392FDF720FE18
:10409000029A034606A8A3F804A0A3F806B01F815D
:1040A0005E81DC60C3F810905A6140F8043D1D60E9
:1040B000FDF752FF129AD8F800302A61039A104691
:1040C000AA605B7CAB6107B0BDE8F08F002C34D1F7
:1040D000204676428642A8BF064693B3002ECADC2D
:1040E0002846FEF77FFE002007B0BDE8F08F0028CD
:1040F000B8BF0330801000EB4000B8E700933A46A9
:1041000033465946504601F0F5FC029004FB06F098
:104110001830FDF76BFB02460028B5D12846039204
:10412000FEF760FE029B002BDDD01846FDF79EFBDC
:10413000039A104607B0BDE8F08F1838B0FBF4F0D2
:10414000C7E700933A4633465946504601F0D2FC41
:10415000002E0290DADCC3E7B80000202DE9F04F12
:10416000644D91B0644E88462B68144608905B7C81
:1041700056F82330D3F810A0FDF7AAFD034610A887
:104180001A68B3F90810126940F8083D52680691A0
:104190000792B3F90A90FDF7DFFE2B6808215B7CDC
:1041A00056F82300C3689B6A9847172810D803283D
:1041B000064608BF0826DAF8043000200993DAF82A
:1041C00000300C9301F036FD20B111B0BDE8F08F46
:1041D0002026F0E706992A6808EB0103B2F90C5093
:1041E000013B5D1B002D7EDD4D1BB2F9083098456B
:1041F00074DB0021002DE8DD04EB0903B2F90E00A9
:10420000013B1B1A002BC8BFC3EB0909B2F90A30E6
:104210009C426ADB0027B9F1000FD6DD069BB3464E
:10422000CDF82CA007FB031704EB0903BF000A938A
:1042300020E00423069A31463046C8474FF0010E6D
:10424000002300212A4605934046734603910496B5
:104250002146CDF808B004EB0E09CDF804E0CDF806
:1042600000E0069C03F078F80A9B07EB84074B45B7
:10427000ABD04C460898FFF739FD0FABC219214669
:1042800001934046079B00932B4602F08DF80646AB
:1042900000289AD0099B1A46184B9A42CED0DDF8D6
:1042A0002C905A4629464B4601F050FE0028C5D1B5
:1042B000D9F81090B9F1000FBBD1DDF81890B246D3
:1042C0000D954D46A1460C9CDAF80000A047013D33
:1042D0004AF8040BF8D10D9D4C46AFE7C8EB03013B
:1042E00098466D1A86E70D467FE71F1B1C46C7EBF5
:1042F000090990E7B80000202C730020697C0008B1
:104300002DE9F04182B00F4690460646FDF7E0FCED
:10431000034602AC16211D68002044F8043DEB68FA
:104320005B6A984705462046FDF716FE1DB14246DA
:1043300039463046A84702B0BDE8F08100B9704761
:104340002DE9F04FA3B08B4692460446FDF7C0FC22
:1043500022AB456943F81C0D1846FDF7FDFD2046CC
:10436000FFF7AAFC0828814640DD002D3ED12046FB
:10437000FDF7AEFC22AA0346B0F9081042F8100D72
:1043800010460D92B3F90A200A9109921968DA6869
:104390000E690B930E92FDF7DFFD9248924900687B
:1043A000D6F80480407C51F820100D692B680C93DE
:1043B000FFF74EF908280B9B14D910288BBF202239
:1043C0001022042702270B92AE4200F0F882B9F1C6
:1043D000200F00F0B381B9F1100F00F0458123B038
:1043E000BDE8F08F082201270B92EDE700210123A1
:1043F00020467C4E20910DF188080B9121930A9361
:10440000FDF766FC074630683A68FB68B7F90810A4
:104410001269139314913B69B7F90A10407C099310
:10442000169148F8147D5568D7F81490FFF710F9E5
:1044300032680E90507CFFF7A1F907464046FDF721
:104440008BFD099A0A9B082A0B9940F29D80102A3D
:1044500013460A918CBF042302230C93BD4200F043
:10446000C1813368587CFFF781F9149B0646980098
:10447000FDF7B8F910900028B1D02046FFF736FCC0
:104480000446B9F1000F00F088804846FDF720FC93
:10449000169B1E90002B40F3A1810023DDF838808D
:1044A000CDF834A00B93139BCDF848B0E3181593C7
:1044B0001FAB19460F93836800225B691F920B9A0A
:1044C0009847159B139A04469B1A0E93149B83429C
:1044D00000F0F680099B012B00F08880002842D074
:1044E0001CAB11931098FDF7F3FB099B07461C903A
:1044F000082B1F9A65D90C9BA3460E99824602FB96
:10450000031939F8020BA847B047BBF1010B4AF871
:10451000040BF6D1B8F11F0F04D8384642462146A5
:1045200001F040FC0A9901231F9822460591129937
:104530001C9F08440021019300930391CDF808804B
:104540000D99049702F008FF1198FDF705FD1F9BD8
:104550001E981C440B9A83680F991F945B699847B7
:1045600004460028BED1159A13990B9B0A440133C7
:1045700015920D9A0B9301320D92169A9A4200F001
:104580002D811E980F9996E7012A03D120AB0C923A
:104590000A9363E70C930A9160E701250A9B139A3B
:1045A0000999059304905846039202915146169B2F
:1045B000149A0195009502F0CFFE1098FDF756F978
:1045C0000DE70C9BA2460E99814602FB031B1BF8CC
:1045D000010BA847B047BAF1010A49F8040BF6D11C
:1045E00098E700BFB80000202C7300200028BAD044
:1045F000CDF8608019960B9F0A9EDDF83880DDF8B3
:104600003490DDF848A0DDF83CB017951192DDF844
:104610007CE02246119D01230EF0070049460395D8
:10462000012506900AEB0E00BEF1000F05960295DB
:10463000B8BF0EF1070E0195009508EBEE0ECDF810
:1046400010E003F011FE1F9B1E983A461C44594689
:1046500083681F945B69984704460028D7D1179D4B
:10466000DDF86080199E7EE70A9B03FB07F0FDF7EB
:10467000B9F8109000283FF4B2AEFDF729FB209066
:104680002046FDF725FB00F118031E900E932B69C1
:10469000002B00F0A6817369002B00F0A281B0F915
:1046A00008008000FDF79EF81190002840F0BA81C4
:1046B0001F900D98FDF750FC20A8FDF74DFC7CE7FE
:1046C0001098FDF705FB099B81461C90082B149F51
:1046D0000446DDF838A028D93AF8020BA847B047BD
:1046E000013F44F8040BF7D1B8F11F0F04D8484636
:1046F0004246149901F056FB22AB12980D991A46C6
:104700000A9B059300230393012352F818EDCDF87B
:10471000088017460193149A0093CDF810E002F038
:104720001BFE3846FDF718FC1DE71AF8010BA847D9
:10473000B047013F44F8040BF7D1D5E70A9B07FBCC
:1047400003F0FDF74FF80E9000283FF448AEFDF758
:10475000BFFA20902046FDF7BBFA1E902C6900F1AD
:104760001808002C00F0EB800A9A5C4601260A9596
:104770004FEA82099346CDF83090DDF8249017E097
:10478000042F21D0012F15D00B9B0020209D5146D6
:104790000293012305905A460390204601969A44BD
:1047A0000096049502F0D8FDB9F1010900F0E88007
:1047B000022FE5D10C9D40463B465A46A8440A9D2F
:1047C00020992D69A847DFE70C9B40460A9D5A4671
:1047D000984420993B462D69A847D5E71EA8FDF7C8
:1047E000BBFBEAE62046FFF781FA8046B9F1000FED
:1047F00000F0D4804846FDF76BFA169B1E90002B04
:1048000040F3C88000261FABCDF834A00125B14687
:10481000DA461F4683683246CDF87C9039465B699C
:104820009847149B0446834231D0099B012B57D0F3
:1048300020B30D9B0B9603EB060B1F9801230C99DD
:104840000A9A01FB008E099E139950440592224654
:1048500003915946CDF810E002960195009502F0BB
:104860007BFD1F9B1E9839461C440B9A83681F943E
:104870005B69984704460028DFD10B9E139B0136E5
:104880009844169BB34240F385801E98C2E7CDF84A
:104890002C80B346984600E0A3461E980BF1010415
:1048A0003946836822465B6998478045F4D00A9A66
:1048B000C6EB0B03DDF82C805046059201330D9AB0
:1048C000CDF810809119139E099A039602920195D2
:1048D000149A06FB03880095264602F03DFDD0E7BA
:1048E0000028CBD00D9B0B9603EB060BDDF87CE08C
:1048F00022460A9E01230EF00700594605960690AF
:104900000AEB0E00BEF1000F139E0295B8BF0EF128
:10491000070E0396019508EBEE0E0095CDF810E01A
:1049200003F0A2FC1F9B1E9839461C440B9A836817
:104930001F945B69984704460028D7D19DE7A1469C
:104940000125099E0123022F51460A9A58460AEB77
:10495000030E00F0A981042F00F07D819F4200F03A
:1049600052810B9CF246CDF814900294209CCDF815
:104970000C9001950095049402F0EEFC013EE1D10B
:104980000D98FDF7E9FA20A8FDF7E6FA0E98FCF776
:104990006DFF24E51EA8FDF7DFFA20E501240A9B40
:1049A000139A09990593049058460392029151462F
:1049B000169B149A0194009402F0CEFC0FE50E9A17
:1049C0000124183300250392514604935846099B4D
:1049D000CDF808900A9A05950194009402F0BCFC69
:1049E000FDE40125DDF82890099E0123022F5146A0
:1049F0004A4658460AEB030E00F0D480042F00F01C
:104A0000A0809F426DD0002401950095F246059448
:104A100003940B9C0294209C049402F09DFC013EA4
:104A2000E3D146E6FDF754F91F9000283FF441AE6C
:104A30000A9A0124CDF828B04FEA420990460C9515
:104A4000CDF83C90B146DDF838B017E0042F2ED0F9
:104A5000012F28D00B9B0020209D5146029301235B
:104A60000590424603909A44019400940A98049554
:104A700002F072FC099B013B09932BD0022FE5D178
:104A8000209B1E463B4642461F995846D9F8145073
:104A9000A8470F9D31463B46AB440C9D42461F98AC
:104AA0002D69A847D6E7209B1E460223EBE7209BF3
:104AB00042460F9E58461D461F990223B344D9F81B
:104AC0001460B04729460C9D3B4642461F982D690D
:104AD000A847BFE71FA8FDF73FFA1198FCF7C6FEED
:104AE000E7E50A9B444609965D000C9E0C95209DC7
:104AF000DDF83880DDF8289038F8020BA047B04781
:104B0000B9F1010905F8010BF6D10E9D01230B98AF
:104B10005146AE460C9D02905846AE44209DCDF8BD
:104B200014909A440A9ACDF80C9001970097049536
:104B3000CDF838E002F010FC099B013B0993D6D177
:104B4000B7E50A9B0125099644465E000C9F0C962A
:104B5000209EDDF83880DDF8289038F8020BA04759
:104B6000B847B9F1010946F8040BF6D10E9E0123AE
:104B70000B985146B6460C9E02905846B644209E6D
:104B8000CDF814909A440A9ACDF80C9001950095AE
:104B90000496CDF838E002F0DFFB099B013B099356
:104BA000D6D186E50A9B0125099644465E000C9FF6
:104BB0000C96209EDDF83880DDF8289038F8020B3E
:104BC000A047B847B9F1010926F8020BF6D10E9EAD
:104BD00001230B985146B6460C9E02905846B644A7
:104BE000209ECDF814909A440A9ACDF80C90019525
:104BF00000950496CDF838E002F0AEFB099B013B2E
:104C00000993D6D155E595000C9C09960C95209DED
:104C10004646DDF8289056F8040BA047B9F1010983
:104C200005F8010BF7D10B980123209E5146029005
:104C30005846CDF814909A440A9ACDF80C900197F2
:104C4000009704960C9D02F087FB099BA844013B4A
:104C50000993DCD194E60996012596000C9C0C96EC
:104C6000209E4746DDF8289057F8040BA047B9F17D
:104C7000010946F8040BF7D10B980123209F5146F8
:104C800002905846CDF814909A440A9ACDF80C90A8
:104C90000195009504970C9E02F05EFB099BB044C1
:104CA000013B0993DCD16BE60996012596000C9C2B
:104CB0000C96209E4746DDF8289057F8040BA04735
:104CC000B9F1010926F8020BF7D10B980123209FB7
:104CD000514602905846CDF814909A440A9ACDF85D
:104CE0000C900195009504970C9E02F035FB099BF2
:104CF000B044013B0993DCD142E600BF094B1A6A7C
:104D0000002A18BF002003EB800210B49469002C25
:104D100004DB4FF0FF3443F8201094615DF8044B3E
:104D2000704700BF2470002058B311B30AB3B1F923
:104D30000030F0B5B2F90050B2F902E0B1F902402A
:104D40009D42B2F90470B2F90660A8BF1D46B1F9E0
:104D500004207445B1F90630A8BF7446BA420580F4
:104D6000B8BF3A46B3424480B8BF33468280C3805E
:104D7000F0BD002908BF11460A684B680260436015
:104D80007047704778B189B2C38892B270B4068810
:104D9000448885880E4414441A442944068044807B
:104DA0008180C28070BC704770B4124D04462B687D
:104DB0006A6893420FD0104EB34293E8070014BFC5
:104DC0000C333C3B84E807002B60207A003070BC39
:104DD00018BF01207047094A934204D013E9070025
:104DE00084E80700F1E73C3393E8070084E8070014
:104DF000EBE700BFBC0000208C700020507000204A
:104E0000034B09CBC01AB0FA80F04009704700BFCD
:104E1000BC000020F0B53C4E85B00446336D002B3D
:104E200055D03A4A01AD3A49F36C116094E8070055
:104E300085E807000BB128469847364F3C687B68E9
:104E40009C4232D0B342304A32D09DF80C00A3F1DC
:104E50000C0113F804EC8C46864535D18C4233D0D6
:104E600091423BD002F13C0E11F8042C82423DD01D
:104E7000734595E8070083E807000BD00C339C428C
:104E80007B600BD0B36C0BB12846984700F05AFCFE
:104E900005B0F0BD1C4B9C427B60F3D11E4B9C4285
:104EA00014BF0C343C3C3C60ECE7DFF86CE0DFE71F
:104EB0009DF80C0096F8442082421DD106F13C0E6C
:104EC000744519D07146CFE702F13C0ED0E7134B81
:104ED000304640F8503F01F0F7FFA2E791F8442038
:104EE00001F13C0E8242C3D16346C1E7B34208D010
:104EF000A3F10C0C6346BBE795E8070086E80700C2
:104F0000BCE7054BB4E700BF50700020E47F0020F1
:104F1000F5950008BC0000208C7000207D0D010874
:104F2000094A136851688B420CD010B5074CA34254
:104F300093E8030014BF0833503B136005F0D6F923
:104F4000012010BD00207047440100206071002046
:104F5000F0B5164C059F2568069CB5F908E0B5F933
:104F60000C607045B8BF7046B242A8BF324690424E
:104F70001ADCB5F90A60B5F90E50B142B8BF314636
:104F8000AB42A8BF2B468B4203DAF0BD25682DB19A
:104F90002C46E5682D6835F00405F7D10694059791
:104FA000BDE8F04002F004BFF0BD00BFB800002033
:104FB000B0F90220B1F906309A4214DCB1F90220AE
:104FC000B0F906309A420EDCB0F90020B1F9043095
:104FD0009A4208DCB0F90400B1F900308342CCBF3A
:104FE0000020012070470020704700BF08B5034B28
:104FF000014674221868FBF736F908BDB800002096
:1050000000B970472DE9F04FABB00D4616461C9223
:105010001B91FCF75DFEB0F9043004689D422790B7
:10502000109400F060810020FEF772FFB14B109ADF
:105030001B689269597C1F900846279D17928242EF
:10504000209118BF5A74B5F90430B5F906201946F5
:105050000693B5F90830104612925B1AB5F90A208A
:105060001C46121A08931646139222462B8A0132C6
:105070009B071A92324602F101021D9240F11681FD
:105080001B9B6A695B1A0292002B1C9A1493A2EB79
:10509000000440F3C78109934FF0010B1A9B03935F
:1050A00000231193002C40F3B1811D9B4FF0000AA7
:1050B0001894169301231593109E8F4BB0691B56BD
:1050C000012B40F39B810023ADF8A230ADF8A03056
:1050D00002F0B0FC431EB069ADF8A43002F0F0FC61
:1050E0000138ADF8A60027985A4600F1140107F0E0
:1050F0001BFC2190002800F0D88027985A4600F128
:10510000140107F011FC2490002800F0C980279BAF
:10511000D868002840F09281169A524500F0BC8071
:105120001A9B11999A0022900AFB0313C4EB0A01FF
:10513000CDF810A005EB83030D9115990E93129BEA
:1051400001FB02F223441E9219934FEA8B0307934B
:10515000049A1899139813469142119CCCBF0023CE
:1051600001239042B8BF00230B93129BD3180F93D7
:10517000199B13440A93039B1A46A2427BD01498AE
:10518000069BC0EB0409DDF838A003440C93049A95
:1051900021460298FEF708FA0746060EFF2E63D056
:1051A000099B089AA3420699CCBF00230123A2427F
:1051B0000C9A214402EB0405BDF9A020B8BF0023DE
:1051C0000591AA420B9903EA01030DDCBDF9A22067
:1051D0000A98824208DCBDF9A420AA4204DBBDF98A
:1051E000A620824280F2AE804FF00008002B00F033
:1051F0008980B9F1000F0ADB0D9B002B07DB1A46F3
:1052000049460298FEF7D0F9000EFF287AD0BDF982
:10521000A0309D4226DBBDF9A2300A998B4221DCE9
:10522000BDF9A430AB421DDBBDF9A6308B4219DBC2
:10523000002E00F0D8802299FF22304B384621F012
:105240007F411B689847179A2D4B53F822301B69F2
:105250001B6898470246219B28460A990093109B99
:105260000CF022FCCAF82080079B5C44D9449A4485
:10527000039BA3428BD10E9A1E98049B024415995E
:105280000E920B440D9A04931046169A08449A42C3
:105290000D907FF45DAF279B249918680CF0CCF833
:1052A000279B219918680CF0C7F8279D1B991A9B1A
:1052B0001C980B44A980421E1D99013BE8800A44BA
:1052C0002B81179B6A811946209A914202D0094B83
:1052D0001B685A741F98FEF71BFE27A8FCF73CFEBC
:1052E0002BB0BDE8F08FB0F906309E427FF49BAE44
:1052F000F3E700BFB800002028730020C40000209E
:105300002C730020BDF9A030059A934281DCBDF9D1
:10531000A2200F9882423FF77CAFBDF9A4200599E7
:105320008A42FFF676AFBDF9A62001468242FFF61B
:1053300070AF249BDAF8202005980093109B0CF0A6
:10534000B3FB64E7DDF89C80B8F90420AA423ADC9C
:10535000B8F90810A94236DBB8F906E001468645DF
:1053600031DCB8F90A0088422DDBD8F8140050B3BC
:105370002593AB1A194622930A9BCEEB03031A46D8
:105380002393FEF711F9259B000EFF281BD0B8F9D7
:105390000410B8F90820521A239902FB011222992D
:1053A0000A4408EB8208D8F8202022F07F4090467B
:1053B0002393179AA64B53F82220126952689047FC
:1053C000239B229012E7109A1068E8B1D0F80CE005
:1053D00029460A9ADEF814802293C047229B804611
:1053E00020F07F40E4E7179A27F07F40984B53F86E
:1053F00022301B695B68984702462CE7F368304609
:1054000028A91B6B98476EE68046D1E713990022C6
:105410004FF0FF3318920A4616938A46224415939A
:10542000139249E60021089A4FF0FF33099114992D
:105430009B4611920A440393089233E6FCF748FC1A
:10544000169B2690534500F098801A9B4FEA8B09D3
:1054500011999A00CDF810900AFB0313C4EB0A01CE
:10546000D946D3460C9105EB830312990E93214440
:10547000069B1991159901FB02F21E92149A13448E
:105480000B93189B139A5B45CCBF002301235A450D
:10549000119AB8BF00230A93129B5B440F93199B88
:1054A0005B440793039B93425AD01446149A0E9D73
:1054B000C2EB040A5A4621460298FEF775F80646E2
:1054C000002846D0099B089AA3420A99CCBF002322
:1054D0000123A242BDF9A020B8BF00231F460B9BA9
:1054E00003EB0408069B0F40424523440CDCBDF946
:1054F000A2200798824207DCBDF9A420424503DBC5
:10550000BDF9A620824257DA00220592002F39D039
:10551000BAF1000F0D9309DB0C9B002B06DB1A463A
:1055200051460298FEF740F80D9B58B3BDF9A020F4
:1055300090450CDBBDF9A23007998B4207DCBDF921
:10554000A430434503DBBDF9A6308B4257DA059BF7
:105550002B62049B4C44CA441D44039B9C42A9D12A
:105560000E9B1E99159A0B4493440E930C9B19465F
:10557000169B11449B450C9183D126A8FCF7ECFCAB
:10558000279B89E6BDF9A0209A42D1DCBDF9A21083
:105590000F9FB942CCDCBDF9A4109942C8DBBDF91C
:1055A000A610B942C4DB1846249B2A6A39460093E8
:1055B000109B0CF079FAB9E7279A0592B2F904200A
:1055C00042450DDC0598B0F90810414508DBB0F9FB
:1055D00006E007998E4503DCB0F90A00884218DA24
:1055E000109A106800288FD0D0F80CE041460D9337
:1055F000079ADEF8143098470D9B059086E7269AA7
:105600004046109B52F82620219E00960CF04CFA42
:105610009DE72393C2EB0803CEEB010205990D939E
:10562000486919462292FDF7BFFF239B0028D7D077
:105630000598B0F90410B0F90820521A229902FB1B
:1056400001120D990A4400EB8202126A05925DE78D
:105650002C73002008B5034B74221968FAF703FE77
:1056600008BD00BFB800002008B502F0B1FC02F090
:10567000E9FDBDE8084003F00DBB00BF70B50A4D61
:1056800001282A68567C01D9304670BD0446FDF7D2
:105690001BFC0028F8D02B685C74FFF7E5FF034B78
:1056A00030461C6070BD00BFB80000207C7F002029
:1056B00002F0B0BC02F0E8BC02F018BD034B024699
:1056C0001B68D86902B1DA61704700BFB8000020DA
:1056D00010B418B111B10346002002E000210120EE
:1056E0000B46034C034A216013605DF8044B70477E
:1056F000347300203873002002F03EBD084A0B4688
:10570000014670B415681A46064C074E6D7C308011
:1057100054F82500054DC4682B80236A70BC1847D7
:10572000B80000202C73002016730020187300208E
:10573000034B1B68B3F92A2058851046704700BFF9
:10574000B8000020024B1B6803B11847704700BF28
:105750006C710020024B1A6802B91860FFF7F2BFA3
:105760000C71002000B970472DE9F041DFF8B880D6
:1057700082B00546D8F80040A04242D06F461CB91E
:1057800019E0FCF7E9FBB4B12046FCF7A1FA0346A7
:1057900038469C680093A542F3D12846FCF798FA56
:1057A0000346009A01A8996801939160FCF7D4FB25
:1057B0003846FCF7D1FB2846FCF78AFAD8F80440B3
:1057C0000090A542184B29D094B101AE02E0FCF73D
:1057D000C3FB6CB12046FCF77BFA034630465C689D
:1057E0000193A542F3D1009A52685A60FCF7B4FBCA
:1057F0003846FCF7B1FB2846FCF738F802B0BDE8A4
:10580000F08102AEFCF764FA83686F4646F8040D37
:105810003046C8F80030FCF79FFBCCE742683846BA
:105820005A60FCF799FBE6E71472002010B582B0CD
:1058300018B90124204602B010BD0C46FCF748FA06
:10584000828902AB224243F8040D184614BF01249A
:105850000024FCF781FB204602B010BD00B9704760
:1058600030B585B00546FCF733FA0190FDF758FFD7
:1058700004AA52F80C1D8B69034410464B61FCF7D7
:105880006BFB2846FCF724FA124B02905C68A54299
:1058900019D084B12046FCF71BFA034603A85C68C4
:1058A0000393A54202D0FCF757FBF2E7029A526835
:1058B0005A60FCF751FB02A8FCF74EFB28460BF0A0
:1058C000B1F805B030BD426802A85A60FCF744FB4D
:1058D000F4E700BF1472002000B9704710B582B021
:1058E0000C46FCF7F5F902AB846143F8040D184649
:1058F000FCF732FB02B010BD0A4A002330B5146831
:1059000083B003605CB105462046FCF7E1F902ABC9
:10591000026943F8040D18462A60FCF71DFB204677
:1059200003B030BD14720020002370B50B6082B04C
:1059300018B90446204602B070BD0D46FCF7C8F900
:10594000846801AE01902CB93046FCF705FB204677
:1059500002B070BD3046FCF7FFFA2046FCF7B8F9FC
:10596000036901902B60EFE7014B1B68DB68184768
:1059700040730020014B1B681B68184740730020D0
:10598000014B1B685B68184740730020014B1B6884
:105990009B68184740730020F8B5084E0546046818
:1059A000336820461B6898473368074620465B6883
:1059B0009847044438462C60F8BD00BF407300206F
:1059C00000292DE9F04111DD00240F460646DFF8DD
:1059D00020802546D8F80030301901355B6898479B
:1059E0000444A742F6DC2846BDE8F0810025FAE72A
:1059F00040730020F8B569B105460C460026064FF5
:105A00003B6828465B689847013C05440644F7D14B
:105A10003046F8BD0E46FBE7407300202DE9F84301
:105A2000089C054689469846A96843462846561C60
:105A30004F684946B847013C3246F5D1BDE8F88386
:105A4000F8B5B0F90040B0F904500C1BAC422ADAAA
:105A50002344B0F90250E710FF21013B551B0269B6
:105A600004F00704DE4302FB057541FA04F406F076
:105A70000706D7EBE30205F11405E4B201FA06F6D6
:105A800000EB050EF6B20FD0435D013A0EF10107AF
:105A90001C43002A445503DD38461744FAF70DFC31
:105AA0003C7834433C70F8BD435D34401C4344555E
:105AB000F8BD00BF30B4B0F9024080250369121B65
:105AC000B0F9004003FB02F3091B143301F0070295
:105AD00003EBE1011541435C2B4330BC4354704759
